:020000040800F2
:1000000000180020656C000845090008490900082F
:1000100000000000000000000000000000000000E0
:100020000000000000000000000000004D09000872
:1000300000000000000000005109000855090008F8
:10004000E56C000800000000E56C0008E56C0008A5
:10005000E56C0008E56C0008E56C0008E56C00083C
:1000600000000000E56C0008E56C0008E56C000885
:10007000E56C0008E56C0008E56C00080000000075
:10008000E56C00080000000000000000E56C0008BE
:1000900000000000E56C0008E56C0008E56C000855
:1000A00000000000E56C000800000000E56C00089E
:1000B0006D09000800000000000000005D09000854
:1000C00010B5064C2378002B07D1054B002B02D02E
:1000D000044800E000BF0123237010BD6801002028
:1000E000000000006C750008044B10B5002B03D015
:1000F0000349044800E000BF10BDC04600000000F6
:100100006C0100206C7500080023C25C0133002ADA
:10011000FBD1581E70470000002243088B4274D365
:1001200003098B425FD3030A8B4244D3030B8B42F8
:1001300028D3030C8B420DD3FF22090212BA030C01
:100140008B4202D31212090265D0030B8B4219D3E2
:1001500000E0090AC30B8B4201D3CB03C01A524102
:10016000830B8B4201D38B03C01A5241430B8B424A
:1001700001D34B03C01A5241030B8B4201D30B0333
:10018000C01A5241C30A8B4201D3CB02C01A52415A
:10019000830A8B4201D38B02C01A5241430A8B421D
:1001A00001D34B02C01A5241030A8B4201D30B0206
:1001B000C01A5241CDD2C3098B4201D3CB01C01A20
:1001C000524183098B4201D38B01C01A524143092A
:1001D0008B4201D34B01C01A524103098B4201D318
:1001E0000B01C01A5241C3088B4201D3CB00C01A85
:1001F000524183088B4201D38B00C01A52414308FD
:100200008B4201D34B00C01A5241411A00D2014621
:10021000524110467047FFE701B5002000F006F894
:1002200002BDC0460029F7D076E770477047C04648
:1002300010B596B0282200210CA806F082FD1022ED
:10024000002101A806F07DFD1422002105A806F07A
:1002500078FD01230A930B9380235B021393802381
:1002600002245B030AA81294149302F051FA0028A6
:1002700000D0FEE7072303900490012101A8019319
:10028000029402F0BFFC002800D0FEE780239B020E
:100290000593802305A8099302F06EFD002800D085
:1002A000FEE702F079FC16B010BDC046F0B5DE46A0
:1002B00057464E464546E0B500279DB002F006FE83
:1002C000FFF7B6FF6B4B6C4C6C4D6D4E102200214E
:1002D0000DA827609B461F602F60376006F031FD38
:1002E0008020684BC0035969014359615A69024033
:1002F00080200292029A596980020143596180214B
:100300005A69C90202400392039A5A6990200A432B
:100310005A615B69C0050B400493049BF3230CA94D
:100320000C9302F0F1FD02230CA957480C930D9792
:100330000E9702F0E9FD00F0BBF83C2200210DA869
:1003400006F0FFFC514F524B0CA80C930F9701F095
:1003500085FE002800D0FEE70623089009900A9049
:100360000B9007A90CA8079301F014FE002800D0F9
:10037000FEE70CA801F002FE011E00D0FEE73822C5
:100380000EA806F0DEFC434B43490C93434B0F97FA
:100390001868FFF7C1FE01380D900CA801F05EFE51
:1003A000002800D0FEE7202305A905930CA86033A0
:1003B000069301F06DFE002800D0FEE70CA801F0C6
:1003C000DDFD071E00D0FEE705F0EAF8344B01978B
:1003D0009846344B9A46502399463368002B22D1D5
:1003E00030BF20E02B68072B20D8424623689B01B2
:1003F000D35C7E2B03D17F2123689B01D1542068DD
:100400002168800189015144404405F0A7F8336810
:10041000013B33602B6801332B6023680133236079
:100420002368072B22D83368002BDBD186221E4B92
:1004300092009A582B68002BCFD04B46D75C002FE8
:10044000F8D15B461968402289015144164803F0EF
:1004500081FC5B465A461B68013313601368072B07
:1004600000D917602B68013B2B60DFE7019B2360FD
:10047000D9E7C04688010020840100208C010020BB
:10048000200A00200010024000040048FFFF000086
:1004900000040040002C014040420F00800000207A
:1004A0002006002020080020240A0020FEE7C04685
:1004B00010B5124C00221249200002F083FF0028E0
:1004C00019D11049200002F097FF002810D10E49E1
:1004D000200003F057FC002807D1200002F096FF0F
:1004E000002801D0FFF7E2FF10BDFFF7DFFFF4E7C0
:1004F000FFF7DCFFEBE7FFF7D9FFE2E7240A002074
:1005000000000020840000207000002000B50D4B8A
:10051000026883B09A4201D003B000BD80200A4A2D
:100520000004D1690143D161D369002103400193E3
:1005300000221F20019B02F0ADFE1F2002F0D6FE1C
:10054000EAE7C046005C004000100240010087233B
:1005500010B59B00ED31FF31C05802F073FF10BDA4
:10056000CB005B1A9B00C3181933FF331A6887232B
:1005700010B59B00C05802F099FF10BDCB005B1A6C
:100580009B00C3189A6B872310B59B00C05802F0DC
:10059000C9FF10BD872310B59B00C05803F05CF85D
:1005A00010BDC046836870B50400022B01D0FFF770
:1005B0007DFF8725AD000121605903F035F86059B2
:1005C00003F00EF870BDC046872310B504009B00F1
:1005D000C05803F02DF8A369002B04D00621024A6D
:1005E00013690B43136110BD00ED00E0836910B582
:1005F0000400002B06D00621054A13698B431361C2
:10060000FFF716FE87239B00E05803F01DF810BD8E
:1006100000ED00E0872370B5040019489B00C4502A
:100620000433E050174B036008234360063B8360AC
:10063000036100238361C361036200F0EFFA0028C5
:1006400001D0FFF733FF8825AD0060591823002241
:10065000002101F019FC605958230022802101F08B
:1006600013FC605998230022812101F00DFC605990
:10067000D8230022012101F007FC002070BDC046F4
:10068000480C0020005C004088239B0010B5C05837
:1006900000F012FB032802D8024B185C10BD0220A8
:1006A000FCE7C046A475000810B514001A008823A2
:1006B0009B00C058230000F023FB032802D8024B04
:1006C000185C10BD0220FCE7A475000888239B007D
:1006D00010B5C05800F092FC032802D8024B185CF9
:1006E00010BD0220FCE7C046A475000888239B00CB
:1006F00010B5C05801F006FB032802D8024B185C65
:1007000010BD0220FCE7C046A475000888239B00AA
:1007100010B5C05801F054FB032802D8024B185CF6
:1007200010BD0220FCE7C046A475000888234AB229
:100730009B00C358002A07DBCA00511A89005B18C6
:100740000B33FF33187870477F221140CA00511ACB
:1007500089005B182A331878F5E7C04688239B0088
:1007600010B5C05800F0B2FA032802D8024B185C4A
:1007700010BD0220FCE7C046A475000810B588240F
:10078000A400005900F024FE032802D8024B185C94
:1007900010BD0220FCE7C046A475000810B58824EF
:1007A000A400005900F0F4FC032802D8024B185CA6
:1007B00010BD0220FCE7C046A47500080048704741
:1007C000900100207047C046122301480B807047FB
:1007D0001C000020042301480B80704730000020DB
:1007E000013A30B5D4B264008A1CA418002506E092
:1007F00030330B704D70023100018C420AD0020F71
:10080000D3B2092AF4D937330B704D70023100018D
:100810008C42F4D130BDC0461A2370B50B800C4B0E
:1008200018680C4B1B68C018002802D10A4C200025
:1008300070BD094C094BA11C08221D68FFF7D0FFB1
:100840002100042212312800FFF7CAFFEFE7C0465B
:10085000ACF7FF1FB4F7FF1F34000020B0F7FF1FF5
:1008600010B5044C0A000448210003F01BF92000D5
:1008700010BDC046680E0020D475000810B5044CA9
:100880000A000448210003F00DF9200010BDC04605
:10089000680E0020E475000810B5044C0A000448F6
:1008A000210003F0FFF8200010BDC046680E0020B4
:1008B000A875000810B5044C0A000448210003F094
:1008C000F1F8200010BDC046680E0020BC7500087D
:1008D0000022024B00201A607047C046E801002049
:1008E000002070478623124A9B00D15870B50B78C0
:1008F000072B19D00F4C2368072B01D9002070BD9E
:100900000D4D0E4B286840228001C01806F010FAE9
:100910002B6801332B602B68072B01D900232B6038
:10092000236801332360E9E70122054B1A70E5E7EC
:10093000240A0020200A0020E801002020060020D0
:100940000C1000207047C046FEE7C0467047C04606
:100950007047C04610B502F0C9FA10BD10B5024884
:1009600000F044FE10BDC046480C002010B50248FF
:1009700001F02AFE10BDC046680F002001220C4B7A
:1009800082B099691143996199690A408021009266
:10099000009ADA6949050A43DA61DB69054A0B40C6
:1009A00010210193019B13680B43136002B0704741
:1009B000001002400000014010B5040088B014226D
:1009C000002103A806F0BDF9164B22689A4201D017
:1009D00008B010BD8022144B9202D96990201143B7
:1009E000D961D969C0051140019101995969114333
:1009F00059615B6903A91A400292029B0823039381
:100A0000063B049301330693023B079302F07CFA02
:100A1000002200211C2002F03DFC1C2002F066FC9C
:100A2000D6E7C0460044004000100240094B02686F
:100A300010B59A4200D010BD9020074A0749D369EB
:100A4000C0050B40D361082102F050FB1C2002F0CE
:100A500059FCF0E70044004000100240FFFFFDFF9A
:100A600003680F4A82B093420ED00E4A934201D0DF
:100A700002B0704702230C4AD1691943D161D2698F
:100A800013400193019BF3E78020074A000191691D
:100A900001439161936903400093009BE8E7C046DE
:100AA000002C01400004004000100240002070476C
:100AB000002300B5064883B0019301F0C3FB222850
:100AC00003D10222019B13430193019803B000BD9F
:100AD000680F002010B5034801F0FCFA431E98414E
:100AE000404210BD680F002004210A4B0A4A10B58D
:100AF000596180211A6000225860090218009A602A
:100B0000DA601A619A61D9611A625A6201F0AEFC28
:100B100010BDC046680F002000440040054B10B5D2
:100B2000186096200002FFF7DFFF431E9841404205
:100B300010BDC046EC01002010B58AB20100034888
:100B400001F0E4FA431E9841404210BD680F0020B6
:100B50006A22054B00209A5C222A04D1582138329F
:100B60009A5A585A801A7047680F0020FF2310B510
:100B700018400C00162816D019280DD0012802D0D4
:100B80000120404210BD0F4801F0A4FA0028F7D11F
:100B90002000FFF7A9FF02E00A4801F01FFB431EF7
:100BA00098414042EEE7074B01211B681A68002C70
:100BB00003D18A431A600020E4E70A431A60002048
:100BC000E0E7C046680F0020034B10B51B68002B00
:100BD00001D00220984710BDEC0100200123C26E15
:100BE00010B51340C26E5B02520702D5802252003C
:100BF0001343C26E120701D5202213432221C26E75
:100C0000114201D080221343034A1268002A01D006
:100C10001800904710BDC046EC01002070B5041EBE
:100C200045D0EA23FF33C35CDBB2002B39D0EA2383
:100C300003226068FF33E25400281DD02300002106
:100C4000012500222833197001315D70DA70DA60F5
:100C50001A615A611C338142F5D123000020002221
:100C60000933FF33187001305A70DA70DA601A6194
:100C70005A611C338842F5D1402201212368442067
:100C800099520021995219520C30195209490020E9
:100C9000995200222423E254EA230122FF33E25432
:100CA00070BDF42252008354FFF730FCBFE70120EF
:100CB000F6E7C04600BFFFFF5822016880208B5A2C
:100CC000000203438B5200207047C046F4235B00B0
:100CD000C25C012A11D00122C254002907D024236A
:100CE000C154F42300225B00C254002070479D3B96
:100CF0000168FF3B7F32CA52F3E70220F6E7C046A5
:100D0000F0B5C6467F264DB200B50E40002D00DA84
:100D1000B2E0CC00611A89000931FF314118CB7073
:100D2000F423ED0F0E704D70CA605B00C45C012CA3
:100D300000D135E10124C454CC780368012C00D1E2
:100D400038E1002C00D10CE1022C00D12AE1032C67
:100D500000D1FBE00C789D4DA446A6009E19348876
:100D6000A8462C4065469A4F2F433C4334808C7AEA
:100D7000002C28D101270C788E88E400A4464C78FA
:100D8000BE43002C00D1B0E050229C5A80221C1996
:100D9000D20064449446644426800A7892009A18EB
:100DA0001488650600D5E7E08A4D2C4020256C406C
:100DB000874D2C431480F42300225B00C254002092
:100DC00004BC9046F0BD50270A78834E92009A18D2
:100DD00014882640814C344314800A78DC5BD200AE
:100DE00012198024E400A4460126CC88D21862445B
:100DF000B44314800A78DC5BD2001219784CD21804
:100E0000A4460C896244B44314804A78002A39D13C
:100E10000A7894001C192688750405D54546354086
:100E2000704E354325800A7894001C1925886E067B
:100E300005D5664A15406C4A154325800A7892000C
:100E40009A181488614D2540674C2C4314800A7809
:100E5000664D92009A1814882540C024A4016C4065
:100E60005B4D2C4314800A785A4992009B181A88CB
:100E70000A4015431D809EE7F100891B8900283137
:100E800041184CE70A78454692009A1814882600C3
:100E90002E40650409D54546524C264316800A78F3
:100EA00092009A18148825402E00640608D54E4CEE
:100EB000264316800A78454C92009A1816882640D8
:100EC000484C444D264316800A7892009A1814889C
:100ED0002C403F4D2C4314800A78444992009B18C3
:100EE0001A880A4015431D8065E750255C5B1C1974
:100EF0006444A0463A4CA4464446644426800C7898
:100F00005D5BE40064193A4D5D1964193E2A3DD8D1
:100F10005508174200D00135AD0225800A789200AD
:100F20009A181488650408D5284D2C402D4D2C4363
:100F300014800A7892009A1814882C4B1C40C02305
:100F40009B016340224C1C43148034E70C78294EEB
:100F5000A4001C1925882E40C025ED0035432580AE
:100F6000F8E60C78234EA4001C1925882E40802515
:100F7000AD0035432580EDE6454625401A4C254316
:100F800015800A7892009A1814880DE75509D20640
:100F900001D1013DADB2184AAD0215432580BDE730
:100FA00002200DE70C78134EA4001C19258835404B
:100FB0002580CFE60C780F4EA4001C1925882E4002
:100FC0008025ED0035432580C4E6C0460F0F0000A4
:100FD0008080FFFFBF8FFFFF0F0E00008081FFFFAB
:100FE0000404000080C0FFFFC080FFFF8FBFFFFF31
:100FF000060400008F89FFFF0080FFFF7F22F0B50D
:101000004CB20A40002C5FDBCB00591AF423890054
:101010000931FF314118E40F0A704C705B00C25C6B
:10102000012A5ED00122C2548B7A0468002B14D1AD
:101030000B784E789A00A2181588002E53D06B06B4
:1010400000D58FE04C4B1D404C4B1D431580F423C5
:1010500000225B00C2540020F0BD80250B784F7841
:101060009E00A6193288ED011540002F4CD1002DAD
:1010700005D0434B1A40434B1A4332800B789A00F9
:10108000A21815886E0605D53D4B1D403E4B1D43ED
:1010900015800B789A00A2181388394D1D403A4BE1
:1010A0002B4313800B78394D9B00E3181A882A4094
:1010B000324D2A431A800B782F499B00E3181A8877
:1010C0000A4015431D80C2E7F423D100891A890024
:1010D00028314118E40F0A704C705B00C25C012A91
:1010E000A0D10220B8E76E0405D5254B1D40254B45
:1010F0001D4315800B789B00E3181A882349114083
:101100001E4A0A431A80A2E713001D4F3B40002DE0
:1011100008D01C4A134333803B000E78B600A61952
:1011200032881340520608D5174A134333800E788D
:10113000134AB600A61933881340124A0E4D1343C2
:1011400033800B789B00E3181A882A400B4D2A4302
:101150001A800B780D499B00E3181A880A40154342
:101160001D8074E7064B1D40074B1D4315800A7810
:101170009200A218158865E7BF8FFFFF8080FFFFF0
:101180000F0F000080C0FFFFC080FFFF8FBFFFFF79
:10119000F0B57F24D6464F4646462140CC00A246B5
:1011A000641AA4000419C0B5260027001936FF36BA
:1011B000326000222137FF37043633603A60173F30
:1011C0003A701534013F3970FF342468A3423ED988
:1011D0001B1B3360892553466D00AC465A1A92009A
:1011E000821894441700654609372D78FF37066842
:1011F0003B78002D2ED15022B75ADA006F4BD2190E
:10120000F318D2183E2C00D882E063099BB2E406A2
:1012100001D1013B9BB26A4C9B022343138053468E
:10122000591A890040180930FF3003789B00F318E1
:101230001988644A00201140C02292015140624A3C
:101240000A431A801CBC90469946A246F0BD326003
:101250001C00BFE70A32FF321578AC46002D36D1AC
:101260005022B25ADB009B18584AB2189B183E2CE9
:101270005ED91F272740BC466546620992B2170017
:10128000002D01D1571EBFB24D4DBF022F431F800D
:1012900053465F1ABF00C7193B000A33FF331B7860
:1012A0009846002B6FD150230937FF37F45A3B780B
:1012B000DB001B19414C34191B196446002C01D169
:1012C000013A92B294023E4A22431A8028E0012D4C
:1012D000ACD14F35A946755BDB00A8463B4D434476
:1012E000A8469B1943441C8013789846002B4AD18A
:1012F0004B46F25A3B78DB009B18304AB2189B18D9
:101300003E2C56D91F22224064099446A2B2D4E74B
:1013100063089BB2E40701D501339BB29B021380A3
:101320005346591A890040180930FF3003787DE789
:101330000127620892B22740944602D0551CADB2F4
:10134000AC466546AD021D800A255346FF35AC46C6
:101350005B1A9B00C3189C4465462D78A846002D57
:1013600011D15024345B0933A446FF331B78134C4E
:10137000DB00634434191B19002F01D0013292B2F3
:1013800092021A80CCE753464246591A8900401807
:101390000930FF300378012A00D047E74F32B25AB4
:1013A000DB00F3189B18054A944663441C800378BD
:1013B0003CE7674627406408A2B2DDE70604000068
:1013C0000080FFFF8FBFFFFF8080FFFF020400004F
:1013D000F0B57F244746CE462140CC00651AAD00CB
:1013E000451980B5AA632A00002601272932EB633C
:1013F0002E64013A577011706A6B934200D894E0E2
:101400009B1AEB638023DB009846631A9B00C71886
:101410003B00160432330568360C1B78013676081B
:10142000A844002B32D1BB6BBF8D92B29446474487
:10143000002E0CD0FA1A904676009E195A781F7822
:1014400012023A434746DA5302339E42F6D1502302
:10145000611A890040182830EA5A0378DB009B188B
:101460005A4AEB189046624643441A8003789B0020
:10147000EB181A88564900200A4030214A40554945
:101480000A431A800CBC90469946F0BD3B002833B5
:101490001B7899463B004F46BF007F5B29331B7882
:1014A0007F0645D5002B5ED14F465033EB5AFF00E7
:1014B000FF18494BEB18FF183E2A00D87DE053096E
:1014C0009BB2D20601D1013B9BB2444A9B0213431B
:1014D0003B80631A9B00C3181A8E631A9B00C318C3
:1014E0009B6B4244002E0CD0D21A944676009E1973
:1014F0005A781F7812023A436746DA530233B342EE
:10150000F6D1611A89004018030028302933197870
:1015100003789B00EB181A88002940D00129A9D133
:101520002F490A402F490A439FE7EE631A0069E7F3
:10153000002B26D14F465033EB5AFF00FF18234BA8
:10154000EB18FF183E2A2FD953099BB2D20601D1BE
:10155000013B9BB2214A9B0213433B80631A9B00D1
:10156000C318DA8DB9E7012BB3D14F33EB5A1A4FB9
:101570009C464B46DB006344BC465B1963441A80BF
:10158000A7E7012BEAD14F33EB5A104F9C464B464D
:10159000DB006344BC465B1963441A80DEE71049F4
:1015A0000A4011490A4360E753089BB2D20701D5AC
:1015B00001339BB29B023B80D0E753089BB2D2071A
:1015C00001D501339BB29B023B8082E702040000FD
:1015D000BF8FFFFF8080FFFF060400000080FFFF39
:1015E0000F0F000080C0FFFFC080FFFFF0B5454631
:1015F000DE4657464E464422E0B5036887B09A5A05
:10160000050012B2002A00DA6CE04422995A49051A
:101610004BD44422995A490403D5995AC6480140EB
:1016200099524422995A890403D5995AC3480140D2
:10163000995244241A5BD20427D44422995A0905AA
:1016400010D5995ABE480824014099524021585A51
:10165000204304245852585A204358529A5AD204CC
:1016600000D489E14422995A890532D44422995AF6
:10167000C90503D5995AB3480140995207B03CBCFB
:1016800090469946A246AB46F0BD40220420995AA6
:1016900081439952AC4928009952FEF7A7FF2B6865
:1016A000AA491A5B0A401A53C7E7995AA848014049
:1016B00099522800FEF776FFF4225200AB5C012B12
:1016C00000D1EAE14C2180202B6858520021A95416
:1016D0009FE7995A9F48014099522800FEF75AFF08
:1016E0002B68C3E7002204A9CA8044329146353AE8
:1016F00093464A469A5A04A992B28A8012B2002AA4
:1017000000DB82E704AA94885A46144046D104AA12
:101710009288D20600D4E1E01A8804A9CA80C98858
:10172000090500D57EE104A9C98809B20029E0DADB
:1017300089492C000A401A805022995AB832AA5C72
:101740000934D20052188549D2188C466244178851
:10175000FF34BA05920DA26100D082E20021280078
:10176000FEF7FEFE50222B687C499A5A59188A18B7
:10177000E1683E2900D90DE2480880B2C90701D5C9
:10178000013080B2800210801988754A1140C02251
:1017900092015140734A0A431A80AAE7A600981999
:1017A000018804AAD180D28812B2002A4FDB80219E
:1017B00004AAD28811429CD09E1932886A490A40F4
:1017C00032806A4A9E18E200111B890069180800DD
:1017D00032300078002800D1D3E0080028300078AB
:1017E000C7008000C05A400600D458E15020185A63
:1017F0003018C05B8005800D086400D059E2111BD1
:101800008900691828310978594F890059180888C2
:1018100007405848384308805021141BA4002C1955
:10182000585A210028310B78DB001B189A5BA36BF8
:1018300092059C46920D2264E36B6244A263097890
:101840002800002B74D1FEF799FE2B6851E7424A1D
:101850001140E2000180111B890069180800133053
:10186000FF300078002800D0B6E050301F5A080042
:101870000930FF300078C000C019384FC018BC468E
:101880006044008880468005800D844667460020BD
:10189000002F00D0B1E1171BBF00EF193A00213231
:1018A000FF3213681B1813603B001933FF331A68AB
:1018B00012181A6004331B68002B00D11AE139009A
:1018C0001537FF3709313F68FF310978874200D863
:1018D0008EE12800FEF744FE2B6868E71A8822494B
:1018E00028000A401A805022995A283AAA5CD2004D
:1018F0009B181E4A5B189446AA6B634494461B8847
:1019000000219B059B0D2B646344AB63FEF736FE01
:101910002422AB5C002B0DD0E96B2B68002900D092
:10192000E7E68024A85C2043343C1853A954E0E641
:10193000FFF74EFD2B68DCE6FFBFFFFFFFDFFFFF79
:10194000FFF7FFFFFFFEFFFF00BDFFFFFFEFFFFF01
:10195000FFFBFFFFFFFDFFFF8F0F000006040000ED
:101960008FBFFFFF8080FFFF0F8FFFFF020400008B
:101970000F0F000080C0FFFF2800FEF725FE2B6838
:1019800070E650301F5A080028300078C000C01997
:10199000805B8005800D086400D13DE78F6B898DE9
:1019A000013088468021C9008C46414640084000ED
:1019B00061448446C918BC44C91B604690469C4695
:1019C0000B0079783A7809021143F95202378742BD
:1019D000F7D1634642461FE708000930FF30007820
:1019E0008700B846984447463F88C000BA467F04FF
:1019F00000D483E05027DF5BDF193818BB4FBC46AB
:101A00006044008887058446BF0D0020002F00D069
:101A1000CBE05146B64B19400B00B6490B4341464B
:101A20000B8038E75022995AB832AA5C2F00D200B6
:101A30005218B149D2188C4662441288063996056C
:101A400094462A0088460932B60DFF329661928884
:101A5000ED374244FF377608D318002E0ED03900F8
:101A6000340018000288013C0A70120A4A700230E1
:101A70000231002CF6D176009B19BF196246D207BD
:101A800001D51B883B702A689C49138828000B40AD
:101A90001380FEF75BFD2B682BE62B68B9E5502021
:101AA000185A1818C019944FBC4660440088800525
:101AB000800D086400D1A2E68F6B098E0130884644
:101AC0008021C9008C46414640084000614484465C
:101AD000C918BC44C91B604690469C460B007978E7
:101AE0003A7809021143F95202378742F7D1634627
:101AF000424684E60937FF373978EAE65027DF5B4C
:101B0000DF1938187C4FBC4660440088870584463E
:101B1000BF0D0020002F00D17BE708001131FF31FD
:101B20000988193001918021C9008A46FF30019946
:101B3000006851448046CB1878080290019314D075
:101B4000039041461800401A92460200039B505AE7
:101B5000013B0870000A48700231002BF7D1524651
:101B6000029B5900019B88445B1861463800C907F5
:101B700002D541461B880B702968131B88469B00C1
:101B8000EB180933FF331B789B00984443461B88AE
:101B90009A463EE7480980B2C90601D1013880B2B1
:101BA0005749800208431080EEE508000F31FF31ED
:101BB0000988193001918021C9008A46FF300199B6
:101BC000006851448046CB18780802900193CCD02D
:101BD000039041461800401A92460200039B505A57
:101BE000013B0870000A48700231002BF7D1B6E7BC
:101BF0002800FFF7CDFA2B68D9E508000D31FF3139
:101C00000988193002918021C900FF308A4607688F
:101C10006046029940085144CB180197039019007F
:101C2000002815D039000700581A9A460300585A60
:101C3000013F0870000A48700231002FF7D1534667
:101C4000039948001918019B9A4682445346019310
:101C500043466046DB0700D41DE60B8801990B70F4
:101C600019E6216952088C468021C9008A469046AF
:101C7000A2885244D3184246002A0FD061464646F5
:101C800018000288013E0A70120A4A7002300231BE
:101C9000002EF6D1424652009B189444FA0702D512
:101CA00062461B881370A2692369944663442361CA
:101CB00054E58F6BC98D013088468021C9008C4660
:101CC00041464008400061448446C918BC44C91BD1
:101CD000604690469C460B0079783A780902114399
:101CE000F95202378742F7D101E7C04602040000EB
:101CF0000F0F0000C080FFFF060400008F0F0000E0
:101D00000080FFFFF42330B55B00C25C012A4AD09B
:101D10000125C5546A3BFF3B4AB20B400468002AC8
:101D200029DBCA00511A890041180A000B32FF3220
:101D30001570023A137000220A31FF310A70002B2D
:101D40000DD12288194B1A40194B5A40194B134395
:101D50002380F42300225B00C254002030BD9B008E
:101D6000E3181988144A1140802252015140114A47
:101D70000A431A80EDE7DA00D21A920082181100A5
:101D80002A310D70293202390B701570002BD8D012
:101D90009B00E4182288094B1A4010235A40054B37
:101DA0001A432280D5E70220D8E7C046BFBFFFFF15
:101DB000101000008080FFFF8FBFFFFFBF8FFFFF6D
:101DC00030B57F244AB20C40002A49DBCB00591AB7
:101DD00089000931FF3141180023D20F8B70E9339C
:101DE0000C704A70FF33C25C012A3FD00122C254FA
:101DF0004B780468002B1CD10B789B00E3181A88E1
:101E0000550408D51A4D2A401A4D2A431A800B78DA
:101E10009B00E3181A8818490A40C02189015140E3
:101E2000164A0A431A80F42300225B00C2540020A1
:101E300030BD0B789B00E3181A88550608D50C4D69
:101E40002A400F4D2A431A800B789B00E3181A880A
:101E50000C490A4030214A4008490A431A80E2E707
:101E6000E100091B890028314118B5E70220DFE7AE
:101E70000F0F000080C0FFFF8FBFFFFF8080FFFFBC
:101E8000C080FFFFBF8FFFFF10B50C0610D57F2469
:101E90002140CC00611A89002831401899B2002AEB
:101EA0000FD001221B0C8272C1800381002010BD63
:101EB000CC00611A89000931FF31401899B2002A1B
:101EC000EFD182728180F1E70268702030B507247B
:101ED0009368834348680343A3430C682343936098
:101EE000502834D022D960280DD070280AD19368A8
:101EF00020488C681840CB680969234309020B43CA
:101F00000343936030BD1024106A8B68A0430969B5
:101F100010629469184D09032C402143A024106AD3
:101F20001B01A043034391611362EBE74028E9D111
:101F30000120146A136A834313629369EF30834369
:101F400018000B691B01034393611462DAE7012552
:101F500088680B69116A146A1B01AC4314629469A6
:101F6000EF35AC4323430A24A1430143936111623B
:101F7000C8E7C046FF00FFFFFF0FFFFF3D2202231F
:101F8000012110B50468835423680B4323608154F6
:101F9000002010BDF8B53C25435D0400012B14D092
:101FA000022301273D2647558355FFF78DFF40212A
:101FB00023680020DA688A43DA60DA6804490A4054
:101FC000DA600023A7556355F8BD0220FCE7C04640
:101FD000FFBFFFFF70B51B4E03684D698C680A6830
:101FE000B04229D0184EB04215D0184EB04216D08B
:101FF000174EB04202D0174EB04214D1164E3340A5
:10200000CE6833438026B3432B430360C4628262AD
:102010000B6903630DE07026B3434E6833430E4EE5
:10202000C96833400B4380218B432B430360C46258
:1020300082620123436170BD7026B3434E6833430F
:10204000DCE7C046002C01400004004000200040B6
:102050000044014000480140FFFCFFFF70B5041E32
:1020600014D03D23C35CDBB2002B0AD002233D25F4
:1020700020686355211DFFF7ADFF01230020635544
:1020800070BD3C228354FEF7EBFCEFE70120F7E73D
:1020900070B53C24035D012B19D03D250223702629
:1020A000435503685A68B2435A605A680E684968D3
:1020B000324380265A609A68B2439A609A680A430B
:1020C0009A600123435500230355002070BD022070
:1020D000FCE7C04670B504000120002C14D069262E
:1020E00024230025A35523681A6882431A60200020
:1020F0001D605D609D60FEF799FC6A230020E56627
:10210000A555E554023BE55470BDC04603006A2066
:1021100070B51C5C6838202C2DD100292CD00138DA
:10212000002A28D080259C686D01AC4226D0682505
:102130005E5D012E4DD05855596558215A520231D5
:102140005A52002C2CD11A69002A3ED15C22FF2160
:10215000995200226A212220DA66585402395A54D0
:102160001B6867399A6800200A439A6090221968B0
:1021700052000A431A6070BD0120FCE71C69002C64
:1021800019D10142F7D16820185C012821D0596586
:1021900058215A5202315A525C220F499952D8E7BB
:1021A000802252059442D4D11A69002A0DD05C22B3
:1021B0003F219952CDE76820185C012809D0596564
:1021C00058215A5202315A52C0E75C227F2199525B
:1021D000BFE70220CFE7C046FF01000003681249B5
:1021E0001A6810B50A401A609A682331FF318A4391
:1021F0009A604022996804000A420AD09968406EA9
:1022000091439960002804D00023436301F008F84B
:1022100023685A220021A1524B3A1A626A231132D2
:102220000020E25410BDC046DFFEFFFF7047C046ED
:1022300000235A2210B5406A8352083A8352FEF7AF
:10224000CDFC10BD6A226923C35C805C18437047D3
:1022500070B504000568C169836800692A68034392
:102260006069034344480B43024013432B606B688F
:10227000424A206A1340E26813436B60A369AA686C
:1022800003433F4802401343AB603E4B9D4219D08D
:102290003D4B9D4205D080231B0299422AD001204C
:1022A00070BD80231B02994234D000F055FD616857
:1022B00024684B081818FDF72FFF0004000CE0609D
:1022C0000020EDE7314B1A6B03231340304AD35CF7
:1022D00080221202914211D0022B34D047D9042B14
:1022E0002BD0082BDBD1802361681B0248082DE02E
:1022F000002B0FD000230120EB60D1E7022B2ED062
:10230000F6D9042B1CD0082BF4D1802361685B0222
:10231000480827E000F020FD636840005B08C01813
:102320006168FDF7F9FE25680F2203075B0F9043F4
:1023300003439BB20020EB60B2E700F037FCB6E746
:1023400000F034FCE8E76168124B48089C466044A2
:10235000FDF7E2FE0004000CE8600020A0E76168E1
:102360000D4B48089C466044FDF7D6FEDCE7002B89
:1023700000D094E799E7C046F369FFEFFFCFFFFF76
:10238000FFF4FFFF0038014000440040001002400D
:102390003476000800127A000024F400436A30B555
:1023A000DA0706D50168284C4A682240846A22432D
:1023B0004A609A0706D50168244C4A682240C46ADC
:1023C00022434A605A0706D50168214C4A682240D8
:1023D000046B22434A601A0706D501681D4C4A68FF
:1023E0002240446B22434A60DA0606D501681A4C43
:1023F0008A682240846B22438A609A0606D5016867
:10240000164C8A682240C46B22438A605A060AD559
:102410000168134D4A68046C2A4022434A608022B6
:102420005203944209D01B0606D502680D49536831
:102430000B40816C0B43536030BD4A680A4C22400C
:10244000446C22434A60EEE7FFFFFDFFFFFFFEFF03
:10245000FFFFFBFFFF7FFFFFFFEFFFFFFFDFFFFF40
:10246000FFFFEFFFFFFFF7FFFFFF9FFF10B5041E09
:1024700031D06923C35CDBB2002B27D0692324222F
:102480000121E2542268200013688B431360FFF798
:10249000DFFE01281FD0636A002B1ED1236811497B
:1024A0005A6800200A4008215A609A688A439A6054
:1024B0001A6807390A431A60202200236831E3664C
:1024C0006254013162544832A35410BD68228354CF
:1024D000FEF772FAD2E70120F7E72000FFF75EFF70
:1024E000DCE7C046FFF7FFFF692210B5825C0300FE
:1024F0000220212A14D13132995A1A68002910D0A9
:1025000080209C68D96C4001844214D0481CD86457
:1025100009781185522100205A5A013A92B25A5232
:1025200010BD136880318B431360136840390B432F
:1025300013600020F4E718690028E7D10888023109
:10254000C005C00D1085D964E4E7C0466A2370B5A4
:10255000C25C0368222A17D180249B8C85683A329A
:10256000825A9BB2416D6401A54213D04C1C1340AA
:1025700044650B705A22835A0024013B9BB283525C
:10258000002B0FD0200070BD08219A6902240A4355
:102590009A61F7E70469002CE8D113400B800231FF
:1025A0004165E7E7036807491A680A401A609A68B4
:1025B0002331FF318A439A606A232022C254FEF7F6
:1025C00003FBDFE7DFFEFFFF036870B5DA69040095
:1025D000196810070FD1202010425AD19868802026
:1025E000104202D0084200D07CE04020104201D0CE
:1025F000084267D170BD0125986828404FD0012559
:10260000154205D0CE0503D51D62E66E3543E5665D
:10261000022515424BD0002806D004261D62E56E27
:102620003543E566164246D1150703D58D0653D4CA
:10263000002851D1E06E0028DCD02020104201D0CB
:10264000084257D1E26E120703D440259A6815401C
:1026500055D01A682C490A401A609A682331FF3114
:102660008A439A606A221F31A1549A68203111422C
:102670003CD09A68606E8A439A60002836D0234B1B
:10268000436300F0E3FD0028B4D0606E436B9847CD
:10269000B0E70842A2D02000FFF758FFAAE7902534
:1026A0006D0029429BD001251542B1D0AAE75507FC
:1026B000BAD50028B8D0042502261D62E56E354340
:1026C000E566B1E71A6882431A6069232022200078
:1026D000E254FFF7ABFD8DE708251D62E06E28434D
:1026E000E066A7E72000FFF7FFFE83E72000FEF784
:1026F00075FA7FE72000FFF729FF2368A2E7200093
:10270000FEF76CFAE56675E7DFFEFFFF3122000891
:10271000F0B5CE46474680B5036883B00400DA07BB
:102720002FD50C21C44842680A40042A00D1DFE0BA
:1027300042681140082900D1D1E06368012B00D123
:1027400010E1002B00D143E1052B00D110E2BA4B80
:10275000BA491A680A401A601A68B9490A401A60E8
:1027600000F0CCFB80250700B34EAD0205E000F081
:10277000C5FBC01B642800D928E133682B42F6D082
:1027800023689A0729D50C22AB494868024200D138
:10279000C2E048680240082A00D1B4E0E368A64DD0
:1027A000002B00D154E101222B68022613432B6039
:1027B00000F0A4FB070005E000F0A0FBC01B02280E
:1027C00000D903E12B681E42F6D0F8212A6823695C
:1027D0008A43DB0013432B6023681A072BD45A0764
:1027E00043D58022944B5205D9690025114207D167
:1027F000D96901351143D961DB691A400192019B06
:102800008026904F76003B68334200D1B1E0A36848
:10281000012B00D1BEE0002B00D1F2E0052B00D14E
:1028200047E10121844B1A6A8A431A621A6A03310A
:102830008A431A62B2E0E3697F4D002B00D17EE04B
:1028400001226B6A022613436B6200F057FB0700FC
:1028500005E000F053FBC01B022800D9B6E06B6A0C
:102860001E42F6D023685A07BBD4DB0612D5636933
:10287000012B00D15EE1053300D0FCE00421F820FB
:102880006D4A536B8B435363516BA3698143DB00E8
:102890000B435363236A002B1BD00C22664D6968DF
:1028A0000A40082A2DD0022B00D10CE12B68664A81
:1028B000802413402B6000F021FBA404060005E0F7
:1028C00000F01CFB801B022800D97FE02B6823420C
:1028D000F6D1002003B00CBC90469946F0BDC02153
:1028E000426849020A40802149028A4200D024E716
:1028F000514A1268920300D443E76268002A00D06C
:102900003FE70120E6E74A68C02149020A408021EA
:1029100009028A4200D041E7474A1268920702D56D
:10292000E268012AEDD1F825434822690168D20006
:10293000A9430A4302601A0700D450E77BE701224B
:102940006B6A022693436B6200F0D8FA070004E03A
:1029500000F0D4FAC01B022838D86B6A1E42F7D1A7
:10296000236880E78023344A5B0211680B431360BD
:10297000F6E63B6833433B6000F0C0FA804605E072
:1029800000F0BCFA4346C01A64281FD83B683342A3
:10299000F6D03CE728490A6A13430B6200F0AEFA0E
:1029A0002A4B8146244F0226984605E000F0A6FAFD
:1029B0004B46C01A404509D83B6A1E42F6D0012D4D
:1029C00070D02368DB0600D464E750E7032081E77A
:1029D000194D1A4A2B68802613402B602B68184A21
:1029E000B60213402B6000F089FA070004E000F003
:1029F00085FAC01B6428E9D82B683342F7D12368D5
:102A0000BFE601220C4E0227336A93433362336AD6
:102A100003329343336200F071FA0C4B81469846BF
:102A200005E000F06BFA4B46C01A4045CED8336A39
:102A30001F42F6D1C3E7C04600100240FFFFFEFF71
:102A4000FFFFFBFF00700040FFFFFFFE8813000048
:102A500001222B68022693432B6000F04FFA0700F7
:102A600004E000F04BFAC01B0228AFD82B681E42CE
:102A7000F7D12368B1E60422434D02266B6B134362
:102A80006B636B6B033A93436B6300F037FA070099
:102A900004E000F033FAC01B022897D86B6B1E428B
:102AA000F7D1F7E6384A3949D3690B40D361236837
:102AB00088E70421344B1A6A0A431A621A6A0339F6
:102AC0000A431A626AE72B68314A802613402B605A
:102AD00000F014FAB604070005E000F00FFAC01B7E
:102AE000022800D972E72B683342F6D10F22EB6A35
:102AF0009343E26A1343EB62616AA36A6A680B4319
:102B0000244980240A4013436B6080232A685B04B5
:102B100013432B6000F0F2F91B4D0600A40405E0FE
:102B200000F0ECF9801B022800D94FE72B68234204
:102B3000F6D0CEE60421144D02266A6B0A436A637E
:102B40006A6B13436B6300F0D9F9070005E000F0EE
:102B5000D5F9C01B022800D938E76B6B1E42F6D0AE
:102B6000F8216A6BA3698A43DB0013436B6391E628
:102B70008022054BD20219680A431A608022196824
:102B800052020A431A60EBE500100240FFFFFFEF1C
:102B9000FFFFFFFEFF7FC2FF8023034A1B03116874
:102BA0000B4313607047C0460010024070B588B0F8
:102BB0006946114B0A00180070C870C200681033D3
:102BC000106004AA100070CB70C01B680B4C03602F
:102BD0000C2063681840082802D0094808B070BD6E
:102BE000E06A0F249B0C23400440CD5C0448115D37
:102BF000FDF792FA6843F1E784750008001002407F
:102C000000127A00F8B5CE46474601230C00494928
:102C100080B50A6805001A40A2420CD20A689A439D
:102C200022430A600A681340A34204D001200CBC6E
:102C300090469946F8BD2B689A0706D5F0203E4984
:102C40004A688243A86802434A60DB0724D53A4BAE
:102C50006A681B68012A48D0022A43D09B07E5D541
:102C60000321354E73688B431343736000F046F9BC
:102C70006B680700012B3DD0022B4BD00C239846EC
:102C80002E4B994604E000F039F9C01B48452FD877
:102C9000424673681A42F6D10121264A13680B4056
:102CA000A34205D913688B43136013681942BDD141
:102CB0002B685B0706D5204A214953680B40E96819
:102CC0000B435360FFF772FF1B4B1E4A5B681B06EA
:102CD0001B0FD35CD8401C4B1860002000F0E4F8B8
:102CE0000020A4E79B01BBD4A0E79B03B8D49DE7D9
:102CF00003209CE70B339846104B994604E000F004
:102D0000FDF8C01B4845F3D8424673681340042BB6
:102D1000F5D1C1E70A339846084B994604E000F024
:102D2000EDF8C01B4845E3D8424673681340082BB2
:102D3000F5D1B1E7002002400010024088130000E6
:102D4000FFF8FFFF3876000880000020014B18686C
:102D50007047C04680000020044B054A5B685B0555
:102D60005B0FD35C034A1068D840704700100240E4
:102D70004876000880000020F0B5CE46474680B572
:102D8000036883B00400DA0336D58022404B520535
:102D9000D9690027114207D1D96901371143D96197
:102DA000DB691A400192019B80263A4D76002B6820
:102DB000334242D0C021364D89002A6A60680A40F9
:102DC00011D0014091420ED08022296A2E6A52020F
:102DD00032432A622A6A304B304E0B4032402A621C
:102DE0002B62CB0742D42A4A2B49136A0B40034378
:102DF0001362012F32D02368DA0706D50320244955
:102E00000A6B8243A06802430A639A0606D5102023
:102E10001F490A6B8243E06802430A6300209B0358
:102E200006D580211A4A136B8B4321690B43136328
:102E300003B00CBC90469946F0BD2B6833432B6021
:102E400000F05CF8804605E000F058F84346C01AF0
:102E5000642809D82B683342F6D0ABE7D369104910
:102E60000B40D3612368C7E70320E1E700F046F891
:102E70000C4B80460226994605E000F03FF8434699
:102E8000C01A4845F0D82B6A1E42F6D06068AAE7FF
:102E90000010024000700040FFFCFFFFFFFFFEFF3C
:102EA000FFFFFFEF8813000010B50400FFF74EFF8F
:102EB000FA218900FDF730F900F034FA01200022F0
:102EC0002100404200F0E6F9002010BD1021064A22
:102ED00010B5136800200B431360FFF7E5FFFDF703
:102EE0004DFD002010BDC04600200240024A13687C
:102EF000013313607047C046D80F0020014B18689B
:102F00007047C046D80F0020F0B54E46DE46574603
:102F10004546E0B58946096885B0002900D17EE0C4
:102F20006C4B00229B466C4B8A46984601255446C2
:102F300095402C4000946ED04B46596810230F00EA
:102F40009F430197022F00D170E0036856009C4612
:102F50000323B3406446DB431C40270003240C409A
:102F6000B440A4463C0067463C43019F0460013FD7
:102F7000012F00D877E0C5682B404D46AD68B540BD
:102F80002B43C36080235B05194244D05B46012478
:102F90005D4603260F279B6916402343AB61AB694F
:102FA000B60023404D4CB740A44690240393039BA6
:102FB00093089B0063449D68E405BD43A0420ED086
:102FC000474FB84200D17CE0464FB84200D174E090
:102FD000454FB84200D178E00527B7403D439D609A
:102FE0004346009C1B68E543CC034ED444462B402B
:102FF000236063688C034FD444462B406360A3680E
:10300000CC0250D444462B40A360E368890251D4DB
:103010002B404146CB6053460132D34086D105B0A8
:103020003CBC90469946A246AB46F0BD07260F240D
:103030001640B600B440D3089B00C3181F6AA743CC
:103040004C462469B44026003E431E6203235600CA
:10305000B340DB4307681F40BC4603270F40B7401F
:1030600064462743076087684C461F40BC46E768B4
:103070006446B7402743012487604768AF430D0982
:10308000254095403D43456075E7009C23434446F9
:10309000236063688C03AFD5009C23434446636080
:1030A000A368CC02AED5009C23434446A360E368EA
:1030B0008902ADD500990B43ABE70227B7403D43EA
:1030C0008DE70124B440254389E70324B440254318
:1030D00085E7C046001002400004014000000140A6
:1030E0000004004800080048000C0048F0B5DE4627
:1030F00057464E464546E0B583B0002967D00122C9
:103100009446023290460C320023914623E0394F18
:10311000B84263D0384FB84264D0384FB84265D017
:103120000527A7403C00A64211D15646ED439468BE
:10313000B4439460324C22682A40226062682A407C
:103140006260A2682A40A260E2681540E5600A0059
:103150000133DA403BD066460D009E403540F6D044
:1031600047465C00A740FC43026822400260DA0840
:103170009200871801973F6ABA4607271F40BF0091
:10318000BB464F465A469740BB4657465A4697431A
:103190003A00019F3A6282684F462240826042684C
:1031A000B2434260C2681440C460164C9A08A246FA
:1031B00044461C40A400A740920052449668BA4678
:1031C0003E409027FF05B842A1D10024ABE703B0F1
:1031D0003CBC90469946A246AB46F0BD6746A74028
:1031E0003C00A0E70227A7403C009CE74746A740D9
:1031F0003C0098E70004004800080048000C004824
:10320000000401400000014000690840411E88415F
:10321000C0B27047002A01D1816270478161FCE72A
:103220000E21036810B51A68046C8A431A600122E3
:103230001968914319601100A140C36B59602123A3
:10324000C2540022013BC254002010BD212370B59E
:10325000C25C022A03D01D3B8363012070BD0E2493
:103260000268056C1168A1431160012114688C4348
:1032700014600C00AC40C26B5460C1540022202387
:10328000C254436B002B02D098470020E6E7002091
:10329000E4E7C046FF22032330B51400C5B22B403B
:1032A000DB009C4089010A40E4439A4000280BDB84
:1032B0000C4B80089C46C023800060449B00C15892
:1032C0000C402243C25030BD0F2307492B408C468F
:1032D000083B9B089B006344D9690C402243DA6198
:1032E000F1E7C04600E100E000ED00E0002805DB6A
:1032F0001F2318401E3B8340014A13607047C0469D
:1033000000E100E000280ADB1F2318401E3B834039
:10331000802203498B50BFF34F8FBFF36F8F7047ED
:1033200000E100E00A4A431E012093420ED8C0216A
:10333000084A09485360036A09061B021B0A0B432B
:103340000362002300209360073313607047C04678
:10335000FFFFFF0010E000E000ED00E00121134B53
:1033600013481A680A431A605A6802405A601A6879
:10337000104802401A601A680F4802401A605A68E2
:103380000E4802400F205A60DA6A8243DA621A6BF2
:103390000B48024080201A631A6B02431A635A6B6F
:1033A0008A435A6300229A607047C0460010024068
:1033B0000CB8FF08FFFFF6FEFFFFFBFFFFFFC0FF9B
:1033C0006CFEFFFF10B5002814D085239B00C45865
:1033D000002C01D00024C450002902D084239B007B
:1033E000C150FE2301215B00C1540270FDF712F9A8
:1033F000002010BD0220FCE7002904D085239B009B
:10340000C150002070470220FCE7C04610B5FDF710
:103410003BF9002010BDC04685239B00C35810B562
:10342000002B04D01B689847002800D110BD022053
:10343000FCE7C046852310B59B00C3585B689847DE
:10344000002010BD82239B0070B5C5180400280021
:1034500000F00AFBFA2301225B00E250124BE25A11
:10346000163BE2501033E15CEA3BFF3B0B40012B83
:1034700014D0002B0DD0022B06D07F2320009943BF
:10348000FDF734F9002070BD2900200000F07AFA21
:10349000F8E72900200000F0EFF8F3E7290020000A
:1034A00000F04EFAEEE7C0460E02000010B5130021
:1034B0000400002906D1FA2252008258032A0ED0B5
:1034C000002010BD85239B00C3589B69002BF7D0BB
:1034D000FE225200825C032AF2D19847F0E70530C1
:1034E000FF308168C268914210D885239B00E35861
:1034F0001B69002B06D0FE225200A25C032A01D1D8
:1035000020009847200000F023FBD9E7891A81604A
:103510008A4205D892B21900200000F011FBCFE7D3
:103520000A00F7E7F8B50400130000290BD1FA22CE
:1035300052008258022A16D080239B00E25C012AA6
:103540000ED00020F8BD85239B00C3585B69002B7B
:10355000F7D0FE225200825C032AF2D19847F0E7AE
:103560000022E254EDE7C269056AAA421ED88669C4
:1035700029003000FCF756FE0F1E01D1B54222D9BA
:1035800085239B00E358DB68002B06D0FE22520007
:10359000A25C032A01D120009847200000F0E4FA41
:1035A00080239B00E25C012ACBD1D9E7521BC26188
:1035B000190092B200F0ACFA002300220021200092
:1035C000FDF7ECF8B8E7FC256D0063599E42D7D2B1
:1035D00000220021200000F09BFA6751ECE7C04672
:1035E00070B54023002200210400FDF75DF8882318
:1035F00040255B00E5500022D03B80212000FDF7F4
:1036000053F8FE2301225B002562E2541C33E35889
:10361000002B06D085239B00E35821795B682000AE
:103620009847002070BDC046017400207047C04616
:10363000FE23FE225B00C15CFF328154FA3AFF3A5E
:10364000C25400207047C046FE23FF33C25C013BDA
:10365000C25400207047C046FE2310B55B00C35C17
:10366000032B01D0002010BD85239B00C358DB69CC
:10367000002BF7D09847F5E770B54B7882B004007F
:103680000D00092B0AD8AA4A9B00D3589F468B8865
:10369000002B03D1CB88002B00D176E080212000C5
:1036A000FDF724F800212000FDF720F8002002B0EB
:1036B00070BD8B789F4D2B70012BEFD8FE214900F8
:1036C000425C022A79D0032AE8D1002B00D11CE108
:1036D0004168012933D0C9B2FFF7ACFE2978200038
:1036E0006160FFF799FE022829D1D7E7FE235B002E
:1036F000C35C023B012BD1D80123C36081239B0013
:10370000C358002B01D00323C360210002220C31D7
:10371000200000F0EFF9C9E7FE235B00C35C023B29
:10372000012BBBD84B88012BC0D1812300229B00E9
:10373000C2501033E35829009B68200098472000AE
:1037400000F006FAB2E74B88012BAFD1812292003C
:10375000835085239B00EDE749880B0A072B9DD8F2
:10376000754A9B00D3589F46CB88012B00D095E724
:10377000FC33FF33C35C022B2BD0032B00D08DE72F
:10378000011D012200F0B6F990E7FE267600835D68
:10379000032B00D182E77F254B881D40FF235B0070
:1037A000C5542900FCF7DAFF200000F0D1F9002D04
:1037B00000D19FE00223A35578E7002BBFD001235F
:1037C0004360023343540121FFF726FE0228B6D19D
:1037D00064E70023010083600831012200F08AF9C8
:1037E00064E7037C002B00D058E76B469E1D8523C1
:1037F0009B00C35830001B6B9847072343703388E6
:10380000002B00D152E7EA88002A00D14EE7191CAC
:10381000934200D9111C8AB231800100200000F0CF
:1038200069F943E7037C002B00D037E76B469E1D08
:1038300085239B00C35830005B6B9847DFE7C9B214
:1038400005296CD83D4B89005B589F468523027C37
:103850009B00C358002A50D16A46961D9B6A3000CF
:10386000984702234370CAE76B469E1D84239B0042
:10387000E35831001B68007C9847C0E76B469E1DEB
:1038800084239B00E35831009B68007C9847B6E78F
:103890006B469E1D84239B00E35831005B68007CCF
:1038A0009847ACE76B469E1D84239B00E35831008C
:1038B0009B69007C9847A2E76B469E1D84239B0072
:1038C000E35831001B69007C984798E76B469E1DC2
:1038D00084239B00E3583100DB68007C98478EE727
:1038E0006B469E1D84239B00E35831005B69007C7E
:1038F000984784E70123A355D8E66A46961DDB6AFC
:10390000300098470223437079E702224254436013
:103910000021FFF78FFD200000F01AF9C6E66B4684
:103920009E1D85239B00C35832009B6B984766E71A
:1039300050760008F001002078760008987600089C
:10394000FE2370B55B00C35C04000D00032B0CD19B
:103950000B79012B09D885239B00C3589B68984796
:10396000EB88002B0AD0002070BD80212000FCF7DE
:10397000BDFE00212000FCF7B9FEF4E7200000F0B6
:10398000E7F8F0E760230A7870B5134005000C00F3
:10399000202B06D1F533FF33C3589B68984700208E
:1039A00070BD8A886378D1B2012B35D0002B17D037
:1039B000032BF4D1FA33FF33C35C022B31D0032B3A
:1039C00040D16388002B03D14B0601D0FCF78EFE5B
:1039D00085239B00EB5821009B68280098472DE029
:1039E000FE235B00C35C022B1BD0032B2AD17F2458
:1039F0000C402401130630D40534FF340419280088
:103A0000FCF794FE002826D0012323600222210027
:103A1000280000F06FF8C2E7FE235B00C35C022BB6
:103A200005D14B06BBD02800FCF760FEB7E7032B9F
:103A300008D16388002BB2D14B0611D1280000F0C9
:103A400087F8ACE780212800FCF750FE0021280011
:103A5000FCF74CFEA3E72060D8E714340419CEE746
:103A6000FCF754FEB4E7C0460B7803704B78437004
:103A7000CA788B7812029B1843804A790B7912021C
:103A80009B188380CA798B7912029B18C380704778
:103A900010B504008021FCF729FE00212000FCF76E
:103AA00025FE10BD30B5002820D00378002B1ED095
:103AB00004000023013425780133DBB2002DF9D155
:103AC0005B000233DCB2138003230C704B7004786C
:103AD000002C0BD00025013B5A1CD2B2CC54013033
:103AE0008D5404780233DBB2002CF5D130BD0224B2
:103AF0000223E8E71300FA2210B502245200845092
:103B00000A008361C3610021FCF738FE002010BD6C
:103B100010B513000A000021FCF730FE002010BD94
:103B20001300FA2210B5032452008450EC3A83505B
:103B3000043283500A000021FCF730FE002010BD43
:103B400010B513000A000021FCF728FE002010BD6C
:103B5000FA23042210B55B00C2500021002300228A
:103B6000FCF70CFE002010BDFA23052210B55B0007
:103B7000C250002100230022FCF710FE002010BDDF
:103B80002923038000487047C000002086230021BD
:103B90009B00C258C93BFF3B0020D1547047C04630
:103BA00086239B0010B5C458E36C012B09D18723F1
:103BB0009B00C3582278DB68617810009847002387
:103BC000E364002010BDC0460A230380004870470C
:103BD000F8000020862370B504009B00C55804330C
:103BE000E35869782878DB6898472A004023012148
:103BF0002000FCF7D3FD002070BDC04686239B004B
:103C000010B50A78C458B93BFF3B13400AD0202BAB
:103C100006D14B780B2B38D82B4A9B00D3589F46A4
:103C2000002010BD4B780A2B33D00B2B0AD0062B6B
:103C3000F6D14B881B0A222B3AD0212B30D0002101
:103C4000002229E08B780020A364EAE78B7800202B
:103C50002364E6E74B8800201B0A6364E1E7012345
:103C6000E3648A792100FFF75BFF0020D9E7210098
:103C700001224031FFF73EFF0020D2E72100012260
:103C80004431FFF737FF0020CBE7FFF701FF0220A9
:103C9000C7E7210001224831FFF72CFF0020C0E7D1
:103CA000CB881A1C092B00D9092292B20749F3E7E5
:103CB000CB881A1C202B00D9202287239B00C358B5
:103CC00092B21968E8E7C046B0760008EC00002020
:103CD00070B5040086258121FCF7F8FCAD000121B8
:103CE0002000FCF7F3FC6359002B09D087239B00CD
:103CF000E3589B6898476059FCF764FD00236351C3
:103D0000002070BD70B50400402303228121FCF720
:103D1000CBFC4023032201212000FCF7C5FC5420EA
:103D2000FCF74CFD86239B00051EE05010D00022BE
:103D3000C93BFF3BC254CD33FF33E3585B68984720
:103D400040232A0001212000FCF728FD002070BD3F
:103D50000120FCE770B5FE246400045D032C01D053
:103D6000002070BD86239B00C458C93BFF3BE55C27
:103D7000002DF5D10135E55413000A008121FCF72F
:103D8000FDFCEDE7002904D087239B00C1500020F3
:103D900070470220FCE7C046F0B54E46DE46574667
:103DA0004546E0B5027893B01300803BDBB20400D7
:103DB0000E001F2B0DD94B1C01930A70431C02935C
:103DC00003781E2B01D900F0F0FBDA4A9B00D35890
:103DD0009F4601F00FFC0400200013B03CBC90464D
:103DE0009946A246AB46F0BD4278002A01D100F0C8
:103DF00038FE012A01D000F02FFE837890209A43EC
:103E00000121C005FFF706FA0023CB4C7370E3E7EE
:103E1000CA4B1A78012A01D100F02DFE022A06D1E0
:103E20004278DA769B7E934201D901F061F9FF2353
:103E3000C34C7370D0E7C14B9B461B780293012B98
:103E400001D100F033FE022B01D000F028FE0B1D43
:103E5000049300235A46BB4D2B704378D376927E51
:103E60009A4201D801F0C1F8C37882781B0213434B
:103E7000059301D101F0B9F8037998469946424675
:103E8000012313400A331800069302F067F84246F4
:103E9000029B134201D101F077FA5B461F8A23008F
:103EA0004446984609E0002F01D101F0C7FA2B786B
:103EB000013F002B01D001F0C1FA0021200002F0E7
:103EC0005BF80228EFD04446012801D001F0FCFA4B
:103ED000059B2200013B0393002398460DAB4C4603
:103EE000B24691462E001D00039B984501D101F07A
:103EF000F2FA5B461F8A09E0002F01D101F004FAB3
:103F00003378013F002B01D001F0FEF92900200099
:103F100002F032F80228EFD0012801D001F0F8FABF
:103F20000D9B04991A0A0B704A701A0C1B0ECB7069
:103F300001239C46059B8A70E0440A1D0492434578
:103F4000D2D161464C465646DAB202911B0AB37092
:103F50006B461B7A7270F370019A049B9B1A22794C
:103F6000920701D500F021FDE078A278000210430D
:103F7000013080041843744BC4182DE76F4B9B46E7
:103F80001B780B93012B01D100F019FE022B01D0FD
:103F900000F0F6FDCB1C0A9300235A46694D2B70A6
:103FA0004378D376927E9A4201D801F067F8C31C19
:103FB000049383780593002B01D101F065FA002367
:103FC0008A46079309930393049B5A1C1C78012388
:103FD00091460692022223400A330893224200D1DE
:103FE00035E3039A002A00D150E35A46128A9046DC
:103FF000099A9A4200D07BE3E30600D578E30DAF3F
:10400000464609E0002E01D101F0AAF82B78013EC6
:10401000002B01D001F0A4F83900200001F0ACFF22
:104020000228EFD00300012B01D001F09AF80D9B7C
:104030000A991A0A0B704A701A0C1B0ECB701023C7
:104040008A700A1D03992340002901D100F0DFFC8A
:1040500061B2002900DAB0E30A92002B00D0BCE381
:104060004B460493079B013307932B78002B01D019
:1040700001F07BF9059B013B0593002BA4D1039B29
:10408000564699466B461C7F099B0A2B02D00A2094
:1040900001F064FF5B461F8A4B46002B00D193E280
:1040A0000DAB9A4609E0002F01D101F068F92B7899
:1040B000013F002B01D001F062F951460E2001F0C2
:1040C0005BFF0228EFD02200012801D001F02AFA7C
:1040D0000D9B0A9C190A23706170190C1B0EE3706A
:1040E000231D0A93049BA17006930B9076E24378FC
:1040F000124A134C1373C37881781B020B4313824B
:10410000437901791B020B4353820023737063E6EA
:1041100000240A4B102200210EA81C7002F011FE90
:1041200090207C230DA9C0050D93FEF7EDFE747061
:10413000064C51E6E076000802000300DC0F002088
:10414000020006000C100020010001000200010026
:104150004478002C00D1EAE2012C00D1E7E2022CE5
:1041600001D000F047FFA84B0C2200210FA81C70C3
:1041700002F0E7FD5423902003270D930DA9533B34
:10418000C0050E931097FEF7BFFE9020012210216C
:10419000C005FFF73FF8902001220421C005FFF77A
:1041A00039F8902001224021C005FFF733F8202381
:1041B000902000250D930DA90F3BC0050E930F9580
:1041C0001095FEF7A1FE90202021C0050122FFF7E7
:1041D00021F8902008230DA9C0050D930E950F9589
:1041E0001097FEF791FE7470884CF5E543788D1CAE
:1041F000F02B01D101F020F800D9E7E3022B01D127
:1042000001F010F801D800F066FF032B01D100F097
:10421000EBFF042B01D000F0E2FF06227C492800CE
:1042200002F086FD06237B4C7370D5E50199029858
:1042300002F048FC784BC418CEE50199029802F0D0
:1042400099FC754BC418C7E5019802F00FFC724B3E
:10425000C418C1E50199029802F0CEFB6E4BC41858
:10426000BAE50199029802F099FB6B4BC418B3E5CB
:104270000199029802F064FB674BC418ACE5019900
:10428000029802F047FB644BC418A5E55E4B1A7810
:10429000022A00D1C0E3FF235C4C73709CE5831CB1
:1042A000594A9C46437893469376002B1DD01400C0
:1042B0001800B0466346002200215E46A4465D5CBD
:1042C000771801313D770234E28352198842F6D8DB
:1042D000B3460300594660464646CD18047F013078
:1042E000121B0A850231A842F8D1581C4A4B0124FE
:1042F00000229C4600040443727064446CE5012271
:104300008B1C9A46002301923E32012493464B7047
:104310004778831C013F63D35D461E785A1C904644
:10432000354000D16DE10735ED086B1C9946300032
:104330005246414601F012FC434676B25B194C44AA
:10434000002EE7DA019AAA449446AC4462460192F0
:10435000E0E7032243782C491A405B07DB0F4B76DA
:10436000002301320A76294C737035E58B1C9B467D
:104370000023012201244B704678831C0192013EE8
:104380002ED35A1C1D783F2390462B400827002B24
:1043900001D0DF1DFF086BB2002B00DA35E10C22E3
:1043A00000210FA802F0CDFC042390200D939A4623
:1043B000033B0E930DA9C005994602331093FEF7F7
:1043C000A3FD5A464146280002F094F8002E01D180
:1043D00000F0B9FF43460134DB19E419013ED0D2A5
:1043E000019B24041C430C4B9C466444F4E4811C54
:1043F0004078002800D0DFE28020084C400002F026
:1044000041F800237370E7E4DC0F00200200020093
:104410006477000808000200010001000200220089
:104420004378C21C98465378C4781B02234394787F
:10443000857824042343D47824061C4301231A00DE
:104440002A4091460AD04246134201D100F0B3FD02
:10445000902001221021C005FEF7DCFE02231A0085
:104460002A4092460AD04246134201D100F09BFDF9
:10447000902001220421C005FEF7CCFE04272F4026
:1044800000D0E0E26BB29B46002B01DA00F0BAFDEF
:10449000002C44D0DF4B9C4200D91C00DE4BDF4A8D
:1044A0005B6A526A1B041343019343465B08039300
:1044B00043469B08059343465B0904934346DB0947
:1044C000029320231D402B005546B2463E00270094
:1044D0004C469946002C00D001E1002D00D062E14D
:1044E000002E00D089E24B46002B02D0049B002B0B
:1044F0000AD15B46002B11DA90202021C005FEF77F
:1045000083FE029B834209D0C34BC44A5B6A526A52
:104510001B041343019A9B1ABB42DBD356469020DF
:104520001021C005FEF770FE070090200421C00591
:10453000FEF76AFE050090204021C005FEF764FEEC
:10454000840090200821C005FEF75EFE6D002C431C
:10455000C50090202021C005FEF756FE3C432543B0
:10456000C4012C437470AE4C36E40023AD4C8B7008
:104570004B7031E4029A417853781B020B439178D7
:1045800009040B43D1780906194300D108E2A64B70
:10459000994201D800F0F3FC0122A44B5A705A60F2
:1045A0000023A34C7370FFF717FCFF23A14C33705B
:1045B000FFF712FC002F01D100F0E1FE2B78013F44
:1045C000002B01D000F0DBFE00210E2001F0D4FC16
:1045D0000228EFD02200049B0B90069372706B466A
:1045E0002C229B181B78029AB370069B9C1A0A9B7C
:1045F000019A2404981A8F4B04439C466444FFF7A5
:10460000EBFB09230825994691E6102200210EA80C
:1046100002F097FB042390200D930DA9C0059A4644
:10462000013B99461093FEF76FFC5A46414628001D
:1046300001F060FF002E01D100F058FF019B013412
:104640009C46BC446346BB440193434697E6039BA8
:10465000002B00D079E14A464B4652781B78120273
:104660001A434B469B781B041A434B46DB781B06C8
:104670001343049A0D93053204922022224200D162
:104680003DE15A46536100230393EBE4E30600D572
:10469000A3E00898099A904201D001F05FFC5B46C4
:1046A0001F8A09E0002F01D100F0A7FC2B78013F01
:1046B000002B01D000F0A1FC0021200001F05CFCE7
:1046C0000228EFD00390012801D000F0EAFE64B286
:1046D000002C01DA00F056FD089B0993C0E49020FD
:1046E0001021C005FEF790FD804500D1F5E60BE7EF
:1046F000099B0A2B02D00A2001F030FC0DAF464680
:1047000009E0002E01D100F088FC2B78013E002B3F
:1047100001D000F089FC39000E2001F02DFC0228A8
:10472000EFD00A2209920022030003927BE40124C5
:104730003E4B0C2200210FA81C7002F002FB9020BF
:10474000142303250DA9C0050D930E941095FEF7B3
:10475000DBFB902001221021C005FEF75BFD9020BD
:1047600001220421C005FEF755FD202390200024DE
:104770000D930DA90F3BC0050E930F941094FEF7F7
:10478000C3FB902001222021C005FEF743FD9020AD
:1047900048230DA9C0050E940F940D931095013474
:1047A000FEF7B2FB1FE590200421C005FEF72CFDAB
:1047B000039B834200D193E6A6E65A4692680A9884
:1047C000110A4171110C8171010002710831120E40
:1047D000C2710A91002B00D142E44B461A785B78F3
:1047E00008981B021A434B469B781B0413434A4606
:1047F000D27812061A43049B9046053306935B4613
:10480000099A5E8A904201D001F0A8FB5B461F8A9C
:104810001AE0C046C0C62D0000040040002C014034
:104820000200070003000100FF1AB700DC0F0020A0
:104830000200050001000100002F00D184E32B7865
:10484000013F002B00D07FE30021200001F094FB0A
:104850000228F1D00300012801D000F02DFEB1465E
:104860000DAF5B461E8A05E0002E3DD02A78013E42
:10487000002A39D13900200001F07EFB0300022814
:10488000F2D05A460D9952690A40012801D000F031
:104890000EFE4346934201D100F05CFC4B46002BD8
:1048A00006D00122524294462B78E144002BD8D006
:1048B000039B5646994610230343DBB20222102184
:1048C0000AE001420CD101340694059801380590A4
:1048D000002801D100F04CFC069C20780242F0D167
:1048E000069805300690F0E7039A564691460D99D2
:1048F0005A465269114042468A42DCD1DEE70898A6
:10490000099A904201D001F029FB5B460DAF1E8A47
:1049100007E0002E00D1A0E32B78013E002B00D051
:10492000A1E33900200001F027FB0228F1D00300A9
:10493000012800D098E364B2002C00DA7BE3089BE6
:10494000099300230393FFF78DFB099B0A2B02D0E9
:104950000A2001F003FB5B461B8A0DAF1E0007E037
:10496000002E00D1E9E22B78013E002B00D0E4E2DA
:1049700039000E2001F000FB0228F1D003000128CD
:1049800000D0DBE20D9B0A991A0A0B704A701A0CD0
:104990001B0ECB700B1D0A930A238A7009935AE6EB
:1049A000FF23D74C7370FFF717FA8020C00218431B
:1049B000D44BC418FFF710FA0123C41DE4080134D6
:1049C00024041C43CF4B9C46644418E5FD2B01D1C5
:1049D00000F0FAFB00D89FE3FE2B01D100F01BFC96
:1049E000FF2B01D000F0FBFB40238B700023CB702A
:1049F0000233C54C7370FFF7EFF990204021C005DA
:104A0000FEF702FC059B834200D16CE57CE50A922F
:104A1000002B00D13DE6E0E64278DA769B7E9342B9
:104A200000D838E40E2001F099FA01F009F90023CA
:104A30007370030AB070F370030C000E3371707161
:104A4000B24CFFF7C9F9434690205A07D20F4021D4
:104A5000C005FEF7DFFB15E5FF23AD4C4B70FFF7FC
:104A6000BBF98378012290209A430221C005FEF70A
:104A7000D1FBFFF7C9F9C278837812021A43037990
:104A80000DA91B041A43437900201B0613430D9301
:104A900001F0BEFD00239F4C7370FFF79DF90023CA
:104AA0004B708B70CB700333FFF759FA0B1D0393D8
:104AB0000023994D82782B70C3781B021343049313
:104AC00000D1D7E2037998465B461F8A43469B078D
:104AD00000D5B8E3431D9946002302930DAB2E0089
:104AE0008A4645461C0080464A464B4652781B780B
:104AF00012021A434B469B781B041A434B46DB7841
:104B00001B0613430D9304239C46E14405E0002F4C
:104B10002FD03378013F002B2BD12100280001F04A
:104B200077FD0228F3D0012823D15A46029B013396
:104B30000293178A049A9A42D6D1350044465646C3
:104B400005E0002F09D02B78013F002B05D1002173
:104B50000E2001F05DFD0228F3D0029BDAB21B0AA1
:104B6000DBB27270B370019A039BF0709B1AFFF76F
:104B7000F6F9029B4446DAB21B0A5646DBB2F0E76E
:104B80008278C31C002A0DD00220102405E00C42BC
:104B900006D10133013A002A04D019780842F6D12F
:104BA0000533F7E700227270B270029A0224981A55
:104BB000544B00049C4604436444FFF70DF9CB1C9E
:104BC00007930023544D2B70C31C039383780493E5
:104BD000002B01D100F052FC0023984600208A46A9
:104BE000464609934246049B9B1A0893039B5A1C12
:104BF0001C78022391460692234200D1BDE05B4619
:104C00001F8A3B00002E27D011232340012B08D1FF
:104C10006EE0002F00D181E12B78013F002B00D006
:104C20007CE10DA90E2001F0F3FC0228F1D0002652
:104C3000012800D0E0E00D9B07991A0A0B704A701A
:104C40001A0C1B0E8A70CB700A1D002E00D05AE180
:104C50005B461B8A07921F0001222240E10600D416
:104C6000CDE04946087849780902084349468978E1
:104C7000090401434846C07800060843039905909B
:104C8000053106915946498A8946002A4BD14A4640
:104C90001F00B146160005E0002F4FD02B78013FD2
:104CA000002B4BD10DA9200001F0B2FC020002281C
:104CB000F2D05B460D995B690B40012801D000F0F2
:104CC00008FC0599994200D131E1002E00D123E181
:104CD0002B78013E002B00D01EE15B461F8AE1E7E6
:104CE000002F00D188E02B78013F002B00D083E01B
:104CF0000DA9200001F08CFC0228F1D098E7C046F5
:104D0000020005000100010004000200060002008C
:104D100002000300020006000C100020013F6BD3CC
:104D20002B78002B68D10021200001F071FC0228B3
:104D3000F4D0012860D15B461B8AA8E756460D993E
:104D40005B465B691940059B8B4202D010201043E3
:104D5000C0B2089B02221021002B3AD0089B069C6F
:104D600006E0394207D10134013B002B00D152E16A
:104D700027783A42F5D10534F6E7002E00D08DE0D1
:104D80004A464B4652781B7812021A434B469B7890
:104D90001B041A434B46DB781B061343039A0D93FF
:104DA000053203922022224200D194E05A46002686
:104DB0000120536101239C462B78E044002B00D056
:104DC000B0E0049B434500D00CE7B1465646039B38
:104DD0000693012800D158E14346029A7370069B5E
:104DE000B070981A079B019A00049C1AD24B044396
:104DF0009C466444FEF7F0FFB1465646A9E7002AF8
:104E00000BD0002E38D04B46039300230993D1E7F3
:104E1000013FF1D32B78002BEED10DA9200001F03A
:104E2000F7FB0228F4D00128E6D1079B64B21A1DD3
:104E3000002C0DDA5B469B68079C190A2370617091
:104E4000190C1B0EE3702300083307921A00A1709F
:104E50000D9B079C190A23706170190C1B0EE370DF
:104E60004B4603930023A17007920993A2E7013FE9
:104E7000C2D32B78002BBFD10021200001F0C8FB4A
:104E80000228F4D00128B7D164B2002C00DA89E1FD
:104E9000002309934B46012603938BE75B461F8A49
:104EA00005E0002FA8D02B78013F002BA4D10DA93D
:104EB0000E2001F0ADFB0228F3D001289CD10D9B00
:104EC00007991A0A0B704A701A0C1B0ECB700B1D37
:104ED0008A70079354E75B461E8A05E0002E21D0B6
:104EE0002B78013E002B44D10DA9200001F090FB4E
:104EF0000228F3D001283CD164B2002C29DB012325
:104F00000026099356E763B2002B5CDB5B461B8AE5
:104F100030001F0007929FE6564617E700235646CB
:104F2000994616E7039BB1460693564611E7069B42
:104F30004E460393002309933CE70300039A564629
:104F400091460A220892B9E4039A03009146564614
:104F5000B4E45B469B6807991A0A0B704A701A0CF6
:104F60001B0ECB70012309930B1D8A70079300263B
:104F700020E7039B5646069300239946E9E66F4BCC
:104F80009B4600235A4653706D4BC818FBF7C4F874
:104F90000123022803D00321FBF7BEF803005A4681
:104FA0005360FFF7FDFA902000220421C005FEF7B0
:104FB00031F9FFF763FA902000221021C005FEF7B7
:104FC00029F9FFF74BFA5B469B6807991A0A0B71A0
:104FD0004A711A0C1B0ECB715B468A710A001B8A40
:104FE00008321F003000079236E6002300220293A9
:104FF000FEF7ADFF0024FFF7F6F800225646022325
:1050000091465BE443469020DA092021C005FEF773
:1050100001F9FFF73DFA0694DBE6002291460A32D9
:1050200003005646089249E40A220892002203002F
:105030005646914642E45B469B680A991A0A0B70F1
:105040004A701A0C1B0ECB70089B8A7009930B1DBB
:105050000A9300230393FFF705F8049AB14603006F
:10506000564606922AE40300049A56460692002207
:10507000914623E400200023002272E5831C06935E
:10508000002300220B93FFF7A9FA4B46002B00D117
:1050900043E15B461C8A0DAB1F0007E0002C00D1EA
:1050A0009AE62B78013C002B00D095E639000E20C3
:1050B00001F0AEFA0228F1D0012800D08CE60D9B59
:1050C00007991A0A0B704A701A0C1B0ECB700B1D35
:1050D0008A70079380E6012B00D080E00F221949E7
:1050E000280001F025FE0E23174C7370FEF774FEA6
:1050F000082000F033FFE378A0781B0203432079F7
:10510000000403436079114C0006184300F032FE9E
:1051100000237370FEF760FEF12B60D140238B708B
:105120000233CB70333B0B7100234B710433084CBB
:105130007370FEF751FEC04601000100DC0F002035
:10514000FF356E01D4750008100002000200060051
:1051500006000200089B0993069B0493FEF782FF5A
:105160000300039A56469146099A0892FFF7A6FB58
:105170006A46127F1400012B00D18CE1DBB20B9345
:10518000FFF72CFA5B469B680A991A0A0B704A7063
:105190001A0C1B0ECB70089B8A7009930B1D0A9387
:1051A000FEF75EFF5B469B6807991A0A0B704A7010
:1051B0001A0C1B0ECB70002309930B1D07934B4653
:1051C0008A7001260393F5E5002304228B700B718E
:1051D0004B710433CA70D84C7370FEF7FDFD002389
:1051E000D64C7370FEF7F8FDD54BD6491A6809689E
:1051F000D54B52185B88D549280001F0ABFD28003B
:10520000FAF782FFCD4AFF249446C3B204406444B7
:105210007370FEF7E1FD08238B70073BCC4C737075
:10522000FEF7DAFD1622CB49280001F081FD152397
:10523000C94C7370FEF7D0FD37238B70363BC44CDE
:105240007370FEF7C9FD4246029B1340DBB2002B90
:1052500018D04446804607E0002F00D1F3E02B78B9
:10526000013F002B00D0EEE00021200001F0D0F93A
:105270000228F1D04346A0461C00012800D056E188
:105280005B461F8A002291460DAA9246049B5A460D
:10529000013BB3462E00454698465346A2461C00A5
:1052A00004924346002B06D1E2E0002F24D033784D
:1052B000013F002B20D12100280001F0A9F902288C
:1052C000F3D0012818D10D9B03991A0A0B704A706C
:1052D0001A0C1B0ECB7001239C4643468A700A1D94
:1052E0000392E144002B00D1B2E0049B1F8A01230A
:1052F0005B429C46E044D4E74B46DAB24B461B0A7D
:1053000054465E46DBB22CE44346DAB243461B0AFF
:105310004C465646DBB2FEF71AFE099B002B00D125
:105320005AE55B461C8A07E0002C00D154E52B7837
:10533000013C002B00D04FE500210E2001F068F960
:105340000228F1D048E50C2200210FA801F0F9FC59
:1053500053460D934B4690200E9303230DA9C00591
:105360001093FDF7D1FDFFF735F8039B564699469C
:10537000099B0893049B06930123FFF79FFA049B64
:1053800022000693FFF72AF9631D99460023039331
:105390000DABB2462E004546A0461C004A464B4681
:1053A00052781B7812021A434B469B781B041A430F
:1053B0004B46DB781B0613430D9304239C465B4648
:1053C000E1441F8A05E0002F30D03378013F002BE5
:1053D0002CD12100280000F0CFFD0228F3D00128B5
:1053E0006FD1039B059A013303939A42D6D1069B52
:1053F0003500444656460A2B02D00A2000F0AEFD86
:105400005B461F8A05E0002F2CD02B78013F002B34
:1054100028D100210E2000F0AFFD0228F3D0039B1D
:105420000290DAB21B0ADBB2FEF791FD039B444601
:10543000DAB21B0A5646DBB2FEF789FD002344466A
:105440001A00FEF784FD002344461A00FFF789FB8B
:105450004B46DAB24B461B0A54465E46DBB2029814
:10546000FFF77FFB039BDAB21B0ADBB2FEF76FFD8F
:1054700001331D4200D11EE70E251CE7002398468C
:10548000039B40460693A7E4049B069300230B93DB
:105490001A00FFF7A3F8089B0993069B0493FEF7F5
:1054A000F3FD0022039B56469146FFF707FA039A45
:1054B00056469146FFF71CFA039A56469146FFF767
:1054C000FDF944465646AAE7002302901A00FEF76B
:1054D0003EFD564634E4069B0E240A2B01D1FEF70E
:1054E00008FD0A2000F03AFDFEF703FD0C22002122
:1054F0000FA801F026FC53460D93012390200E9334
:105500004B460DA9C0051093FDF7FEFCFFF796F87A
:105510004346DAB243461B0A4C465646DBB202907B
:10552000FEF715FD049B0B900693FFF757F8002339
:105530001A00FFF716FBC046060002000200020038
:10554000ACF7FF1FB4F7FF1FB0F7FF1F5C77000831
:1055500003000200E475000817000200F8B50378A4
:105560007F2B16D10B704378851C8E1C4B705C1EF4
:105570000A4F002B0BD031002800FEF70DFC030C66
:105580003F180004000CED183618013CF3D2380027
:10559000F8BDFEF701FC0700F9E7C0460200020073
:1055A000162010B5002100220124114B86B058604E
:1055B0004E3019801A73186159611C839A7603A8BA
:1055C0000C2201F0BEFB029490240323E40501A900
:1055D00020000193FDF798FC200001220221FDF735
:1055E00019FE012201212000FDF714FE06B010BDB6
:1055F000DC0F0020037801480B70704701000100A8
:10560000F8B50500902001220421C005FDF702FE37
:10561000902000221021C005FDF7FCFD9020012202
:105620001021C005FDF7F6FD902000221021C005D5
:10563000FDF7F0FD902001221021C005FDF7EAFDE5
:10564000902000220421C005FDF7E4FD90200022F7
:105650001021C005FDF7DEFD902001221021C005BC
:10566000FDF7D8FD902000221021C005FDF7D2FDE6
:10567000902001221021C005FDF7CCFD90200122D1
:105680004021C005FDF7C6FD514EF37E1A000C32D5
:105690005200B2181489002C0FD090200022102143
:1056A000C005FDF7B7FD902001221021C005013C87
:1056B000FDF7B0FD002CF0D1F37EF218147F013C11
:1056C000002C18D001273A0090202A404021C00524
:1056D000FDF7A0FD902000221021C005FDF79AFDE6
:1056E000902001221021C005013CFDF793FD6D08BB
:1056F000002CE8D1F37E10335B00F3181C890123E2
:105700001D40002C5AD090202A004021C005FDF7F2
:1057100081FD902000221021C005FDF77BFD902027
:1057200001221021C005FDF775FD0122402107E08F
:10573000902000221021C005FDF76CFD01221021F0
:105740009020013CC005FDF765FD002CF0D1012241
:1057500004219020C005FDF75DFD9020002210215E
:10576000C005FDF757FD902001221021C005FDF76F
:1057700051FD902000221021C005FDF74BFD902027
:1057800001221021C005FDF745FD902000220421D3
:10579000C005FDF73FFD902000221021C005FDF758
:1057A00039FD902001221021C005FDF733FD902026
:1057B00001224021C005FDF72DFDF8BD90200122FA
:1057C0000421C005FDF726FD2A004021C1E7C0469F
:1057D000DC0F0020F0B5D6464F464646C0B5070060
:1057E00090200122C00589460421FDF713FD902079
:1057F00000221021C005FDF70DFD9020012210218F
:10580000C005FDF707FD902000220421C005FDF72B
:1058100001FD902000221021C005FDF7FBFC902027
:1058200001221021C005FDF7F5FC90200022102177
:10583000C005FDF7EFFC902001221021C005FDF707
:10584000E9FCC34BDC7E9846002C0ED09020002251
:105850001021C005FDF7DEFC902001221021C005BB
:10586000013CFDF7D7FC002CF0D1012590207A08EF
:105870002A404021C005FDF7CDFC902000221021D8
:10588000C005FDF7C7FC90200821C005FDF7BCFC52
:105890008246902001221021C005FDF7BBFC90201C
:1058A000BA082A404021C005FDF7B4FC9020002230
:1058B0001021C005FDF7AEFC90200821C005FDF7C2
:1058C000A3FC0600902001221021C005FDF7A2FCD8
:1058D0009020FA082A404021C005FDF79BFC90204B
:1058E00000221021C005FDF795FC90200821C0057D
:1058F000FDF78AFC040090200122C0051021FDF76D
:1059000089FC5346A400580020430643B246012EAA
:1059100000D088E0BB073FD51F250026902000223D
:105920001021C005FDF776FC90200821C005FDF789
:105930006BFC04009020E40701221021C0052643DF
:10594000013DFDF767FC7608002DE7D143469D7EBB
:10595000DB7EED1A012D00D0BFE090200122042152
:10596000C005FDF757FC902000221021C005FDF76F
:1059700051FC90200821C005FDF746FC0400902052
:1059800001221021C005FDF745FC4B46002B5CD0E1
:10599000E40734431C6058E04B461F2501261C6871
:1059A0003200902022404021C005FDF733FC9020BA
:1059B00000221021C005FDF72DFC902001221021AE
:1059C000C005013DFDF726FC6408002DE8D14346E3
:1059D0009D7EDB7E3440ED1A012D00D1AEE090209B
:1059E00022004021C005FDF715FC90200022102167
:1059F000C005FDF70FFC902001221021C005023DDB
:105A0000FDF708FC002D0ED0902000221021C005CB
:105A1000FDF700FC902001221021C005013DFDF79B
:105A2000F9FB002DF0D1012204219020C005FDF7E3
:105A3000F1FB902000221021C005FDF7EBFB902028
:105A400001221021C005FDF7E5FB90200022102166
:105A5000C005FDF7DFFB902001221021C005FDF7F6
:105A6000D9FB902000220421C005FDF7D3FB902034
:105A700000221021C005FDF7CDFB9020012210214E
:105A8000C005FDF7C7FB902001224021C005FDF7AE
:105A9000C1FB3B0607D52F4B5A6A2F4B12045B6A9A
:105AA00013434246936043461B7B5C1E002B0DD084
:105AB000902000221021C005FDF7ACFB90200122B0
:105AC0001021C005FDF7A6FB013CF1D25346D8B228
:105AD0001CBC90469946A246F0BD902000221021A1
