:020000040800F2
:1000000000180020AD550008A1080008A508000848
:1000100000000000000000000000000000000000E0
:10002000000000000000000000000000A908000817
:100030000000000000000000AD080008B108000842
:100040002D560008000000002D5600082D5600080F
:100050002D5600082D5600082D5600082D56000874
:10006000000000002D5600082D5600082D560008EF
:100070002D5600082D5600082D56000800000000DF
:100080002D56000800000000000000002D5600085A
:10009000000000002D5600082D5600082D560008BF
:1000A000000000002D560008000000002D5600083A
:1000B0002D5600080000000000000000B9080008EC
:1000C00010B5064C2378002B07D1054B002B02D02E
:1000D000044800E000BF0123237010BD6801002028
:1000E00000000000B45E0008044B10B5002B03D0E4
:1000F0000349044800E000BF10BDC04600000000F6
:100100006C010020B45E00080023C25C0133002AA9
:10011000FBD1581E70470000002243088B4274D365
:1001200003098B425FD3030A8B4244D3030B8B42F8
:1001300028D3030C8B420DD3FF22090212BA030C01
:100140008B4202D31212090265D0030B8B4219D3E2
:1001500000E0090AC30B8B4201D3CB03C01A524102
:10016000830B8B4201D38B03C01A5241430B8B424A
:1001700001D34B03C01A5241030B8B4201D30B0333
:10018000C01A5241C30A8B4201D3CB02C01A52415A
:10019000830A8B4201D38B02C01A5241430A8B421D
:1001A00001D34B02C01A5241030A8B4201D30B0206
:1001B000C01A5241CDD2C3098B4201D3CB01C01A20
:1001C000524183098B4201D38B01C01A524143092A
:1001D0008B4201D34B01C01A524103098B4201D318
:1001E0000B01C01A5241C3088B4201D3CB00C01A85
:1001F000524183088B4201D38B00C01A52414308FD
:100200008B4201D34B00C01A5241411A00D2014621
:10021000524110467047FFE701B5002000F006F894
:1002200002BDC0460029F7D076E770477047C04648
:1002300010B596B0282200210CA805F026FA10224D
:10024000002101A805F021FA1422002105A805F0DB
:100250001CFA01230A930B9380235B0213938023E0
:1002600002245B030AA81294149301F0A1FC002855
:1002700000D0FEE7072303900490012101A8019319
:10028000029401F00FFF002800D0FEE780239B02BC
:100290000593802305A8099301F0AEFF002800D044
:1002A000FEE701F0C9FE16B010BDC046F0B5DE464F
:1002B00057464E464546E0B5002789B002F046F85D
:1002C000FFF7B6FF474B484C484D494E10220021DE
:1002D00004A827609B461F602F60376005F0D5F9A2
:1002E0008020444BC0035969014359615A69024057
:1002F00080200092009A596980020143596180214F
:100300005A69C90202400192019A5A6990200A432F
:100310005A615B69C0050B400293029BF32303A95A
:10032000039302F031F8022303A93348039304979F
:10033000059702F029F800F069F804F005F92F4B51
:1003400098462F4B9A46502399463368002B22D16A
:1003500030BF20E02B68072B20D8424623689B0142
:10036000D35C7E2B03D17F2123689B01D15420686D
:100370002168800189015144404404F0C3F8336886
:10038000013B33602B6801332B602368013323600A
:100390002368072B22D83368002BDBD18622194B28
:1003A00092009A582B68002BCFD04B46D75C002F79
:1003B000F8D15B461968402289015144114802F086
:1003C00031FE5B465A461B68013313601368072BE6
:1003D00000D917602B68013B2B60DFE70023236007
:1003E000D9E7C04688010020840100208C0100204C
:1003F0006C0600200010024000040048FC010020B0
:10040000FC03002070060020FEE7C04610B5124C29
:1004100000221249200002F03DF9002819D11049AC
:10042000200002F051F9002810D10E49200002F0FE
:1004300011FE002807D1200002F050F9002801D059
:10044000FFF7E2FF10BDFFF7DFFFF4E7FFF7DCFF88
:10045000EBE7FFF7D9FFE2E770060020000000207D
:10046000840000207000002000B50D4B026883B0AE
:100470009A4201D003B000BD80200A4A0004D1692D
:100480000143D161D36900210340019300221F2061
:10049000019B02F077F81F2002F0A0F8EAE7C046BF
:1004A000005C0040001002400100872310B59B0053
:1004B000ED31FF31C05802F02DF910BDCB005B1AB1
:1004C0009B00C3181933FF331A68872310B59B00AC
:1004D000C05802F053F910BDCB005B1A9B00C31843
:1004E0009A6B872310B59B00C05802F083F910BDAA
:1004F000872310B59B00C05802F016FA10BDC04605
:10050000836870B50400022B01D0FFF77DFF8725BB
:10051000AD000121605902F0EFF9605902F0C8F90D
:1005200070BDC046872310B504009B00C05802F080
:10053000E7F9A369002B04D00621024A13690B4393
:10054000136110BD00ED00E0836910B50400002BBD
:1005500006D00621054A13698B431361FFF768FE35
:1005600087239B00E05802F0D7F910BD00ED00E0B2
:10057000872370B5040019489B00C4500433E05031
:10058000174B036008234360063B8360036100232D
:100590008361C361036200F0B5F9002801D0FFF761
:1005A00033FF8825AD00605918230022002101F097
:1005B000DFFA605958230022802101F0D9FA6059EE
:1005C00098230022812101F0D3FA6059D823002218
:1005D000012101F0CDFA002070BDC0469408002032
:1005E000005C004088239B0010B5C05800F0D8F98B
:1005F000032802D8024B185C10BD0220FCE7C0465D
:10060000EC5E000810B514001A0088239B00C05847
:10061000230000F0E9F9032802D8024B185C10BD52
:100620000220FCE7EC5E000888239B0010B5C05850
:1006300000F058FB032802D8024B185C10BD0220C2
:10064000FCE7C046EC5E000888239B0010B5C0584C
:1006500001F0CCF9032802D8024B185C10BD02202F
:10066000FCE7C046EC5E000888239B0010B5C0582C
:1006700001F01AFA032802D8024B185C10BD0220C0
:10068000FCE7C046EC5E000888234AB29B00C358D2
:10069000002A07DBCA00511A89005B180B33FF33AD
:1006A000187870477F221140CA00511A89005B18E0
:1006B0002A331878F5E7C04688239B0010B5C05848
:1006C00000F078F9032802D8024B185C10BD022014
:1006D000FCE7C046EC5E000810B58824A400005971
:1006E00000F0EAFC032802D8024B185C10BD02207F
:1006F000FCE7C046EC5E000810B58824A400005951
:1007000000F0BAFB032802D8024B185C10BD02208F
:10071000FCE7C046EC5E00080048704790010020EE
:100720007047C046122301480B8070471C00002010
:10073000042301480B80704730000020013A30B597
:10074000D4B264008A1CA418002506E030330B7074
:100750004D70023100018C420AD0020FD3B2092A37
:10076000F4D937330B704D70023100018C42F4D153
:1007700030BDC0461A2370B50B800C4B18680C4B6B
:100780001B68C018002802D10A4C200070BD094C1B
:10079000094BA11C08221D68FFF7D0FF210004228D
:1007A00012312800FFF7CAFFEFE7C046ACF7FF1F82
:1007B000B4F7FF1F34000020B0F7FF1F10B5044C42
:1007C0000A000448210002F0D5FA200010BDC046FE
:1007D000B40A00201C5F000810B5044C0A0004484D
:1007E000210002F0C7FA200010BDC046B40A002064
:1007F0002C5F000810B5044C0A000448210002F0E8
:10080000B9FA200010BDC046B40A0020F05E00080E
:1008100010B5044C0A000448210002F0ABFA200095
:1008200010BDC046B40A0020045F00080022024B3D
:1008300000201A607047C046E80100200020704781
:100840008623124A9B00D15870B50B78072B19D01C
:100850000F4C2368072B01D9002070BD0D4D0E4BA6
:10086000286840228001C01804F006FF2B6801337D
:100870002B602B68072B01D900232B6023680133E1
:100880002360E9E70122054B1A70E5E770060020B6
:100890006C060020E8010020FC010020E80B00208D
:1008A0007047C046FEE7C0467047C0467047C04626
:1008B00010B501F05BFD10BD10B5024800F00AFD57
:1008C00010BDC0469408002001220C4B82B09969EB
:1008D0001143996199690A4080210092009ADA696E
:1008E00049050A43DA61DB69054A0B40102101938F
:1008F000019B13680B43136002B070470010024065
:100900000000014070B5041E45D0EA23FF33C35CEC
:10091000DBB2002B39D0EA2303226068FF33E254B4
:1009200000281DD023000021012500222833197042
:1009300001315D70DA70DA601A615A611C338142EC
:10094000F5D12300002000220933FF331870013055
:100950005A70DA70DA601A615A611C338842F5D134
:1009600040220121236844209952002199521952B2
:100970000C30195209490020995200222423E254D4
:10098000EA230122FF33E25470BDF4225200835463
:10099000FFF76AFDBFE70120F6E7C04600BFFFFF93
:1009A0005822016880208B5A000203438B5200209A
:1009B0007047C046F4235B00C25C012A11D00122BB
:1009C000C254002907D02423C154F42300225B0021
:1009D000C254002070479D3B0168FF3B7F32CA52E2
:1009E000F3E70220F6E7C046F0B5C6467F264DB2D3
:1009F00000B50E40002D00DAB2E0CC00611A89008B
:100A00000931FF314118CB70F423ED0F0E704D709A
:100A1000CA605B00C45C012C00D135E10124C454E0
:100A2000CC780368012C00D138E1002C00D10CE116
:100A3000022C00D12AE1032C00D1FBE00C789D4D63
:100A4000A446A6009E193488A8462C4065469A4FB5
:100A50002F433C4334808C7A002C28D101270C781A
:100A60008E88E400A4464C78BE43002C00D1B0E050
:100A700050229C5A80221C19D2006444944664443B
:100A800026800A7892009A181488650600D5E7E057
:100A90008A4D2C4020256C40874D2C431480F42334
:100AA00000225B00C254002004BC9046F0BD5027D9
:100AB0000A78834E92009A1814882640814C344359
:100AC00014800A78DC5BD20012198024E400A4466A
:100AD0000126CC88D2186244B44314800A78DC5BC7
:100AE000D2001219784CD218A4460C896244B4433F
:100AF00014804A78002A39D10A7894001C19268873
:100B0000750405D545463540704E354325800A7835
:100B100094001C1925886E0605D5664A15406C4A56
:100B2000154325800A7892009A181488614D254053
:100B3000674C2C4314800A78664D92009A181488EA
:100B40002540C024A4016C405B4D2C4314800A78DE
:100B50005A4992009B181A880A4015431D809EE747
:100B6000F100891B8900283141184CE70A78454675
:100B700092009A18148826002E40650409D545462F
:100B8000524C264316800A7892009A181488254001
:100B90002E00640608D54E4C264316800A78454C34
:100BA00092009A1816882640484C444D26431680D9
:100BB0000A7892009A1814882C403F4D2C431480D8
:100BC0000A78444992009B181A880A4015431D80F0
:100BD00065E750255C5B1C196444A0463A4CA4466A
:100BE0004446644426800C785D5BE40064193A4D09
:100BF0005D1964193E2A3DD85508174200D00135C9
:100C0000AD0225800A7892009A181488650408D5E8
:100C1000284D2C402D4D2C4314800A7892009A18B0
:100C200014882C4B1C40C0239B016340224C1C4366
:100C3000148034E70C78294EA4001C1925882E4016
:100C4000C025ED0035432580F8E60C78234EA4003E
:100C50001C1925882E408025AD0035432580EDE602
:100C6000454625401A4C254315800A7892009A186B
:100C700014880DE75509D20601D1013DADB2184ADD
:100C8000AD0215432580BDE702200DE70C78134E19
:100C9000A4001C19258835402580CFE60C780F4E1E
:100CA000A4001C1925882E408025ED0035432580A1
:100CB000C4E6C0460F0F00008080FFFFBF8FFFFF1C
:100CC0000F0E00008081FFFF0404000080C0FFFFC2
:100CD000C080FFFF8FBFFFFF060400008F89FFFF6A
:100CE0000080FFFF7F22F0B54CB20A40002C5FDB92
:100CF000CB00591AF42389000931FF314118E40F60
:100D00000A704C705B00C25C012A5ED00122C254A2
:100D10008B7A0468002B14D10B784E789A00A218B5
:100D20001588002E53D06B0600D58FE04C4B1D402C
:100D30004C4B1D431580F42300225B00C25400205D
:100D4000F0BD80250B784F789E00A6193288ED0102
:100D50001540002F4CD1002D05D0434B1A40434B7A
:100D60001A4332800B789A00A21815886E0605D5B2
:100D70003D4B1D403E4B1D4315800B789A00A21839
:100D80001388394D1D403A4B2B4313800B78394D56
:100D90009B00E3181A882A40324D2A431A800B78A8
:100DA0002F499B00E3181A880A4015431D80C2E7AB
:100DB000F423D100891A890028314118E40F0A7000
:100DC0004C705B00C25C012AA0D10220B8E76E041F
:100DD00005D5254B1D40254B1D4315800B789B00E9
:100DE000E3181A88234911401E4A0A431A80A2E7D1
:100DF00013001D4F3B40002D08D01C4A1343338085
:100E00003B000E78B600A61932881340520608D56A
:100E1000174A134333800E78134AB600A619338855
:100E20001340124A0E4D134333800B789B00E31896
:100E30001A882A400B4D2A431A800B780D499B00D3
:100E4000E3181A880A4015431D8074E7064B1D40BD
:100E5000074B1D4315800A789200A218158865E794
:100E6000BF8FFFFF8080FFFF0F0F000080C0FFFFDC
:100E7000C080FFFF8FBFFFFFF0B57F24D6464F46EF
:100E800046462140CC00A246641AA4000419C0B50D
:100E9000260027001936FF36326000222137FF373F
:100EA000043633603A60173F3A701534013F3970A9
:100EB000FF342468A3423ED91B1B33608925534667
:100EC0006D00AC465A1A9200821894441700654689
:100ED00009372D78FF3706683B78002D2ED1502238
:100EE000B75ADA006F4BD219F318D2183E2C00D83B
:100EF00082E063099BB2E40601D1013B9BB26A4CDC
:100F00009B02234313805346591A89004018093025
:100F1000FF3003789B00F3181988644A00201140C1
:100F2000C02292015140624A0A431A801CBC90467A
:100F30009946A246F0BD32601C00BFE70A32FF327C
:100F40001578AC46002D36D15022B25ADB009B18E2
:100F5000584AB2189B183E2C5ED91F272740BC4622
:100F60006546620992B21700002D01D1571EBFB22B
:100F70004D4DBF022F431F8053465F1ABF00C71954
:100F80003B000A33FF331B789846002B6FD1502368
:100F90000937FF37F45A3B78DB001B19414C3419F1
:100FA0001B196446002C01D1013A92B294023E4AC8
:100FB00022431A8028E0012DACD14F35A946755B3C
:100FC000DB00A8463B4D4344A8469B1943441C8084
:100FD00013789846002B4AD14B46F25A3B78DB00F7
:100FE0009B18304AB2189B183E2C56D91F2222401B
:100FF00064099446A2B2D4E763089BB2E40701D522
:1010000001339BB29B0213805346591A8900401842
:101010000930FF3003787DE70127620892B227404C
:10102000944602D0551CADB2AC466546AD021D805B
:101030000A255346FF35AC465B1A9B00C3189C44F7
:1010400065462D78A846002D11D15024345B093314
:10105000A446FF331B78134CDB00634434191B197F
:10106000002F01D0013292B292021A80CCE753468F
:101070004246591A890040180930FF300378012A86
:1010800000D047E74F32B25ADB00F3189B18054AED
:10109000944663441C8003783CE767462740640815
:1010A000A2B2DDE7060400000080FFFF8FBFFFFF54
:1010B0008080FFFF02040000F0B57F244746CE4643
:1010C0002140CC00651AAD00451980B5AA632A00FD
:1010D000002601272932EB632E64013A5770117004
:1010E0006A6B934200D894E09B1AEB638023DB0089
:1010F0009846631A9B00C7183B00160432330568F4
:10110000360C1B7801367608A844002B32D1BB6B15
:10111000BF8D92B294464744002E0CD0FA1A9046E6
:1011200076009E195A781F7812023A434746DA53DE
:1011300002339E42F6D15023611A890040182830AC
:10114000EA5A0378DB009B185A4AEB18904662462D
:1011500043441A8003789B00EB181A8856490020F4
:101160000A4030214A4055490A431A800CBC904637
:101170009946F0BD3B0028331B7899463B004F460B
:10118000BF007F5B29331B787F0645D5002B5ED1DE
:101190004F465033EB5AFF00FF18494BEB18FF182E
:1011A0003E2A00D87DE053099BB2D20601D1013B13
:1011B0009BB2444A9B0213433B80631A9B00C318B3
:1011C0001A8E631A9B00C3189B6B4244002E0CD0EE
:1011D000D21A944676009E195A781F7812023A4322
:1011E0006746DA530233B342F6D1611A89004018D8
:1011F000030028302933197803789B00EB181A88EC
:10120000002940D00129A9D12F490A402F490A437A
:101210009FE7EE631A0069E7002B26D14F46503353
:10122000EB5AFF00FF18234BEB18FF183E2A2FD96B
:1012300053099BB2D20601D1013B9BB2214A9B02CA
:1012400013433B80631A9B00C318DA8DB9E7012B67
:10125000B3D14F33EB5A1A4F9C464B46DB006344E5
:10126000BC465B1963441A80A7E7012BEAD14F33D0
:10127000EB5A104F9C464B46DB006344BC465B195F
:1012800063441A80DEE710490A4011490A4360E7C7
:1012900053089BB2D20701D501339BB29B023B801E
:1012A000D0E753089BB2D20701D501339BB29B0212
:1012B0003B8082E702040000BF8FFFFF8080FFFFBA
:1012C000060400000080FFFF0F0F000080C0FFFF3A
:1012D000C080FFFFF0B54546DE4657464E464422E5
:1012E000E0B5036887B09A5A050012B2002A00DA06
:1012F0006CE04422995A49054BD44422995A490436
:1013000003D5995AC648014099524422995A8904F2
:1013100003D5995AC3480140995244241A5BD20418
:1013200027D44422995A090510D5995ABE48082451
:10133000014099524021585A204304245852585A87
:10134000204358529A5AD20400D489E14422995A2F
:10135000890532D44422995AC90503D5995AB3480C
:101360000140995207B03CBC90469946A246AB4614
:10137000F0BD40220420995A81439952AC4928007B
:101380009952FFF7E1F82B68AA491A5B0A401A53F1
:10139000C7E7995AA848014099522800FFF7B0F8CA
:1013A000F4225200AB5C012B00D1EAE14C218020F9
:1013B0002B6858520021A9549FE7995A9F48014031
:1013C00099522800FFF794F82B68C3E7002204A97C
:1013D000CA8044329146353A93464A469A5A04A9FD
:1013E00092B28A8012B2002A00DB82E704AA9488B3
:1013F0005A46144046D104AA9288D20600D4E1E0AD
:101400001A8804A9CA80C988090500D57EE104A903
:10141000C98809B20029E0DA89492C000A401A80FB
:101420005022995AB832AA5C0934D2005218854920
:10143000D2188C4662441788FF34BA05920DA26117
:1014400000D082E200212800FFF738F850222B68F4
:101450007C499A5A59188A18E1683E2900D90DE248
:10146000480880B2C90701D5013080B280021080DF
:101470001988754A1140C02292015140734A0A43AB
:101480001A80AAE7A6009819018804AAD180D288F8
:1014900012B2002A4FDB802104AAD28811429CD0CC
:1014A0009E1932886A490A4032806A4A9E18E200D0
:1014B000111B89006918080032300078002800D11B
:1014C000D3E0080028300078C7008000C05A4006EA
:1014D00000D458E15020185A3018C05B8005800DA8
:1014E000086400D059E2111B890069182831097875
:1014F000594F8900591808880740584838430880D0
:101500005021141BA4002C19585A210028310B78A3
:10151000DB001B189A5BA36B92059C46920D22641C
:10152000E36B6244A26309782800002B74D1FEF7B4
:10153000D3FF2B6851E7424A1140E2000180111BA2
:101540008900691808001330FF300078002800D0A7
:10155000B6E050301F5A08000930FF300078C00054
:10156000C019384FC018BC466044008880468005CA
:10157000800D844667460020002F00D0B1E1171B84
:10158000BF00EF193A002132FF3213681B181360B5
:101590003B001933FF331A6812181A6004331B68B2
:1015A000002B00D11AE139001537FF3709313F68A8
:1015B000FF310978874200D88EE12800FEF77EFFD0
:1015C0002B6868E71A88224928000A401A805022AE
:1015D000995A283AAA5CD2009B181E4A5B18944676
:1015E000AA6B634494461B8800219B059B0D2B64CA
:1015F0006344AB63FEF770FF2422AB5C002B0DD07D
:10160000E96B2B68002900D0E7E68024A85C204322
:10161000343C1853A954E0E6FFF74EFD2B68DCE696
:10162000FFBFFFFFFFDFFFFFFFF7FFFFFFFEFFFF33
:1016300000BDFFFFFFEFFFFFFFFBFFFFFFFDFFFF11
:101640008F0F0000060400008FBFFFFF8080FFFFA8
:101650000F8FFFFF020400000F0F000080C0FFFF8C
:101660002800FEF75FFF2B6870E650301F5A080015
:1016700028300078C000C019805B8005800D0864A8
:1016800000D13DE78F6B898D013088468021C900EC
:101690008C4641464008400061448446C918BC4419
:1016A000C91B604690469C460B0079783A7809023F
:1016B0001143F95202378742F7D1634642461FE78A
:1016C00008000930FF3000788700B8469844474644
:1016D0003F88C000BA467F0400D483E05027DF5B18
:1016E000DF193818BB4FBC46604400888705844624
:1016F000BF0D0020002F00D0CBE05146B64B194063
:101700000B00B6490B4341460B8038E75022995AEB
:10171000B832AA5C2F00D2005218B149D2188C46B8
:10172000624412880639960594462A008846093292
:10173000B60DFF3296619288ED374244FF37760846
:10174000D318002E0ED03900340018000288013C56
:101750000A70120A4A7002300231002CF6D176006B
:101760009B19BF196246D20701D51B883B702A68B6
:101770009C49138828000B401380FEF795FE2B68C8
:101780002BE62B68B9E55020185A1818C019944F49
:10179000BC46604400888005800D086400D1A2E644
:1017A0008F6B098E013088468021C9008C464146E6
:1017B0004008400061448446C918BC44C91B6046C7
:1017C00090469C460B0079783A7809021143F95209
:1017D00002378742F7D16346424684E60937FF372E
:1017E0003978EAE65027DF5BDF1938187C4FBC46B2
:1017F0006044008887058446BF0D0020002F00D17B
:101800007BE708001131FF310988193001918021EF
:10181000C9008A46FF300199006851448046CB18C0
:1018200078080290019314D0039041461800401AA2
:1018300092460200039B505A013B0870000A487010
:101840000231002BF7D15246029B5900019B88447C
:101850005B1861463800C90702D541461B880B70EA
:101860002968131B88469B00EB180933FF331B784C
:101870009B00984443461B889A463EE7480980B23D
:10188000C90601D1013880B257498002084310804F
:10189000EEE508000F31FF310988193001918021F0
:1018A000C9008A46FF300199006851448046CB1830
:1018B000780802900193CCD0039041461800401A5A
:1018C00092460200039B505A013B0870000A487080
:1018D0000231002BF7D1B6E72800FFF7CDFA2B68CD
:1018E000D9E508000D31FF310988193002918021B6
:1018F000C900FF308A460768604602994008514493
:10190000CB18019703901900002815D03900070063
:10191000581A9A460300585A013F0870000A487046
:101920000231002FF7D15346039948001918019B43
:101930009A4682445346019343466046DB0700D4EF
:101940001DE60B8801990B7019E6216952088C4637
:101950008021C9008A469046A2885244D318424644
:10196000002A0FD06146464618000288013E0A70E0
:10197000120A4A7002300231002EF6D1424652005D
:101980009B189444FA0702D562461B881370A2691B
:10199000236994466344236154E58F6BC98D0130FC
:1019A00088468021C9008C46414640084000614479
:1019B0008446C918BC44C91B604690469C460B002F
:1019C00079783A7809021143F95202378742F7D100
:1019D00001E7C046020400000F0F0000C080FFFFB7
:1019E000060400008F0F00000080FFFFF42330B5D5
:1019F0005B00C25C012A4AD00125C5546A3BFF3B0B
:101A00004AB20B400468002A29DBCA00511A890037
:101A100041180A000B32FF321570023A137000228F
:101A20000A31FF310A70002B0DD12288194B1A4060
:101A3000194B5A40194B13432380F42300225B00B7
:101A4000C254002030BD9B00E3181988144A11408D
:101A5000802252015140114A0A431A80EDE7DA0010
:101A6000D21A9200821811002A310D7029320239DF
:101A70000B701570002BD8D09B00E4182288094BFE
:101A80001A4010235A40054B1A432280D5E7022002
:101A9000D8E7C046BFBFFFFF101000008080FFFFE7
:101AA0008FBFFFFFBF8FFFFF30B57F244AB20C40CE
:101AB000002A49DBCB00591A89000931FF3141184E
:101AC0000023D20F8B70E9330C704A70FF33C25C75
:101AD000012A3FD00122C2544B780468002B1CD14C
:101AE0000B789B00E3181A88550408D51A4D2A4034
:101AF0001A4D2A431A800B789B00E3181A8818495C
:101B00000A40C02189015140164A0A431A80F42331
:101B100000225B00C254002030BD0B789B00E3180C
:101B20001A88550608D50C4D2A400F4D2A431A80B5
:101B30000B789B00E3181A880C490A4030214A4070
:101B400008490A431A80E2E7E100091B89002831AD
:101B50004118B5E70220DFE70F0F000080C0FFFF4C
:101B60008FBFFFFF8080FFFFC080FFFFBF8FFFFFA1
:101B700010B50C0610D57F242140CC00611A8900D5
:101B80002831401899B2002A0FD001221B0C827212
:101B9000C1800381002010BDCC00611A8900093189
:101BA000FF31401899B2002AEFD182728180F1E7AB
:101BB000F0B5CE46474680B5036883B00400DA0727
:101BC0002FD50C21C44842680A40042A00D1DFE026
:101BD00042681140082900D1D1E06368012B00D18F
:101BE00010E1002B00D143E1052B00D110E2BA4BEC
:101BF000BA491A680A401A601A68B9490A401A6054
:101C000000F0BCFB80250700B34EAD0205E000F0FC
:101C1000B5FBC01B642800D928E133682B42F6D0FD
:101C200023689A0729D50C22AB494868024200D1A3
:101C3000C2E048680240082A00D1B4E0E368A64D3B
:101C4000002B00D154E101222B68022613432B60A4
:101C500000F094FB070005E000F090FBC01B022899
:101C600000D903E12B681E42F6D0F8212A682369C7
:101C70008A43DB0013432B6023681A072BD45A07CF
:101C800043D58022944B5205D9690025114207D1D2
:101C9000D96901351143D961DB691A400192019B71
:101CA0008026904F76003B68334200D1B1E0A368B4
:101CB000012B00D1BEE0002B00D1F2E0052B00D1BA
:101CC00047E10121844B1A6A8A431A621A6A033176
:101CD0008A431A62B2E0E3697F4D002B00D17EE0B7
:101CE00001226B6A022613436B6200F047FB070078
:101CF00005E000F043FBC01B022800D9B6E06B6A88
:101D00001E42F6D023685A07BBD4DB0612D563699E
:101D1000012B00D15EE1053300D0FCE00421F82066
:101D20006D4A536B8B435363516BA3698143DB0053
:101D30000B435363236A002B1BD00C22664D69684A
:101D40000A40082A2DD0022B00D10CE12B68664AEC
:101D5000802413402B6000F011FBA404060005E072
:101D600000F00CFB801B022800D97FE02B68234287
:101D7000F6D1002003B00CBC90469946F0BDC021BE
:101D8000426849020A40802149028A4200D024E781
:101D9000514A1268920300D443E76268002A00D0D7
:101DA0003FE70120E6E74A68C02149020A40802156
:101DB00009028A4200D041E7474A1268920702D5D9
:101DC000E268012AEDD1F825434822690168D20072
:101DD000A9430A4302601A0700D450E77BE70122B7
:101DE0006B6A022693436B6200F0C8FA070004E0B6
:101DF00000F0C4FAC01B022838D86B6A1E42F7D123
:101E0000236880E78023344A5B0211680B43136028
:101E1000F6E63B6833433B6000F0B0FA804605E0ED
:101E200000F0ACFA4346C01A64281FD83B6833421E
:101E3000F6D03CE728490A6A13430B6200F09EFA89
:101E40002A4B8146244F0226984605E000F096FA78
:101E50004B46C01A404509D83B6A1E42F6D0012DB8
:101E600070D02368DB0600D464E750E7032081E7E5
:101E7000194D1A4A2B68802613402B602B68184A8C
:101E8000B60213402B6000F079FA070004E000F07E
:101E900075FAC01B6428E9D82B683342F7D1236850
:101EA000BFE601220C4E0227336A93433362336A42
:101EB00003329343336200F061FA0C4B814698463B
:101EC00005E000F05BFA4B46C01A4045CED8336AB5
:101ED0001F42F6D1C3E7C04600100240FFFFFEFFDD
:101EE000FFFFFBFF00700040FFFFFFFE88130000B4
:101EF00001222B68022693432B6000F03FFA070073
:101F000004E000F03BFAC01B0228AFD82B681E4249
:101F1000F7D12368B1E60422434D02266B6B1343CD
:101F20006B636B6B033A93436B6300F027FA070014
:101F300004E000F023FAC01B022897D86B6B1E4206
:101F4000F7D1F7E6384A3949D3690B40D3612368A2
:101F500088E70421344B1A6A0A431A621A6A033961
:101F60000A431A626AE72B68314A802613402B60C5
:101F700000F004FAB604070005E000F0FFF9C01B0A
:101F8000022800D972E72B683342F6D10F22EB6AA0
:101F90009343E26A1343EB62616AA36A6A680B4384
:101FA000244980240A4013436B6080232A685B0421
:101FB00013432B6000F0E2F91B4D0600A40405E07A
:101FC00000F0DCF9801B022800D94FE72B68234280
:101FD000F6D0CEE60421144D02266A6B0A436A63EA
:101FE0006A6B13436B6300F0C9F9070005E000F06A
:101FF000C5F9C01B022800D938E76B6B1E42F6D02A
:10200000F8216A6BA3698A43DB0013436B6391E693
:102010008022054BD20219680A431A60802219688F
:1020200052020A431A60EBE500100240FFFFFFEF87
:10203000FFFFFFFEFF7FC2FF8023034A1B031168DF
:102040000B4313607047C0460010024070B588B063
:102050006946114B0A00180070C870C2006810333E
:10206000106004AA100070CB70C01B680B4C03609A
:102070000C2063681840082802D0094808B070BDD9
:10208000E06A0F249B0C23400440CD5C0448115DA2
:10209000FEF742F86843F1E7CC5E0008001002400A
:1020A00000127A00F8B5CE46474601230C00494994
:1020B00080B50A6805001A40A2420CD20A689A4309
:1020C00022430A600A681340A34204D001200CBCDA
:1020D00090469946F8BD2B689A0706D5F0203E49F0
:1020E0004A688243A86802434A60DB0724D53A4B1A
:1020F0006A681B68012A48D0022A43D09B07E5D5AD
:102100000321354E73688B431343736000F036F937
:102110006B680700012B3DD0022B4BD00C23984657
:102120002E4B994604E000F029F9C01B48452FD8F2
:10213000424673681A42F6D10121264A13680B40C1
:10214000A34205D913688B43136013681942BDD1AC
:102150002B685B0706D5204A214953680B40E96884
:102160000B435360FFF772FF1B4B1E4A5B681B0655
:102170001B0FD35CD8401C4B1860002000F0D4F833
:102180000020A4E79B01BBD4A0E79B03B8D49DE744
:1021900003209CE70B339846104B994604E000F06F
:1021A000EDF8C01B4845F3D8424673681340042B32
:1021B000F5D1C1E70A339846084B994604E000F090
:1021C000DDF8C01B4845E3D8424673681340082B2E
:1021D000F5D1B1E700200240001002408813000052
:1021E000FFF8FFFF445F000880000020014B1868E3
:1021F0007047C04680000020F0B5CE46474680B507
:10220000036883B00400DA0336D58022404B5205C0
:10221000D9690027114207D1D96901371143D96122
:10222000DB691A400192019B80263A4D76002B68AB
:10223000334242D0C021364D89002A6A60680A4084
:1022400011D0014091420ED08022296A2E6A52029A
:1022500032432A622A6A304B304E0B4032402A62A7
:102260002B62CB0742D42A4A2B49136A0B40034303
:102270001362012F32D02368DA0706D503202449E0
:102280000A6B8243A06802430A639A0606D51020AF
:102290001F490A6B8243E06802430A6300209B03E4
:1022A00006D580211A4A136B8B4321690B431363B4
:1022B00003B00CBC90469946F0BD2B6833432B60AD
:1022C00000F05CF8804605E000F058F84346C01A7C
:1022D000642809D82B683342F6D0ABE7D36910499C
:1022E0000B40D3612368C7E70320E1E700F046F81D
:1022F0000C4B80460226994605E000F03FF8434625
:10230000C01A4845F0D82B6A1E42F6D06068AAE78A
:102310000010024000700040FFFCFFFFFFFFFEFFC7
:10232000FFFFFFEF8813000010B50400FFF75EFF0A
:10233000FA218900FDF7F0FE00F05CF9012000228F
:102340002100404200F01EF9002010BD1021064A75
:1023500010B5136800200B431360FFF7E5FFFEF78D
:10236000B3FA002010BDC04600200240024A1368A4
:10237000013313607047C046B40B0020014B18684E
:102380007047C046B40B0020F0B54E46DE465746B7
:102390004546E0B58946096885B0002900D17EE050
:1023A0006C4B00229B466C4B8A469846012554464E
:1023B00095402C4000946ED04B46596810230F0076
:1023C0009F430197022F00D170E0036856009C469E
:1023D0000323B3406446DB431C40270003240C4026
:1023E000B440A4463C0067463C43019F0460013F63
:1023F000012F00D877E0C5682B404D46AD68B54049
:102400002B43C36080235B05194244D05B46012403
:102410005D4603260F279B6916402343AB61AB69DA
:10242000B60023404D4CB740A44690240393039B31
:1024300093089B0063449D68E405BD43A0420ED011
:10244000474FB84200D17CE0464FB84200D174E01B
:10245000454FB84200D178E00527B7403D439D6025
:102460004346009C1B68E543CC034ED444462B40B6
:10247000236063688C034FD444462B406360A36899
:10248000CC0250D444462B40A360E368890251D467
:102490002B404146CB6053460132D34086D105B034
:1024A0003CBC90469946A246AB46F0BD07260F2499
:1024B0001640B600B440D3089B00C3181F6AA74358
:1024C0004C462469B44026003E431E620323560056
:1024D000B340DB4307681F40BC4603270F40B740AB
:1024E00064462743076087684C461F40BC46E76840
:1024F0006446B7402743012487604768AF430D090E
:10250000254095403D43456075E7009C2343444684
:10251000236063688C03AFD5009C2343444663600B
:10252000A368CC02AED5009C23434446A360E36875
:102530008902ADD500990B43ABE70227B7403D4375
:102540008DE70124B440254389E70324B4402543A3
:1025500085E7C04600100240000401400000014031
:102560000004004800080048000C004800690840CA
:10257000411E8841C0B27047002A01D18162704774
:102580008161FCE7FF22032330B51400C5B22B4064
:10259000DB009C4089010A40E4439A4000280BDBA1
:1025A0000C4B80089C46C023800060449B00C158AF
:1025B0000C402243C25030BD0F2307492B408C46AC
:1025C000083B9B089B006344D9690C402243DA61B5
:1025D000F1E7C04600E100E000ED00E0002805DB87
:1025E0001F2318401E3B8340014A13607047C046BA
:1025F00000E100E00A4A431E012093420ED8C021A8
:10260000084A09485360036A09061B021B0A0B4368
:102610000362002300209360073313607047C046B5
:10262000FFFFFF0010E000E000ED00E00121134B90
:1026300013481A680A431A605A6802405A601A68B6
:10264000104802401A601A680F4802401A605A681F
:102650000E4802400F205A60DA6A8243DA621A6B2F
:102660000B48024080201A631A6B02431A635A6BAC
:102670008A435A6300229A607047C04600100240A5
:102680000CB8FF08FFFFF6FEFFFFFBFFFFFFC0FFD8
:102690006CFEFFFF10B5002814D085239B00C458A2
:1026A000002C01D00024C450002902D084239B00B8
:1026B000C150FE2301215B00C1540270FDF758FF99
:1026C000002010BD0220FCE7002904D085239B00D8
:1026D000C150002070470220FCE7C04610B5FDF74E
:1026E00081FF002010BDC04685239B00C35810B554
:1026F000002B04D01B689847002800D110BD022091
:10270000FCE7C046852310B59B00C3585B6898471B
:10271000002010BD82239B0070B5C518040028005E
:1027200000F00AFBFA2301225B00E250124BE25A4E
:10273000163BE2501033E15CEA3BFF3B0B40012BC0
:1027400014D0002B0DD0022B06D07F2320009943FC
:10275000FDF77AFF002070BD2900200000F07AFA12
:10276000F8E72900200000F0EFF8F3E72900200047
:1027700000F04EFAEEE7C0460E02000010B513005E
:102780000400002906D1FA2252008258032A0ED0F2
:10279000002010BD85239B00C3589B69002BF7D0F8
:1027A000FE225200825C032AF2D19847F0E70530FE
:1027B000FF308168C268914210D885239B00E3589E
:1027C0001B69002B06D0FE225200A25C032A01D115
:1027D00020009847200000F023FBD9E7891A816088
:1027E0008A4205D892B21900200000F011FBCFE711
:1027F0000A00F7E7F8B50400130000290BD1FA220C
:1028000052008258022A16D080239B00E25C012AE3
:102810000ED00020F8BD85239B00C3585B69002BB8
:10282000F7D0FE225200825C032AF2D19847F0E7EB
:102830000022E254EDE7C269056AAA421ED8866901
:1028400029003000FDF7EEFC0F1E01D1B54222D960
:1028500085239B00E358DB68002B06D0FE22520044
:10286000A25C032A01D120009847200000F0E4FA7E
:1028700080239B00E25C012ACBD1D9E7521BC261C5
:10288000190092B200F0ACFA0023002200212000CF
:10289000FDF732FFB8E7FC256D0063599E42D7D2A1
:1028A00000220021200000F09BFA6751ECE7C046AF
:1028B00070B54023002200210400FDF7A3FE882309
:1028C00040255B00E5500022D03B80212000FDF731
:1028D00099FEFE2301225B002562E2541C33E3587B
:1028E000002B06D085239B00E35821795B682000EC
:1028F0009847002070BDC046017400207047C04654
:10290000FE23FE225B00C15CFF328154FA3AFF3A9B
:10291000C25400207047C046FE23FF33C25C013B17
:10292000C25400207047C046FE2310B55B00C35C54
:10293000032B01D0002010BD85239B00C358DB6909
:10294000002BF7D09847F5E770B54B7882B00400BC
:102950000D00092B0AD8AA4A9B00D3589F468B88A2
:10296000002B03D1CB88002B00D176E08021200002
:10297000FDF76AFE00212000FDF766FE002002B090
:1029800070BD8B789F4D2B70012BEFD8FE21490035
:10299000425C022A79D0032AE8D1002B00D11CE145
:1029A0004168012933D0C9B2FFF7ACFE2978200075
:1029B0006160FFF799FE022829D1D7E7FE235B006B
:1029C000C35C023B012BD1D80123C36081239B0050
:1029D000C358002B01D00323C360210002220C3115
:1029E000200000F0EFF9C9E7FE235B00C35C023B67
:1029F000012BBBD84B88012BC0D1812300229B0027
:102A0000C2501033E35829009B68200098472000EB
:102A100000F006FAB2E74B88012BAFD18122920079
:102A2000835085239B00EDE749880B0A072B9DD82F
:102A3000754A9B00D3589F46CB88012B00D095E761
:102A4000FC33FF33C35C022B2BD0032B00D08DE76C
:102A5000011D012200F0B6F990E7FE267600835DA5
:102A6000032B00D182E77F254B881D40FF235B00AD
:102A7000C5542900FDF720FE200000F0D1F9002DFB
:102A800000D19FE00223A35578E7002BBFD001239C
:102A90004360023343540121FFF726FE0228B6D1DA
:102AA00064E70023010083600831012200F08AF905
:102AB00064E7037C002B00D058E76B469E1D8523FE
:102AC0009B00C35830001B6B984707234370338823
:102AD000002B00D152E7EA88002A00D14EE7191CEA
:102AE000934200D9111C8AB231800100200000F00D
:102AF00069F943E7037C002B00D037E76B469E1D46
:102B000085239B00C35830005B6B9847DFE7C9B251
:102B100005296CD83D4B89005B589F468523027C74
:102B20009B00C358002A50D16A46961D9B6A30000C
:102B3000984702234370CAE76B469E1D84239B007F
:102B4000E35831001B68007C9847C0E76B469E1D28
:102B500084239B00E35831009B68007C9847B6E7CC
:102B60006B469E1D84239B00E35831005B68007C0C
:102B70009847ACE76B469E1D84239B00E3583100C9
:102B80009B69007C9847A2E76B469E1D84239B00AF
:102B9000E35831001B69007C984798E76B469E1DFF
:102BA00084239B00E3583100DB68007C98478EE764
:102BB0006B469E1D84239B00E35831005B69007CBB
:102BC000984784E70123A355D8E66A46961DDB6A39
:102BD000300098470223437079E702224254436051
:102BE0000021FFF78FFD200000F01AF9C6E66B46C2
:102BF0009E1D85239B00C35832009B6B984766E758
:102C0000545F0008EC0100207C5F00089C5F000816
:102C1000FE2370B55B00C35C04000D00032B0CD1D8
:102C20000B79012B09D885239B00C3589B689847D3
:102C3000EB88002B0AD0002070BD80212000FDF71A
:102C400003FD00212000FDF7FFFCF4E7200000F069
:102C5000E7F8F0E760230A7870B5134005000C0030
:102C6000202B06D1F533FF33C3589B6898470020CB
:102C700070BD8A886378D1B2012B35D0002B17D074
:102C8000032BF4D1FA33FF33C35C022B31D0032B77
:102C900040D16388002B03D14B0601D0FDF7D4FC53
:102CA00085239B00EB5821009B68280098472DE066
:102CB000FE235B00C35C022B1BD0032B2AD17F2495
:102CC0000C402401130630D40534FF3404192800C5
:102CD000FDF7DAFC002826D0012323600222210020
:102CE000280000F06FF8C2E7FE235B00C35C022BF4
:102CF00005D14B06BBD02800FDF7A6FCB7E7032B98
:102D000008D16388002BB2D14B0611D1280000F006
:102D100087F8ACE780212800FDF796FC0021280009
:102D2000FDF792FCA3E72060D8E714340419CEE73E
:102D3000FDF79AFCB4E7C0460B7803704B784370FC
:102D4000CA788B7812029B1843804A790B79120259
:102D50009B188380CA798B7912029B18C3807047B5
:102D600010B504008021FDF76FFC00212000FDF765
:102D70006BFC10BD30B5002820D00378002B1ED08E
:102D800004000023013425780133DBB2002DF9D192
:102D90005B000233DCB2138003230C704B700478A9
:102DA000002C0BD00025013B5A1CD2B2CC54013070
:102DB0008D5404780233DBB2002CF5D130BD0224EF
:102DC0000223E8E71300FA2210B5022452008450CF
:102DD0000A008361C3610021FDF77EFC002010BD65
:102DE00010B513000A000021FDF776FC002010BD8D
:102DF0001300FA2210B5032452008450EC3A835099
:102E0000043283500A000021FDF776FC002010BD3B
:102E100010B513000A000021FDF76EFC002010BD64
:102E2000FA23042210B55B00C250002100230022C7
:102E3000FDF752FC002010BDFA23052210B55B00FF
:102E4000C250002100230022FDF756FC002010BDD7
:102E50002923038000487047C000002086230021FA
:102E60009B00C258C93BFF3B0020D1547047C0466D
:102E700086239B0010B5C458E36C012B09D187232E
:102E80009B00C3582278DB686178100098470023C4
:102E9000E364002010BDC0460A2303800048704749
:102EA000F8000020862370B504009B00C558043349
:102EB000E35869782878DB6898472A004023012185
:102EC0002000FDF719FC002070BDC04686239B0042
:102ED00010B50A78C458B93BFF3B13400AD0202BE9
:102EE00006D14B780B2B38D82B4A9B00D3589F46E2
:102EF000002010BD4B780A2B33D00B2B0AD0062BA9
:102F0000F6D14B881B0A222B3AD0212B30D000213E
:102F1000002229E08B780020A364EAE78B78002068
:102F20002364E6E74B8800201B0A6364E1E7012382
:102F3000E3648A792100FFF75BFF0020D9E72100D5
:102F400001224031FFF73EFF0020D2E7210001229D
:102F50004431FFF737FF0020CBE7FFF701FF0220E6
:102F6000C7E7210001224831FFF72CFF0020C0E70E
:102F7000CB881A1C092B00D9092292B20749F3E722
:102F8000CB881A1C202B00D9202287239B00C358F2
:102F900092B21968E8E7C046B45F0008EC00002070
:102FA00070B5040086258121FDF73EFBAD000121AF
:102FB0002000FDF739FB6359002B09D087239B00C4
:102FC000E3589B6898476059FDF7AAFB00236351BB
:102FD000002070BD70B50400402303228121FDF75D
:102FE00011FB4023032201212000FDF70BFB54209D
:102FF000FDF792FB86239B00051EE05010D00022B7
:10300000C93BFF3BC254CD33FF33E3585B6898475D
:1030100040232A0001212000FDF76EFB002070BD37
:103020000120FCE770B5FE246400045D032C01D090
:10303000002070BD86239B00C458C93BFF3BE55C64
:10304000002DF5D10135E55413000A008121FDF76B
:1030500043FBEDE7002904D087239B00C1500020EB
:1030600070470220FCE7C046F0B557464546DE46AD
:103070004E46E0B5027891B01300803BDBB205000C
:103080008A461F2B0BD90B000A700133009303787B
:103090001D2B00D980E3D84A9B00D3589F4601F0EE
:1030A0007DFA0400200011B03CBC90469946A2462F
:1030B000AB46F0BD4278002A01D100F097FF012A0B
:1030C00001D000F08EFF837890209A430121C00543
:1030D000FFF752FA00235246C84C5370E2E7002330
:1030E000C74C8B704B70DDE7C64B1A78012A01D1B3
:1030F00000F0C5FD022A06D14278DA769B7E934223
:1031000001D901F058F8FF235246BF4C5370C9E76C
:10311000BC4B9B461B780193012B01D100F049FD6C
:10312000022B01D000F03EFD0B000433039300237B
:103130005A46B64C23704378D376927E9A4201D891
:1031400000F0B2FFC37882781B021343049301D1CD
:1031500000F0AAFF012307793B400A3318000593CA
:1031600001F0C6FE019BB8463B4201D101F00AF9CD
:103170005B461E8A09E0002E01D101F05DF923783B
:10318000013E002B01D001F057F90021380001F079
:10319000BDFE0228EFD0012801D001F04CF9002734
:1031A0002200049B4446013B02930BABB846A94660
:1031B00017001D00029B984501D101F06AF95B469A
:1031C0001E8A09E0002E01D101F086F83B78013E0D
:1031D000002B01D001F080F82900200001F096FEBC
:1031E0000228EFD0012801D001F06DF90B9B039963
:1031F0001A0A0B704A701A0C1B0ECB7001239C46E6
:10320000049B8A70E0440A1D03924345D2D11A0000
:10321000170A62464D46DBB20192524653709770D0
:103220006A4653461279DA70039B009A9B1A2A79F0
:10323000920701D500F074FCEC78AA7824021443BC
:103240000134A4041C43724B9C4664442AE7431C8B
:1032500009936C4B9B461B780893012B01D100F01E
:1032600043FD022B01D000F01FFD0B000333079339
:1032700000235A46654C23704378D376927E9A4257
:1032800001D800F03EFF8378C71C0193002B01D1C9
:1032900001F0F2F800230021B946039304930123BF
:1032A0004B44984602934B461D78012302222B4043
:1032B0000A3305932A4200D1D2E2049A002A00D1AF
:1032C000F5E25A46178A8B4200D07AE3EB0600D526
:1032D00077E30BAE09E0002F01D100F033FC237837
:1032E000013F002B01D000F02DFC3100280001F03F
:1032F0000DFE0228EFD003000599012B01D001F04B
:10330000DFF80B9B07981A0A42701A0C0370827040
:103310001B0E021DC3700792EB0600D5CAE2049B88
:10332000C146002B01D100F074FE039B01330393CF
:103330002378002B01D000F0EBFF019B013B0193B0
:10334000002BACD16B464F461D7B0A2902D00A20C8
:1033500001F0CEFD5B461E8A049B002B00D13DE2AE
:103360000BAB994609E0002E01D100F0E9FF23786C
:10337000013E002B01D000F0E3FF49460E2001F092
:10338000C5FD0228EFD02A00012801D001F0A3F8E2
:103390000B9B079C190A23706170190C1B0EE370BC
:1033A000231DA17007930297089020E24378154AE5
:1033B000154C1373C37881781B020B431382437936
:1033C00001791B020B43538200235246537069E676
:1033D00000240C4B102200210CA81C7002F055F99F
:1033E00090207C230BA9C0050B93FEF7CDFF53461D
:1033F0005C70084C56E6C046E45F0008020003001B
:1034000003000100B80B002002000600E80B0020BA
:1034100001000100020001004478002C00D1EAE222
:10342000012C00D1E7E2022C01D000F042FEDD4B7E
:103430000C2200210DA81C7002F027F954239020C3
:1034400003260B930BA9533BC0050C930E96FEF776
:103450009BFF902001221021C005FFF78DF89020DE
:1034600001220421C005FFF787F8902001224021A6
:10347000C005FFF781F82023902000250B930BA9AE
:103480000F3BC0050C930D950E95FEF77DFF902028
:103490002021C0050122FFF76FF8902008230BA917
:1034A000C0050B930C950D950E96FEF76DFF5346D8
:1034B0005C70BD4CF6E543788C1C042B01D100F008
:1034C00052FE00D940E3022B01D100F06BFE01D97E
:1034D00000F052FE012B01D000F082FE20000F22EE
:1034E000B24902F0C9F80E23B14C52465370D9E5E7
:1034F000022353449B460023012201244B7046784B
:10350000831C0092013E2ED35A1C1D783F23904607
:103510002B400827002B01D0DF1DFF086BB2002BCA
:1035200000DA7BE10C2200210DA802F0AEF80423A2
:1035300090200B939A46033B0C930BA9C005994628
:1035400002330E93FEF720FF5A464146280001F051
:1035500091FF002E01D100F0C2FF43460134DB1978
:10356000E419013ED0D2009B24041C43914B9C469D
:10357000644497E5032243788A491A405B07013285
:10358000DB0F0A764B7652460023874C537089E551
:10359000811C4078002800D0CAE28020864C400080
:1035A00001F030FF0023524653707BE57D4A43789B
:1035B000871C93469376002B18D01000140000212E
:1035C0000022DC467D5C4618013135770234E28307
:1035D00052198B42F6D8834659466046CD18047F6F
:1035E0000130121B0A8502318542F8D15C1C01238F
:1035F00024041C436F4B002251469C464A7064448D
:1036000050E5837841781B020B43C17809040B43D2
:1036100001790906194300D17CE2684B994201D82F
:1036200000F01EFD01225F4B5A705A600023524683
:10363000634C537036E50379C2781B021A43437911
:1036400084781B0413438279467812061A430123B7
:103650001F009346274009D0334201D100F01CFDE2
:10366000902001221021C005FEF786FF02231A00D8
:103670002240904609D0334201D100F005FD902050
:1036800001220421C005FEF777FF0425254001D063
:1036900000F0B6FC63B29946002B01DA00F00CFD95
:1036A0005B46002B22D073080093B3080293730982
:1036B0000193F3099B4620231C40002F00D06DE1AD
:1036C0004346002B00D072E1002D00D018E2002C00
:1036D00002D0019B002BF0D14B46002B06DA902044
:1036E0002021C005FEF742FF8345E6D1902010213E
:1036F000C005FEF73BFF060090200421C005FEF741
:1037000035FF050090204021C005FEF72FFF840003
:1037100090200821C005FEF729FF6D002C43C5004D
:1037200090202021C005FEF721FF53463443254356
:10373000C4012C435C70234CB4E41A4B1A78022A5F
:1037400000D117E2FF235246174C5370AAE402231C
:10375000012253449B460023924601244B70477834
:10376000831C013F00D29AE03F251E785A1C9046E8
:1037700035404FD00735ED086B1C994630005A464E
:10378000414601F0B5F9434676B25B194C44002E30
:10379000E7DAAB44AA44E4E7FF235246054C137032
:1037A00080E4C046B80B0020020002001C5F000845
:1037B000100002000100010002002200FF1AB70001
:1037C0000200050002000700002E01D100F0B8FD44
:1037D0002378013E002B01D000F0B2FD00210E2025
:1037E00001F094FB0228EFD02A000890029753467C
:1037F00020215A706A46521812789A70029B099AD0
:103800009C1A079B2404009A9B1A1C43D54B9C4688
:10381000644447E4092308259946AFE710220021B4
:103820000CA801F032FF042390200B930BA9C005D4
:103830009A46013B99460E93FEF7A6FD5A4641462D
:10384000280001F017FE002E01D100F067FD009B5B
:1038500001349C46BC446346BB440093434651E656
:10386000049B002B00D022E14246434652781B784D
:1038700012021A4343469B781B041A434346DB78E3
:103880001B061343052294461B320B93E1442A4244
:1038900000D1ECE05A4653610023049345E55346BA
:1038A00024041C43AF4B9C466444FFF7FBFBEB0630
:1038B00000D4AEE343461A785B7805981B021A439E
:1038C00043469B781B0413434246D27812061A43A0
:1038D0004B46053302935B4606925F8A884201D0CD
:1038E00001F006FB5B461E8A07E0002E00D129E1AD
:1038F0002378013E002B00D024E10021280001F0B4
:1039000005FB0228F1D00300012829D1B8460BAEEF
:103910005B461F8A05E0002F38D02278013F002A3D
:1039200034D13100280001F0F1FA03000228F2D06E
:103930005A460B9952690A40012828D1069B9342A6
:1039400001D100F00BFC4346002B06D0012252426D
:1039500094462378E044002BDAD010230343DBB2F3
:10396000022210210AE001420CD101350295019892
:1039700001380190002801D100F044FC029D287814
:103980000242F0D1029805300290F0E70B995A46B6
:1039900052691140069A8A42DFD1E1E79020102156
:1039A000C005FEF7E3FD864200D189E685E690205A
:1039B0000421C005FEF7DAFD009B834200D183E6B7
:1039C0007BE60A2902D00A2001F092FA0BAE07E04A
:1039D000002F00D17AE32378013F002B00D07BE356
:1039E00031000E2001F092FA0228F1D000220300EB
:1039F0000A21049281E401245B4B0C2200210DA8D2
:103A00001C7001F042FE9020142303250BA9C00571
:103A10000B930C940E95FEF7B7FC90200122102119
:103A2000C005FEF7A9FD902001220421C005FEF784
:103A3000A3FD2023902000240B930BA90F3BC0056E
:103A40000C930D940E94FEF79FFC902001222021F0
:103A5000C005FEF791FD902048230BA9C0050C94EA
:103A60000D940B930E950134FEF78EFC1FE505981F
:103A7000884201D001F03CFA5B460BAE1F8A07E09A
:103A8000002F00D12EE32378013F002B00D02EE33E
:103A90003100280001F03AFA0228F1D00300012891
:103AA00001D000F003FD0023059904933DE40A29A9
:103AB00002D00A2001F01CFA5B460BAE1F8A07E019
:103AC000002F00D1C4E22378013F002B00D0BFE2D9
:103AD00031000E2001F01AFA0228F1D0030001286B
:103AE00001D000F0E9FC0B9B07991A0A0B704A7091
:103AF0001A0C1B0ECB700B1D8A7007930A21B3E6BC
:103B000090204021C005FEF731FD029B834200D189
:103B1000DDE5D2E5FF235246144C5370FFF7C2FA9D
:103B20008024E4021C430F4B9C466444FFF7BAFA1E
:103B30000123C41DE408013424041C43094B9C46A2
:103B400064442DE503000BE7FE2B00D154E300D9BC
:103B50004AE3F02B00D043E31323054C8B70123B58
:103B6000C3E4C04601000100B80B002002000500BC
:103B7000030002004278DA769B7E934200D8E1E5AA
:103B80000E2001F0B5F901F025F8524600235370DC
:103B9000030A9070D370030C000E13715071B14C76
:103BA000FFF780FA00234B708B70CB700333FFF765
:103BB0003EFB0B00043302930023AB4C827823704E
:103BC000C3781B021343039300D196E25B46077947
:103BD0001E8ABB0700D52BE3431D984600230193A3
:103BE0000BAB250081461C004246434652781B78A9
:103BF00012021A4343469B781B041A434346DB7860
:103C00001B0613430B9304239C46E04405E0002E5F
:103C10002FD02B78013E002B2BD12100380001F052
:103C2000B7FC0228F3D0012823D15A46019B013367
:103C30000193168A039A9A42D6D12C004D4605E08C
:103C4000002E09D02378013E002B05D100210E2043
:103C500001F09EFC0228F3D0019BDAB21B0ADBB212
:103C600051464A708B70009A029BC8709B1AFFF7EE
:103C7000DEFA019B4D46DAB21B0ADBB2F0E7C278EE
:103C8000837812021A4303790BA91B041A43437960
:103C900000201B0613430B9301F07AFC00235246CD
:103CA000724C5370FFF7FEF98278C31C002A0DD0C6
:103CB0000220102405E00C4206D10133013A002A0B
:103CC00004D019780842F6D10533F7E700225146AF
:103CD0004A708A70099A9C1A022324041C43644B7C
:103CE0009C466444FFF7DEF90B0003330593002381
:103CF0005D4C2370C31C994683780293002B00D13E
:103D0000C0E300230020984607930193029B019A89
:103D10009B1A06934B465F1C1D78022304972B4287
:103D200000D1A7E05B4642461E8A3300002A25D018
:103D300011232B40012B08D15FE0002E00D148E178
:103D40002378013E002B00D043E10BA90E2001F0A7
:103D50001FFC0228F1D00023984601286ED10B9B4E
:103D600005991A0A0B704A701A0C1B0ECB705B4631
:103D70008A701B8A0A001E000432059201222A4022
:103D8000E90600D4B1E07978387809020843B978B7
:103D900009040143F87800060843494605310491B7
:103DA000594603904F8A002A33D11E0005E0002EA9
:103DB0003AD02378013E002B36D10BA9280001F020
:103DC000E7FB02000228F2D05B460B995B690B40CF
:103DD00001282AD10399994200D1FDE0002F2AD071
:103DE0002378013F002B26D15B461E8AE5E7002E93
:103DF00024D02378013E002B20D10BA9280001F00C
:103E0000C7FB0228F3D0A8E7013E17D32378002B85
:103E100014D10021280001F0BBFB0228F4D00128B6
:103E20000CD15B461B8AC0E70B995B465B69194066
:103E3000039B8B4202D010201043C0B2069B02228B
:103E40001021002B3DD0049D069B06E0314207D196
:103E50000135013B002B00D136E12E783242F5D1FD
:103E60000535F6E706000200E80B00200200060018
:103E7000010001004346002B72D17A783B78120290
:103E80001A43BB781B041A43FB781B061343052215
:103E900094461B320B93E1442A4200D180E05A46FB
:103EA0005361002301209846019A23780132019240
:103EB000002B00D0B4E1029B934200D026E74B4692
:103EC0000493012800D123E1C3B208936A46534604
:103ED000127920215A706A46521812789A70049BFF
:103EE000099A9C1A2404059B8DE4002A0BD04346B2
:103EF000002B26D00023B9460793D5E7013E9DD37A
:103F00002378002B9AD10BA9280001F041FB02284D
:103F1000F4D0012892D10B9B05991A0A0B704A70B4
:103F20001A0C1B0ECB700B1D059300238A70B9462B
:103F30000793B9E7013E00D280E72378002B00D039
:103F40007CE70021280001F023FB0228F2D00128A1
:103F500000D073E70023079301339846B946A3E7DF
:103F60005B461E8A07E0002E00D167E72378013EFA
:103F7000002B00D062E70BA90E2001F009FB0228FC
:103F8000F1D0012800D059E70B9B05991A0A0B7054
:103F90004A701A0C1B0ECB700B1D8A7005936CE7D0
:103FA0005B461B8A1E0005E0002E55D02378013E9B
:103FB000002B0CD10BA9280001F0EAFA0228F3D05B
:103FC000012804D101230793002398466CE74B4650
:103FD00004930023984631E7049B994600230793F6
:103FE00062E7FF23D84C4B70FFF75CF8837801221F
:103FF00090209A430221C005FEF7BEFAFFF76AF847
:1040000090207207D20F4021C005FEF7B5FAFFF7E6
:1040100041FB0598884201D000F06AFF5B461E8A8A
:1040200007E0002E00D1F7E02378013E002B00D0FE
:10403000F9E00021280000F069FF0228F1D0030018
:10404000012800D034E205990490C146FFF76DF9CC
:104050000A220300059283E44B46B0460493EDE642
:10406000BA4B9B4600235A465370B94BC818FCF70D
:1040700053F80123022803D00321FCF74DF8030075
:104080005A465360FFF7D2FA902000220421C0055F
:10409000FEF772FAFFF7F9FA902000221021C0050E
:1040A000FEF76AFAFFF7E2FA002300270193FFF711
:1040B000B4F80024FFF7FBF99020F2092021C00595
:1040C000FEF75AFAFFF7ECFA0495FAE6002204929A
:1040D0000A320300059243E40A22059200220300FB
:1040E00004923DE404974F460300029738E44F469C
:1040F000002203000297049232E4002000230022F1
:10410000AEE5831C0293002300220893FFF76FFBA8
:104110004346002B00D1E6E05B461D8A0BAB1E0038
:1041200007E0002D00D183E12378013D002B00D072
:104130007EE131000E2001F02BFA0228F1D0012897
:1041400000D0E3E00B9B05991A0A0B704A701A0C19
:104150001B0ECB700B1D8A700593B7E6029B059969
:104160009946FFF7E2F8200006227A4901F084FA26
:10417000794C0623FFF7B9F9784B79491A68096831
:10418000784B52185B887849200001F087FA2000AC
:10419000FBF7BAFF754AFF2494460440C3B2644457
:1041A000FFF7A3F920001622714901F065FA714C5E
:1041B0001523FFF79AF9082000F09AFEEB78A8780B
:1041C0001B02034328796C4C000403436879000602
:1041D000184300F099FD002352465370FEF762FF2A
:1041E000624C0023FFF781F940238B700023634C5E
:1041F000CB700233FFF779F90823614C8B70073BD2
:10420000FFF773F96A46127B1500012B00D12FE1ED
:10421000DBB20893FFF7EBFA03000496FFF7A0FB6D
:104220004B4604930AE6002203000492FFF798FB32
:10423000019B3B423ED1012252429446039BA94638
:1042400063449846002303930BAB25001C004346B0
:10425000002B06D106E1002E38D02B78013E002B32
:1042600034D12100380001F093F90228F3D001285D
:104270002CD10B9B02991A0A0B704A701A0C1B0E58
:10428000CB70039B8A700133039343460A1D02924D
:10429000002B00D1D8E05B461E8A01235B429C467E
:1042A000E044D4E7002E00D1CAE02378013E002B81
:1042B00000D0C5E00021380001F06AF90228F1D0F1
:1042C000012800D0BCE05B461E8AB4E7039B4D4644
:1042D000DAB21B0ADBB2C3E44746FBB23F0A4D46E3
:1042E000FFB2FEF79AFF079B002B00D1EEE55B467D
:1042F0001D8A05E0002D09D02378013D002B05D152
:1043000000210E2001F044F90228F3D00890DDE5E9
:104310004F46059102970123FFF722FB0C22002153
:104320000DA801F0B2F953460B93012390200C9392
:104330004B460BA9C0050E93FEF726F8FFF787FA48
:104340002A000297FFF753FA02000300B80B00207F
:10435000FF356E016460000808000200ACF7FF1F23
:10436000B4F7FF1FB0F7FF1F5C60000802000200F7
:104370002C5F000817000200020006000400020083
:10438000030002006B1D9846002302930BABA94665
:1043900025001C004246434652781B7812021A43FD
:1043A00043469B781B041A434346DB781B061343A2
:1043B0000B9304239C465B46E0441E8A05E0002ED6
:1043C0002FD02B78013E002B2BD12100380000F09C
:1043D0009DFD0228F3D0012866D1029B049A013387
:1043E00002939A42D6D1059B2C004D460A2B02D04F
:1043F0000A2000F07DFD5B461E8A05E0002E2BD0D2
:104400002378013E002B27D100210E2000F07EFDF5
:104410000228F3D0029A0190170AD3B2FFB2FEF736
:10442000FCFE029A4D46170AD3B2FFB2FEF7F5FE24
:10443000022308934AE5019000273B00FEF7EDFEBA
:1044400000231A00FFF70CFC039B4D46DAB21B0A4F
:10445000DBB20198FFF704FC029A170AD3B2FFB24D
:10446000FEF7DBFE01331F4200D1FAE60E27F8E625
:104470000599029FFEF769FF0023029708931A002F
:10448000FFF7B5F9002301934B46049300230893EB
:104490001CE5059B0E240A2B01D1FEF790FE0A2095
:1044A00000F026FDFEF78BFE4D46B3E74F46029720
:1044B00000220492FFF754FA0A220592FFF750FAFD
:1044C0000591FFF74DFA4746FBB23F0A4D46FFB252
:1044D0000190FEF7A2FE08900297FFF788F90C22E0
:1044E00000210DA801F0D1F853460B934B469020C4
:1044F0000C9303230BA9C0050E93FDF745FFFFF7AF
:104500002CF8C046F8B503787F2B16D10B70437892
:10451000851C8E1C4B705C1E0A4F002B0BD031008B
:104520002800FEF7A1FD030C3F180004000CED1855
:104530003618013CF3D23800F8BDFEF795FD0700B0
:10454000F9E7C04602000200162010B50021002243
:104550000124114B86B058604E3019801A731861CF
:1045600059611C839A7603A80C2201F08EF80294FC
:1045700090240323E40501A920000193FDF704FF23
:10458000200001220221FDF7F7FF01220121200076
:10459000FDF7F2FF06B010BDB80B0020037801480C
:1045A0000B70704701000100F8B505009020012252
:1045B0000421C005FDF7E0FF902000221021C00576
:1045C000FDF7DAFF902001221021C005FDF7D4FF8E
:1045D000902000221021C005FDF7CEFF902001227F
:1045E0001021C005FDF7C8FF902000220421C0055E
:1045F000FDF7C2FF902000221021C005FDF7BCFF8F
:10460000902001221021C005FDF7B6FF9020002266
:104610001021C005FDF7B0FF902001221021C00538
:10462000FDF7AAFF902001224021C005FDF7A4FF5D
:10463000514EF37E1A000C325200B2181489002C2D
:104640000FD0902000221021C005FDF795FF90208B
:1046500001221021C005013CFDF78EFF002CF0D196
:10466000F37EF218147F013C002C18D001273A0089
:1046700090202A404021C005FDF77EFF90200022B7
:104680001021C005FDF778FF902001221021C00500
:10469000013CFDF771FF6D08002CE8D1F37E10336B
:1046A0005B00F3181C8901231D40002C5AD0902078
:1046B0002A004021C005FDF75FFF90200022102155
:1046C000C005FDF759FF902001221021C005FDF71C
:1046D00053FF0122402107E0902000221021C00555
:1046E000FDF74AFF012210219020013CC005FDF793
:1046F00043FF002CF0D1012204219020C005FDF7DA
:104700003BFF902000221021C005FDF735FF9020CF
:1047100001221021C005FDF72FFF9020002210215B
:10472000C005FDF729FF902001221021C005FDF7EB
:1047300023FF902000220421C005FDF71DFF9020DB
:1047400000221021C005FDF717FF90200122102143
:10475000C005FDF711FF902001224021C005FDF7A3
:104760000BFFF8BD902001220421C005FDF704FFD6
:104770002A004021C1E7C046B80B0020F0B5D6465C
:104780004F464646C0B5070090200122C005894625
:104790000421FDF7F1FE902000221021C005FDF755
:1047A000EBFE902001221021C005FDF7E5FE9020D0
:1047B00000220421C005FDF7DFFE90200022102119
:1047C000C005FDF7D9FE902001221021C005FDF79C
:1047D000D3FE902000221021C005FDF7CDFE9020D1
:1047E00001221021C005FDF7C7FEC04BDC7E9846B4
:1047F000002C0ED0902000221021C005FDF7BCFE39
:10480000902001221021C005013CFDF7B5FE002CCF
:10481000F0D1012590207A082A404021C005FDF7FB
:10482000ABFE902000221021C005FDF7A5FE9020D0
:104830000821C005FDF79AFE824690200122102132
:10484000C005FDF799FE9020BA082A404021C00516
:10485000FDF792FE902000221021C005FDF78CFE8E
:1048600090200821C005FDF781FE0600902001225E
:104870001021C005FDF780FE9020FA082A40402153
:10488000C005FDF779FE902000221021C005FDF73C
:1048900073FE90200821C005FDF768FE04009020FB
:1048A0000122C0051021FDF767FE5346A400580001
:1048B00020430643B246012E00D088E0BB073FD517
:1048C0001F250026902000221021C005FDF754FE70
:1048D00090200821C005FDF749FE04009020E40760
:1048E00001221021C0052643013DFDF745FE760853
:1048F000002DE7D143469D7EDB7EED1A012D00D0D1
:10490000BAE0902001220421C005FDF735FE902079
:1049100000221021C005FDF72FFE90200821C005C0
:10492000FDF724FE0400902001221021C005FDF7B0
:1049300023FE4B46002B5CD0E40734431C6058E058
:104940004B461F2501261C68320090202240402142
:10495000C005FDF711FE902000221021C005FDF7D3
:104960000BFE902001221021C005013DFDF704FE41
:104970006408002DE8D143469D7EDB7E3440ED1A6D
:10498000012D00D1A9E0902022004021C005FDF7B3
:10499000F3FD902000221021C005FDF7EDFD9020D1
:1049A00001221021C005023DFDF7E6FD002D0ED0CD
:1049B000902000221021C005FDF7DEFD902001228D
:1049C0001021C005013DFDF7D7FD002DF0D10122DA
:1049D00004219020C005FDF7CFFD9020002210217A
:1049E000C005FDF7C9FD902001221021C005FDF78B
:1049F000C3FD902000221021C005FDF7BDFD9020D1
:104A000001221021C005FDF7B7FD902000220421EE
:104A1000C005FDF7B1FD902000221021C005FDF773
:104A2000ABFD902001221021C005FDF7A5FD9020CF
:104A300001224021C005FDF79FFD3B0602D5002362
:104A40004246936043461B7B5C1E002B0DD090209A
:104A500000221021C005FDF78FFD902001221021BA
:104A6000C005FDF789FD013CF1D25346D8B21CBC0C
:104A700090469946A246F0BD902000221021C00524
:104A8000FDF77AFD90200821C005FDF76FFD0400B9
:104A9000902001221021C005023DFDF76DFD002D83
:104AA0000ED0902000221021C005FDF765FD90205A
:104AB00001221021C005013DFDF75EFD002DF0D162
:104AC000902001220421C005FDF756FD9020002210
:104AD0001021C005FDF750FD25E79020012204219B
:104AE000C005FDF749FD2200402172E7B80B002008
:104AF000F0B5DE46454657464E463F2393460200F4
:104B0000E0B51A4083B000900C009046131E01D10E
:104B100040339846009B5B0654D590200122042127
:104B2000C005FDF729FD8023A246009A1A40019294
:104B300053461F78012308260024994602E0434685
:104B4000002B32D04A4690203A404021C005FDF764
:104B500013FD902000221021C005FDF70DFD9020CF
:104B60000821C005FDF702FD05009020012210215B
:104B7000C005FDF701FD01235B429C466408ED0181
:104B8000013E7F082C43E044002ED8D1019B002B2E
:104B900004D05B461C7001239C46E34401239C46E1
:104BA0004346E244002BC3D105E0009BF4401B06C2
:104BB00001D55B461C7003B03CBC90469946A246AA
:104BC000AB46F0BD902000220421C005FDF7D4FCC7
:104BD000A9E7C046902070B501220421C005FDF769
:104BE000CBFC902000221021C005FDF7C5FC9020D1
:104BF00001221021C005FDF7BFFC902000220421F6
:104C0000C005FDF7B9FC902000221021C005FDF77A
:104C1000B3FC902001221021C005FDF7ADFC9020CF
:104C200000221021C005FDF7A7FC902001221021D1
:104C3000C005FDF7A1FC334BDC7E002C0ED090208C
:104C400000221021C005FDF797FC902001221021C1
:104C5000C005013CFDF790FC002CF0D11F2600247C
:104C6000902000221021C005FDF786FC902008212D
:104C7000C005FDF77BFC05009020ED070122102107
:104C8000C0052C43013EFDF777FC6408002EE7D1F8
:104C9000902001220421C005FDF76EFC9020002227
:104CA0001021C005FDF768FC90200821C005FDF724
:104CB0005DFC0500902001221021C005FDF75CFC81
:104CC000902000221021C005FDF756FC9020012203
:104CD0001021C005FDF750FC902000220421C005E2
:104CE000FDF74AFC902000221021C005FDF744FC8E
:104CF0009020ED072C4301221021C005FDF73CFC5C
:104D0000200070BDB80B0020F8B5040090200122EF
:104D10000421C005FDF730FC902000221021C005C1
:104D2000FDF72AFC902001221021C005FDF724FC8C
:104D3000902000220421C005FDF71EFC90200022D7
:104D40001021C005FDF718FC902001221021C0059C
:104D5000FDF712FC902000221021C005FDF70CFC8D
:104D6000902001221021C005FDF706FC5F4FFD7E5B
:104D7000002D0ED0902000221021C005FDF7FCFB75
:104D8000902001221021C005013DFDF7F5FB002D0B
:104D9000F0D1902000224021C005FDF7EDFB9020CE
:104DA00000221021C005FDF7E7FB90200122102111
:104DB000C005FDF7E1FB902000221021C005FDF7A2
:104DC000DBFB902001221021C005FDF7D5FB9020D0
:104DD00000221021C005FDF7CFFB902001221021F9
:104DE000C005FDF7C9FB1F25012632009020224097
:104DF0004021C005FDF7C0FB902000221021C00516
:104E0000FDF7BAFB902001221021C005013DFDF7FE
:104E1000B3FB6408002DE8D1BD7EFB7E3440ED1A63
:104E2000012D5AD0902022004021C005FDF7A4FB9F
:104E3000902000221021C005FDF79EFB902001224A
:104E40001021C005023DFDF797FB002D0ED09020EC
:104E500000221021C005FDF78FFB902001221021B8
:104E6000C005013DFDF788FB002DF0D10122042192
:104E70009020C005FDF780FB902000221021C00586
:104E8000FDF77AFB902001221021C005FDF774FB8D
:104E9000902000221021C005FDF76EFB902001221A
:104EA0001021C005FDF768FB902000220421C005F9
:104EB000FDF762FB902000221021C005FDF75CFB8E
:104EC000902001221021C005FDF756FB9020012201
:104ED0004021C005FDF750FBF8BD902001220421C0
:104EE000C005FDF749FB22004021C1E7B80B0020B7
:104EF00010B5054B5B78002B02D1FFF755FB10BDB9
:104F0000FFF752FBFBE7C046B80B002010B5054B7E
:104F10005B78002B02D1FFF731FC10BDFFF72EFCB0
:104F2000FBE7C046B80B0020F0B5D6464F464646D4
:104F300082469020C0B5012286B0C0058946042172
:104F4000FDF71AFB902000221021C005FDF714FB8D
:104F5000902001221021C005FDF70EFB01255246CD
:104F600090202A400421C005FDF706FB9020002276
:104F70001021C005FDF700FB902001221021C00583
:104F8000FDF7FAFA53462A0090205C0822400421DB
:104F9000C005FDF7F1FA902000221021C005FDF7B1
:104FA000EBFA902001221021C005FDF7E5FA5346E7
:104FB00090209A08A41804212A40C005FDF7DCFAC5
:104FC000902000221021C005FDF7D6FA9020012282
:104FD0001021C005FDF7D0FA53462A009020DF08C3
:104FE0003A400421C005FDF7C7FA902000221021A5
:104FF000C005FDF7C1FA902001221021C005FDF780
:10500000BBFA2A0090205444E41922400421C00530
:10501000FDF7B2FA902000221021C005FDF7ACFA8E
:10502000902001221021C005FDF7A6FA9020002251
:105030000421C005FDF7A0FA902000221021C00530
:10504000FDF79AFA902001221021C005FDF794FA8D
:10505000902001220421C005FDF78EFA9020002245
:105060001021C005FDF788FA902001221021C0050B
:10507000FDF782FA1022002102A800F006FB0423AB
:105080009020019301A9013BC0050493FDF77CF931
:10509000D04B1C7E9846002C0ED090200022102170
:1050A000C005FDF769FA902001221021C005013CDE
:1050B000FDF762FA002CF0D1902000221021C005EB
:1050C000FDF75AFA90200421C005FDF74FFA0600BB
:1050D000902001221021C005FDF74EFA90200022F9
:1050E0001021C005FDF748FA90200421C005FDF706
:1050F0003DFA0400902001221021C005FDF73CFA82
:10510000902000221021C005FDF736FA90200421DE
:10511000C005FDF72BFA070090206400BD000122B6
:105120001021C0052C43FDF727FA3443012C00D190
:105130008BE00222A31E93432FD043461D7E2135D0
:10514000902000221021C005FDF716FA90200122C0
:105150001021C005013DFDF70FFA002DF0D100210F
:105160000C2203A800F091FA042390200193033B42
:10517000029301A90233C0050493FDF705F99020BD
:1051800001220421C005FDF7F7F9E4B2200006B0C2
:105190001CBC90469946A246F0BD43465B7E002B60
:1051A00012D053461A420FD0212590200022102100
:1051B000C005FDF7E1F9902001221021C005013D55
:1051C000FDF7DAF9002DF0D143461D7E002D0ED0FB
:1051D000902000221021C005FDF7CEF99020012279
:1051E0001021C005013DFDF7C7F9002DF0D10C22BB
:1051F000002103A800F049FA042390200193033B07
:10520000029301A90233C0050493FDF7BDF843469C
:105210005B7E002BB3D053469B07B0D49020002276
:105220000421C005FDF7A8F92125902000221021B6
:10523000C005FDF7A1F9902001221021C005013D14
:10524000FDF79AF9002DF0D199E753469B076BD5EE
:10525000202600270025902000221021C005FDF700
:105260008BF990200421C005FDF780F904009020FF
:1052700001221021C0053F196D08E407013EFDF72A
:105280007BF92543002EE6D1902000221021C00595
:10529000FDF772F990200421C005FDF767F90400BD
:1052A000902001221021C005FDF766F907237C40FC
:1052B000E407E4171C404B460134002B00D01D606E
:1052C00043461D7E002D0ED0902000221021C005E7
:1052D000FDF752F9902001221021C005013DFDF794
:1052E0004BF9002DF0D100210C2203A800F0CDF9DC
:1052F000042390200193033B029301A90233C005CC
:105300000493FDF741F853461B0602D5002342469D
:10531000936043461D7B002D5ED190200122042125
:10532000C005FDF729F931E743461C7E002C0ED05D
:10533000902000221021C005FDF71EF990200122C7
:105340001021C005013CFDF717F9002CF0D10C220B
:10535000002103A800F099F9042390200193033B56
:10536000029301A90233C0050493FDF70DF84B46E3
:105370001C6801232025002799464A469020224098
:105380000421C005FDF7F8F8902000221021C00587
:10539000FDF7F2F8902001221021C005013D3F19D0
:1053A000FDF7EAF86408002DE7D14A4690203A401C
:1053B0000421C005FDF7E0F8902000221021C0056F
:1053C000FDF7DAF8902001221021C005FDF7D4F88E
:1053D000012498E7B80B0020902000220421C0058A
:1053E000FDF7CAF8902000221021C005FDF7C4F88F
:1053F000902001221021C005013DFDF7BDF8002DD0
:10540000F0D18AE7F0B5C6460F0000B5451E00286A
:105410002CD0012300260024984618E04346013E84
:1054200023421CD0902001220421C005FDF7A4F8DE
:10543000902000221021C005FDF79EF89020012247
:105440001021C005FDF798F86408013D0ED3002E29
:10545000E4D143463C78072601372342E2D190202D
:1054600000220421C005FDF787F8E1E704BC90465F
:10547000F0BDC046F0B5D6464F4646463F24C0B5BF
:10548000044000D14034030648D5082391469A468B
:10549000902000221021C005FDF76EF89020042115
:1054A000C005FDF763F80600902001221021C00519
:1054B000FDF762F808235B4298465346651EA044F8
:1054C000F6011C1B6319002D20D090200022102112
:1054D000C005FDF751F890200421C005FDF746F8FE
:1054E0000700902001221021C0057608FF01013D30
:1054F000FDF742F83E434545E4D14B461E7001237B
:105500009C46E144002D04D02C00C1E7DE404B4610
:105510001E701CBC90469946A246F0BD88460126E6
:105520004346320090201D7804212A40C005FDF733
:1055300023F8902000221021C005FDF71DF89020CF
:10554000270001221021C005FDF716F86D08083F5D
:10555000013C002CDDD0320090202A400421C005FF
:10556000FDF70AF8902000221021C005FDF704F88D
:10557000902001221021C005013CFCF7FDFF6D08C1
:10558000BC42E6D101239C46E044002CC8D1C0E7D0
:1055900010B5054B5B78002B02D1FFF7C5FC10BDA1
:1055A000FFF7C2FCFBE7C046B80B00201348854656
:1055B00013480168090E134A914205D11248134954
:1055C000016013481349016013481449144A002329
:1055D00002E0D458C4500433C4188C42F9D3114AA1
:1055E000114C002301E013600432A242FBD3FDF70B
:1055F0001DF800F01DF8FAF759FEFEE7001800202C
:10560000040000001F00000018100240010000000C
:1056100000000140000000000000002068010020A0
:10562000A860000868010020F00B0020FEE70000E1
:1056300070B500260C4D0D4C641BA410A64209D178
:10564000002600F037FC0A4D0A4C641BA410A64249
:1056500005D170BDB300EB5898470136EEE7B300B3
:10566000EB5898470136F2E7A0600008A0600008F8
:10567000A0600008A4600008002310B59A4200D181
:1056800010BDCC5CC4540133F8E7030012189342F8
:1056900000D1704719700133F9E700000EB400B56E
:1056A0000B499CB01DAB02900690079104910948EC
:1056B000094904CB0591006802A9019300F070F834
:1056C0000023029A13701CB008BC03B01847C046F0
:1056D000FFFFFF7F040100200802FFFFF0B58E6886
:1056E00085B007000C00039201939E423CD89023A2
:1056F0008A89DB001A4234D00325096923685B1AC2
:105700000293636902985D43EB0F5D19019B6D1075
:1057100001331B18AB4200D91D00530532D52900B7
:10572000380000F019FB061E09D10C233B60402312
:105730000120A28940421343A38105B0F0BD029A23
:105740002169FFF799FFA389144A1A408023134364
:10575000A381029B2661F61826606561019EED1A01
:10576000A560019B9E4200D9019E320003992068EA
:1057700000F095FAA36800209B1BA36023689E1984
:105780002660DAE72A00380000F044FB061EE0D16C
:105790002169380000F096FAC7E7C0467FFBFFFF9B
:1057A000F0B59FB0029005938B890F0016001B0681
:1057B00011D50B69002B0ED1402100F0CDFA3860D5
:1057C0003861002805D10C23029A013813601FB0FC
:1057D000F0BD40237B61002306AC63612033637618
:1057E0001033A37635002B78002B01D0252B46D122
:1057F000AB1B04930CD0320039000298FFF76EFF08
:10580000431C00D1AEE06269049B9446634463612B
:105810002B78002B00D1A5E00122002352426260C8
:1058200002A9543252186E1C2360E360A360137007
:10583000A36531780522544800F026FA751C00282B
:105840001FD12268D30604D5532302A95B18202157
:105850001970130704D5532302A95B182B21197063
:1058600033782A2B16D0350000210A20E3682A78E5
:105870006E1C303A092A4ED9002918D010E00135A3
:10588000B1E7414B2268C01A0123834013432360D0
:105890002E00CEE7059B191D1B680591002B01DB2F
:1058A000099304E05B42E3600223134323602B78F7
:1058B0002E2B0AD16B782A2B35D1059B02351A1D68
:1058C0001B680592002B2BDB0793304E29780322AF
:1058D000300000F0D9F9002806D04023801B834017
:1058E00022680135134323602978062228486E1C5C
:1058F000217600F0C9F900283CD0264B002B25D199
:105900000722059B07339343083305936369039A82
:105910009B18636166E7434301219B183500A6E7A6
:1059200001235B42D0E700230A201A00013563609F
:1059300029786E1C3039092903D9002BC5D007926C
:10594000C3E74243012352183500F1E705AB00934A
:105950003A00114B2100029800E000BF0390039B26
:105960000133D3D1BB890B985B0600D42FE701200C
:1059700040422CE705AB00933A00074B2100029808
:1059800000F07AF8EAE7C0466C6000087260000830
:105990007660000800000000DD560008F7B515002D
:1059A00001938A680B6900900C00934200DA13009F
:1059B00022002B6043321278002A01D001332B6081
:1059C00023689B0602D52B6802332B6006272368C9
:1059D0001F4027D0230043331B785A1E934122686F
:1059E000920630D42200019943320098089EB047B5
:1059F000431C25D0062320682A68E168034000255F
:105A0000042B03D18D1AEB43DB171D40A3682269D9
:105A1000934201DD9B1AED180027BD4220D10020E2
:105A200010E00137E3682A689B1ABB42D2DD2200EE
:105A30000123193201990098089EB047431CF0D108
:105A400001204042FEBD3020E118433108702100A2
:105A50005A1C45310978A218433202331170C1E74C
:105A6000220001231A3201990098089EB047431C76
:105A7000E6D00137D1E70000F0B589B004920A0002
:105A800043320593039002920A7E0C000E9B6E2A0D
:105A900000D186E01FD8632A33D008D8002A00D16D
:105AA0008CE0582A4DD0250042352A7030E0642A17
:105AB00001D0692AF7D1196825680A1D280629D559
:105AC00008681A60002803DA2D23029A40421370F6
:105AD0006B4E0A274FE0732A74D008D86F2A1FD064
