:020000040800F2
:100000000018002081660008A1080008A508000863
:1000100000000000000000000000000000000000E0
:10002000000000000000000000000000A908000817
:100030000000000000000000AD080008B108000842
:100040000167000800000000016700080167000860
:1000500001670008016700080167000801670008E0
:100060000000000001670008016700080167000840
:100070000167000801670008016700080000000030
:100080000167000800000000000000000167000890
:100090000000000001670008016700080167000810
:1000A0000000000001670008000000000167000870
:1000B000C90800080000000000000000B90800089E
:1000C00010B5064C2378002B07D1054B002B02D02E
:1000D000044800E000BF0123237010BD6801002028
:1000E00000000000886F0008044B10B5002B03D0FF
:1000F0000349044800E000BF10BDC04600000000F6
:100100006C010020886F00080023C25C0133002AC4
:10011000FBD1581E70470000002243088B4274D365
:1001200003098B425FD3030A8B4244D3030B8B42F8
:1001300028D3030C8B420DD3FF22090212BA030C01
:100140008B4202D31212090265D0030B8B4219D3E2
:1001500000E0090AC30B8B4201D3CB03C01A524102
:10016000830B8B4201D38B03C01A5241430B8B424A
:1001700001D34B03C01A5241030B8B4201D30B0333
:10018000C01A5241C30A8B4201D3CB02C01A52415A
:10019000830A8B4201D38B02C01A5241430A8B421D
:1001A00001D34B02C01A5241030A8B4201D30B0206
:1001B000C01A5241CDD2C3098B4201D3CB01C01A20
:1001C000524183098B4201D38B01C01A524143092A
:1001D0008B4201D34B01C01A524103098B4201D318
:1001E0000B01C01A5241C3088B4201D3CB00C01A85
:1001F000524183088B4201D38B00C01A52414308FD
:100200008B4201D34B00C01A5241411A00D2014621
:10021000524110467047FFE701B5002000F006F894
:1002200002BDC0460029F7D076E770477047C04648
:1002300010B596B0282200210CA806F090FA1022E2
:10024000002101A806F08BFA1422002105A806F06F
:1002500086FA01230A930B9380235B021393802376
:1002600002245B030AA81294149302F0D3F8002826
:1002700000D0FEE7072303900490012101A8019319
:10028000029402F041FB002800D0FEE780239B028D
:100290000593802305A8099302F0F0FB002800D005
:1002A000FEE702F0FBFA16B010BDC046F0B5DE4620
:1002B00057464E464546E0B5002789B002F088FC17
:1002C000FFF7B6FF474B484C484D494E10220021DE
:1002D00004A827609B461F602F60376006F03FFA36
:1002E0008020444BC0035969014359615A69024057
:1002F00080200092009A596980020143596180214F
:100300005A69C90202400192019A5A6990200A432F
:100310005A615B69C0050B400293029BF32303A95A
:10032000039302F073FC022303A933480393049759
:10033000059702F06BFC00F069F804F085FE2F4B86
:1003400098462F4B9A46502399463368002B22D16A
:1003500030BF20E02B68072B20D8424623689B0142
:10036000D35C7E2B03D17F2123689B01D15420686D
:100370002168800189015144404404F043FE336800
:10038000013B33602B6801332B602368013323600A
:100390002368072B22D83368002BDBD18622194B28
:1003A00092009A582B68002BCFD04B46D75C002F79
:1003B000F8D15B461968402289015144114803F085
:1003C0004BFB5B465A461B68013313601368072BCF
:1003D00000D917602B68013B2B60DFE70023236007
:1003E000D9E7C04688010020840100208C0100204C
:1003F000180A0020001002400004004818060020DF
:10040000180800201C0A0020FEE7C04610B5124C58
:1004100000221249200002F057FE002819D110498D
:10042000200002F06BFE002810D10E49200003F0DE
:100430002BFB002807D1200002F06AFE002801D023
:10044000FFF7E2FF10BDFFF7DFFFF4E7FFF7DCFF88
:10045000EBE7FFF7D9FFE2E71C0A002000000020CD
:10046000840000207000002000B50D4B026883B0AE
:100470009A4201D003B000BD80200A4A0004D1692D
:100480000143D161D36900210340019300221F2061
:10049000019B02F081FD1F2002F0AAFDEAE7C046A1
:1004A000005C0040001002400100872310B59B0053
:1004B000ED31FF31C05802F047FE10BDCB005B1A92
:1004C0009B00C3181933FF331A68872310B59B00AC
:1004D000C05802F06DFE10BDCB005B1A9B00C31824
:1004E0009A6B872310B59B00C05802F09DFE10BD8B
:1004F000872310B59B00C05802F030FF10BDC046E6
:10050000836870B50400022B01D0FFF77DFF8725BB
:10051000AD000121605902F009FF605902F0E2FECE
:1005200070BDC046872310B504009B00C05802F080
:1005300001FFA369002B04D00621024A13690B4373
:10054000136110BD00ED00E0836910B50400002BBD
:1005500006D00621054A13698B431361FFF768FE35
:1005600087239B00E05802F0F1FE10BD00ED00E093
:10057000872370B5040019489B00C4500433E05031
:10058000174B036008234360063B8360036100232D
:100590008361C361036200F0C9FA002801D0FFF74C
:1005A00033FF8825AD00605918230022002101F097
:1005B000F3FB605958230022802101F0EDFB6059C4
:1005C00098230022812101F0E7FB6059D823002203
:1005D000012101F0E1FB002070BDC046400C00206D
:1005E000005C004088239B0010B5C05800F0ECFA76
:1005F000032802D8024B185C10BD0220FCE7C0465D
:10060000C06F000810B514001A0088239B00C05862
:10061000230000F0FDFA032802D8024B185C10BD3D
:100620000220FCE7C06F000888239B0010B5C0586B
:1006300000F06CFC032802D8024B185C10BD0220AD
:10064000FCE7C046C06F000888239B0010B5C05867
:1006500001F0E0FA032802D8024B185C10BD02201A
:10066000FCE7C046C06F000888239B0010B5C05847
:1006700001F02EFB032802D8024B185C10BD0220AB
:10068000FCE7C046C06F000888234AB29B00C358ED
:10069000002A07DBCA00511A89005B180B33FF33AD
:1006A000187870477F221140CA00511A89005B18E0
:1006B0002A331878F5E7C04688239B0010B5C05848
:1006C00000F08CFA032802D8024B185C10BD0220FF
:1006D000FCE7C046C06F000810B58824A40000598C
:1006E00000F0FEFD032802D8024B185C10BD02206A
:1006F000FCE7C046C06F000810B58824A40000596C
:1007000000F0CEFC032802D8024B185C10BD02207A
:10071000FCE7C046C06F0008004870479001002009
:100720007047C046122301480B8070471C00002010
:10073000042301480B80704730000020013A30B597
:10074000D4B264008A1CA418002506E030330B7074
:100750004D70023100018C420AD0020FD3B2092A37
:10076000F4D937330B704D70023100018C42F4D153
:1007700030BDC0461A2370B50B800C4B18680C4B6B
:100780001B68C018002802D10A4C200070BD094C1B
:10079000094BA11C08221D68FFF7D0FF210004228D
:1007A00012312800FFF7CAFFEFE7C046ACF7FF1F82
:1007B000B4F7FF1F34000020B0F7FF1F10B5044C42
:1007C0000A000448210002F0EFFF200010BDC046DF
:1007D000600E0020F06F000810B5044C0A000448B9
:1007E000210002F0E1FF200010BDC046600E002095
:1007F0000070000810B5044C0A000448210002F003
:10080000D3FF200010BDC046600E0020C46F00085A
:1008100010B5044C0A000448210002F0C5FF200076
:1008200010BDC046600E0020D86F00080022024BA9
:1008300000201A607047C046E80100200020704781
:100840008623124A9B00D15870B50B78072B19D01C
:100850000F4C2368072B01D9002070BD0D4D0E4BA6
:10086000286840228001C01805F070FF2B68013312
:100870002B602B68072B01D900232B6023680133E1
:100880002360E9E70122054B1A70E5E71C0A002006
:10089000180A0020E801002018060020041000209B
:1008A0007047C046FEE7C0467047C0467047C04626
:1008B00010B502F09DF910BD10B5024800F01EFE03
:1008C00010BDC046400C002010B5024801F0FEFCEF
:1008D00010BDC046600F002001220C4B82B0996908
:1008E0001143996199690A4080210092009ADA695E
:1008F00049050A43DA61DB69054A0B40102101937F
:10090000019B13680B43136002B070470010024054
:100910000000014010B5040088B01422002103A893
:1009200005F01DFF164B22689A4201D008B010BD99
:100930008022144B9202D96990201143D961D96960
:10094000C0051140019101995969114359615B69D1
:1009500003A91A400292029B08230393063B0493C7
:1009600001330693023B079302F050F90022002165
:100970001C2002F011FB1C2002F03AFBD6E7C04617
:100980000044004000100240094B026810B59A4232
:1009900000D010BD9020074A0749D369C0050B401D
:1009A000D361082102F024FA1C2002F02DFBF0E7AD
:1009B0000044004000100240FFFFFDFF0020704790
:1009C000002300B5064883B0019301F0BDFA222848
:1009D00003D10222019B13430193019803B000BD90
:1009E000600F002010B5034801F0F6F9431E98414E
:1009F000404210BD600F002004210A4B0A4A10B586
:100A0000596180211A6000225860090218009A601A
:100A1000DA601A619A61D9611A625A6201F0A8FB20
:100A200010BDC046600F002000440040054B10B5CB
:100A3000186096200002FFF7DFFF431E98414042F6
:100A400010BDC046EC01002010B58AB20100034879
:100A500001F0DEF9431E9841404210BD600F0020B6
:100A60006A22054B00209A5C222A04D15821383290
:100A70009A5A585A801A7047600F0020FF2310B509
:100A800018400C00162816D019280DD0012802D0C5
:100A90000120404210BD0F4801F09EF90028F7D117
:100AA0002000FFF7A9FF02E00A4801F019FA431EEF
:100AB00098414042EEE7074B01211B681A68002C61
:100AC00003D18A431A600020E4E70A431A60002039
:100AD000E0E7C046600F0020034B10B51B68002BF9
:100AE00001D00220984710BDEC0100200123C26E06
:100AF00010B51340C26E5B02520702D5802252002D
:100B00001343C26E120701D5202213432221C26E65
:100B1000114201D080221343034A1268002A01D0F7
:100B20001800904710BDC046EC01002070B5041EAF
:100B300045D0EA23FF33C35CDBB2002B39D0EA2374
:100B400003226068FF33E25400281DD023000021F7
:100B5000012500222833197001315D70DA70DA60E6
:100B60001A615A611C338142F5D123000020002212
:100B70000933FF33187001305A70DA70DA601A6185
:100B80005A611C338842F5D1402201212368442058
:100B900099520021995219520C30195209490020DA
:100BA000995200222423E254EA230122FF33E25423
:100BB00070BDF42252008354FFF756FCBFE70120BA
:100BC000F6E7C04600BFFFFF5822016880208B5A1D
:100BD000000203438B5200207047C046F4235B00A1
:100BE000C25C012A11D00122C254002907D024235B
:100BF000C154F42300225B00C254002070479D3B87
:100C00000168FF3B7F32CA52F3E70220F6E7C04695
:100C1000F0B5C6467F264DB200B50E40002D00DA75
:100C2000B2E0CC00611A89000931FF314118CB7064
:100C3000F423ED0F0E704D70CA605B00C45C012C94
:100C400000D135E10124C454CC780368012C00D1D3
:100C500038E1002C00D10CE1022C00D12AE1032C58
:100C600000D1FBE00C789D4DA446A6009E19348867
:100C7000A8462C4065469A4F2F433C4334808C7ADB
:100C8000002C28D101270C788E88E400A4464C78EB
:100C9000BE43002C00D1B0E050229C5A80221C1987
:100CA000D20064449446644426800A7892009A18DC
:100CB0001488650600D5E7E08A4D2C4020256C405D
:100CC000874D2C431480F42300225B00C254002083
:100CD00004BC9046F0BD50270A78834E92009A18C3
:100CE00014882640814C344314800A78DC5BD2009F
:100CF00012198024E400A4460126CC88D21862444C
:100D0000B44314800A78DC5BD2001219784CD218F4
:100D1000A4460C896244B44314804A78002A39D12D
:100D20000A7894001C192688750405D54546354077
:100D3000704E354325800A7894001C1925886E066C
:100D400005D5664A15406C4A154325800A789200FD
:100D50009A181488614D2540674C2C4314800A78FA
:100D6000664D92009A1814882540C024A4016C4056
:100D70005B4D2C4314800A785A4992009B181A88BC
:100D80000A4015431D809EE7F100891B8900283128
:100D900041184CE70A78454692009A1814882600B4
:100DA0002E40650409D54546524C264316800A78E4
:100DB00092009A18148825402E00640608D54E4CDF
:100DC000264316800A78454C92009A1816882640C9
:100DD000484C444D264316800A7892009A1814888D
:100DE0002C403F4D2C4314800A78444992009B18B4
:100DF0001A880A4015431D8065E750255C5B1C1965
:100E00006444A0463A4CA4464446644426800C7888
:100E10005D5BE40064193A4D5D1964193E2A3DD8C2
:100E20005508174200D00135AD0225800A7892009E
:100E30009A181488650408D5284D2C402D4D2C4354
:100E400014800A7892009A1814882C4B1C40C023F6
:100E50009B016340224C1C43148034E70C78294EDC
:100E6000A4001C1925882E40C025ED00354325809F
:100E7000F8E60C78234EA4001C1925882E40802506
:100E8000AD0035432580EDE6454625401A4C254307
:100E900015800A7892009A1814880DE75509D20631
:100EA00001D1013DADB2184AAD0215432580BDE721
:100EB00002200DE70C78134EA4001C19258835403C
:100EC0002580CFE60C780F4EA4001C1925882E40F3
:100ED0008025ED0035432580C4E6C0460F0F000095
:100EE0008080FFFFBF8FFFFF0F0E00008081FFFF9C
:100EF0000404000080C0FFFFC080FFFF8FBFFFFF22
:100F0000060400008F89FFFF0080FFFF7F22F0B5FD
:100F10004CB20A40002C5FDBCB00591AF423890045
:100F20000931FF314118E40F0A704C705B00C25C5C
:100F3000012A5ED00122C2548B7A0468002B14D19E
:100F40000B784E789A00A2181588002E53D06B06A5
:100F500000D58FE04C4B1D404C4B1D431580F423B6
:100F600000225B00C2540020F0BD80250B784F7832
:100F70009E00A6193288ED011540002F4CD1002D9E
:100F800005D0434B1A40434B1A4332800B789A00EA
:100F9000A21815886E0605D53D4B1D403E4B1D43DE
:100FA00015800B789A00A2181388394D1D403A4BD2
:100FB0002B4313800B78394D9B00E3181A882A4085
:100FC000324D2A431A800B782F499B00E3181A8868
:100FD0000A4015431D80C2E7F423D100891A890015
:100FE00028314118E40F0A704C705B00C25C012A82
:100FF000A0D10220B8E76E0405D5254B1D40254B36
:101000001D4315800B789B00E3181A882349114073
:101010001E4A0A431A80A2E713001D4F3B40002DD1
:1010200008D01C4A134333803B000E78B600A61943
:1010300032881340520608D5174A134333800E787E
:10104000134AB600A61933881340124A0E4D1343B3
:1010500033800B789B00E3181A882A400B4D2A43F3
:101060001A800B780D499B00E3181A880A40154333
:101070001D8074E7064B1D40074B1D4315800A7801
:101080009200A218158865E7BF8FFFFF8080FFFFE1
:101090000F0F000080C0FFFFC080FFFF8FBFFFFF6A
:1010A000F0B57F24D6464F4646462140CC00A246A6
:1010B000641AA4000419C0B5260027001936FF36AB
:1010C000326000222137FF37043633603A60173F21
:1010D0003A701534013F3970FF342468A3423ED979
:1010E0001B1B3360892553466D00AC465A1A92008B
:1010F000821894441700654609372D78FF37066833
:101100003B78002D2ED15022B75ADA006F4BD219FE
:10111000F318D2183E2C00D882E063099BB2E40693
:1011200001D1013B9BB26A4C9B022343138053467F
:10113000591A890040180930FF3003789B00F318D2
:101140001988644A00201140C02292015140624A2D
:101150000A431A801CBC90469946A246F0BD3260F4
:101160001C00BFE70A32FF321578AC46002D36D19D
:101170005022B25ADB009B18584AB2189B183E2CDA
:101180005ED91F272740BC466546620992B2170008
:10119000002D01D1571EBFB24D4DBF022F431F80FE
:1011A00053465F1ABF00C7193B000A33FF331B7851
:1011B0009846002B6FD150230937FF37F45A3B78FC
:1011C000DB001B19414C34191B196446002C01D15A
:1011D000013A92B294023E4A22431A8028E0012D3D
:1011E000ACD14F35A946755BDB00A8463B4D434467
:1011F000A8469B1943441C8013789846002B4AD17B
:101200004B46F25A3B78DB009B18304AB2189B18C9
:101210003E2C56D91F22224064099446A2B2D4E73C
:1012200063089BB2E40701D501339BB29B02138094
:101230005346591A890040180930FF3003787DE77A
:101240000127620892B22740944602D0551CADB2E5
:10125000AC466546AD021D800A255346FF35AC46B7
:101260005B1A9B00C3189C4465462D78A846002D48
:1012700011D15024345B0933A446FF331B78134C3F
:10128000DB00634434191B19002F01D0013292B2E4
:1012900092021A80CCE753464246591A89004018F8
:1012A0000930FF300378012A00D047E74F32B25AA5
:1012B000DB00F3189B18054A944663441C800378AE
:1012C0003CE7674627406408A2B2DDE70604000059
:1012D0000080FFFF8FBFFFFF8080FFFF0204000040
:1012E000F0B57F244746CE462140CC00651AAD00BC
:1012F000451980B5AA632A00002601272932EB632D
:101300002E64013A577011706A6B934200D894E0D2
:101310009B1AEB638023DB009846631A9B00C71877
:101320003B00160432330568360C1B78013676080C
:10133000A844002B32D1BB6BBF8D92B29446474478
:10134000002E0CD0FA1A904676009E195A781F7813
:1013500012023A434746DA5302339E42F6D15023F3
:10136000611A890040182830EA5A0378DB009B187C
:101370005A4AEB189046624643441A8003789B0011
:10138000EB181A88564900200A4030214A40554936
:101390000A431A800CBC90469946F0BD3B002833A6
:1013A0001B7899463B004F46BF007F5B29331B7873
:1013B0007F0645D5002B5ED14F465033EB5AFF00D8
:1013C000FF18494BEB18FF183E2A00D87DE053095F
:1013D0009BB2D20601D1013B9BB2444A9B0213430C
:1013E0003B80631A9B00C3181A8E631A9B00C318B4
:1013F0009B6B4244002E0CD0D21A944676009E1964
:101400005A781F7812023A436746DA530233B342DE
:10141000F6D1611A89004018030028302933197861
:1014200003789B00EB181A88002940D00129A9D124
:101430002F490A402F490A439FE7EE631A0069E7E4
:10144000002B26D14F465033EB5AFF00FF18234B99
:10145000EB18FF183E2A2FD953099BB2D20601D1AF
:10146000013B9BB2214A9B0213433B80631A9B00C2
:10147000C318DA8DB9E7012BB3D14F33EB5A1A4FAA
:101480009C464B46DB006344BC465B1963441A80B0
:10149000A7E7012BEAD14F33EB5A104F9C464B463E
:1014A000DB006344BC465B1963441A80DEE71049E5
:1014B0000A4011490A4360E753089BB2D20701D59D
:1014C00001339BB29B023B80D0E753089BB2D2070B
:1014D00001D501339BB29B023B8082E702040000EE
:1014E000BF8FFFFF8080FFFF060400000080FFFF2A
:1014F0000F0F000080C0FFFFC080FFFFF0B5454622
:10150000DE4657464E464422E0B5036887B09A5AF5
:10151000050012B2002A00DA6CE04422995A49050B
:101520004BD44422995A490403D5995AC6480140DC
:1015300099524422995A890403D5995AC3480140C3
:10154000995244241A5BD20427D44422995A09059B
:1015500010D5995ABE480824014099524021585A42
:10156000204304245852585A204358529A5AD204BD
:1015700000D489E14422995A890532D44422995AE7
:10158000C90503D5995AB3480140995207B03CBCEC
:1015900090469946A246AB46F0BD40220420995A97
:1015A00081439952AC4928009952FEF7CDFF2B6830
:1015B000AA491A5B0A401A53C7E7995AA84801403A
:1015C00099522800FEF79CFFF4225200AB5C012BDD
:1015D00000D1EAE14C2180202B6858520021A95407
:1015E0009FE7995A9F48014099522800FEF780FFD3
:1015F0002B68C3E7002204A9CA8044329146353AD9
:1016000093464A469A5A04A992B28A8012B2002A94
:1016100000DB82E704AA94885A46144046D104AA03
:101620009288D20600D4E1E01A8804A9CA80C98849
:10163000090500D57EE104A9C98809B20029E0DACC
:1016400089492C000A401A805022995AB832AA5C63
:101650000934D20052188549D2188C466244178842
:10166000FF34BA05920DA26100D082E20021280069
:10167000FEF724FF50222B687C499A5A59188A1881
:10168000E1683E2900D90DE2480880B2C90701D5BA
:10169000013080B2800210801988754A1140C02242
:1016A00092015140734A0A431A80AAE7A60098198A
:1016B000018804AAD180D28812B2002A4FDB80218F
:1016C00004AAD28811429CD09E1932886A490A40E5
:1016D00032806A4A9E18E200111B890069180800CE
:1016E00032300078002800D1D3E00800283000789C
:1016F000C7008000C05A400600D458E15020185A54
:101700003018C05B8005800D086400D059E2111BC1
:101710008900691828310978594F890059180888B3
:1017200007405848384308805021141BA4002C1946
:10173000585A210028310B78DB001B189A5BA36BE9
:1017400092059C46920D2264E36B6244A263097881
:101750002800002B74D1FEF7BFFE2B6851E7424AE8
:101760001140E2000180111B890069180800133044
:10177000FF300078002800D0B6E050301F5A080033
:101780000930FF300078C000C019384FC018BC467F
:101790006044008880468005800D844667460020AE
:1017A000002F00D0B1E1171BBF00EF193A00213222
:1017B000FF3213681B1813603B001933FF331A689C
:1017C00012181A6004331B68002B00D11AE139008B
:1017D0001537FF3709313F68FF310978874200D854
:1017E0008EE12800FEF76AFE2B6868E71A88224916
:1017F00028000A401A805022995A283AAA5CD2003E
:101800009B181E4A5B189446AA6B634494461B8837
:1018100000219B059B0D2B646344AB63FEF75CFECC
:101820002422AB5C002B0DD0E96B2B68002900D083
:10183000E7E68024A85C2043343C1853A954E0E632
:10184000FFF74EFD2B68DCE6FFBFFFFFFFDFFFFF6A
:10185000FFF7FFFFFFFEFFFF00BDFFFFFFEFFFFFF2
:10186000FFFBFFFFFFFDFFFF8F0F000006040000DE
:101870008FBFFFFF8080FFFF0F8FFFFF020400007C
:101880000F0F000080C0FFFF2800FEF74BFE2B6803
:1018900070E650301F5A080028300078C000C01988
:1018A000805B8005800D086400D13DE78F6B898DDA
:1018B000013088468021C9008C46414640084000DE
:1018C00061448446C918BC44C91B604690469C4686
:1018D0000B0079783A7809021143F95202378742AE
:1018E000F7D1634642461FE708000930FF30007811
:1018F0008700B846984447463F88C000BA467F04F0
:1019000000D483E05027DF5BDF193818BB4FBC469B
:101910006044008887058446BF0D0020002F00D05A
:10192000CBE05146B64B19400B00B6490B4341463C
:101930000B8038E75022995AB832AA5C2F00D200A7
:101940005218B149D2188C4662441288063996055D
:1019500094462A0088460932B60DFF329661928875
:10196000ED374244FF377608D318002E0ED03900E9
:10197000340018000288013C0A70120A4A700230D2
:101980000231002CF6D176009B19BF196246D207AE
:1019900001D51B883B702A689C49138828000B409E
:1019A0001380FEF781FD2B682BE62B68B9E55020EC
:1019B000185A1818C019944FBC4660440088800516
:1019C000800D086400D1A2E68F6B098E0130884635
:1019D0008021C9008C46414640084000614484464D
:1019E000C918BC44C91B604690469C460B007978D8
:1019F0003A7809021143F95202378742F7D1634618
:101A0000424684E60937FF373978EAE65027DF5B3C
:101A1000DF1938187C4FBC4660440088870584462F
:101A2000BF0D0020002F00D17BE708001131FF31EE
:101A30000988193001918021C9008A46FF30019937
:101A4000006851448046CB1878080290019314D066
:101A5000039041461800401A92460200039B505AD8
:101A6000013B0870000A48700231002BF7D1524642
:101A7000029B5900019B88445B1861463800C907E6
:101A800002D541461B880B702968131B88469B00B2
:101A9000EB180933FF331B789B00984443461B889F
:101AA0009A463EE7480980B2C90601D1013880B2A2
:101AB0005749800208431080EEE508000F31FF31DE
:101AC0000988193001918021C9008A46FF300199A7
:101AD000006851448046CB18780802900193CCD01E
:101AE000039041461800401A92460200039B505A48
:101AF000013B0870000A48700231002BF7D1B6E7AD
:101B00002800FFF7CDFA2B68D9E508000D31FF3129
:101B10000988193002918021C900FF308A46076880
:101B20006046029940085144CB1801970390190070
:101B3000002815D039000700581A9A460300585A51
:101B4000013F0870000A48700231002FF7D1534658
:101B5000039948001918019B9A4682445346019301
:101B600043466046DB0700D41DE60B8801990B70E5
:101B700019E6216952088C468021C9008A469046A0
:101B8000A2885244D3184246002A0FD061464646E6
:101B900018000288013E0A70120A4A7002300231AF
:101BA000002EF6D1424652009B189444FA0702D503
:101BB00062461B881370A2692369944663442361BB
:101BC00054E58F6BC98D013088468021C9008C4651
:101BD00041464008400061448446C918BC44C91BC2
:101BE000604690469C460B0079783A78090211438A
:101BF000F95202378742F7D101E7C04602040000DC
:101C00000F0F0000C080FFFF060400008F0F0000D0
:101C10000080FFFFF42330B55B00C25C012A4AD08C
:101C20000125C5546A3BFF3B4AB20B400468002AB9
:101C300029DBCA00511A890041180A000B32FF3211
:101C40001570023A137000220A31FF310A70002B1E
:101C50000DD12288194B1A40194B5A40194B134386
:101C60002380F42300225B00C254002030BD9B007F
:101C7000E3181988144A1140802252015140114A38
:101C80000A431A80EDE7DA00D21A92008218110096
:101C90002A310D70293202390B701570002BD8D003
:101CA0009B00E4182288094B1A4010235A40054B28
:101CB0001A432280D5E70220D8E7C046BFBFFFFF06
:101CC000101000008080FFFF8FBFFFFFBF8FFFFF5E
:101CD00030B57F244AB20C40002A49DBCB00591AA8
:101CE00089000931FF3141180023D20F8B70E9338D
:101CF0000C704A70FF33C25C012A3FD00122C254EB
:101D00004B780468002B1CD10B789B00E3181A88D1
:101D1000550408D51A4D2A401A4D2A431A800B78CB
:101D20009B00E3181A8818490A40C02189015140D4
:101D3000164A0A431A80F42300225B00C254002092
:101D400030BD0B789B00E3181A88550608D50C4D5A
:101D50002A400F4D2A431A800B789B00E3181A88FB
:101D60000C490A4030214A4008490A431A80E2E7F8
:101D7000E100091B890028314118B5E70220DFE79F
:101D80000F0F000080C0FFFF8FBFFFFF8080FFFFAD
:101D9000C080FFFFBF8FFFFF10B50C0610D57F245A
:101DA0002140CC00611A89002831401899B2002ADC
:101DB0000FD001221B0C8272C1800381002010BD54
:101DC000CC00611A89000931FF31401899B2002A0C
:101DD000EFD182728180F1E770B504000120002C00
:101DE00014D0692624230025A35523681A6882434A
:101DF0001A6020001D605D609D60FEF7C5FD6A23CE
:101E00000020E566A555E554023BE55470BDC0468B
:101E100003006A2070B51C5C6838202C2DD1002985
:101E20002CD00138002A28D080259C686D01AC4256
:101E300026D068255E5D012E4DD058555965582134
:101E40005A5202315A52002C2CD11A69002A3ED122
:101E50005C22FF21995200226A212220DA6658541E
:101E600002395A541B6867399A6800200A439A60FD
:101E70009022196852000A431A6070BD0120FCE7E5
:101E80001C69002C19D10142F7D16820185C012887
:101E900021D0596558215A5202315A525C220F49B9
:101EA0009952D8E7802252059442D4D11A69002A67
:101EB0000DD05C223F219952CDE76820185C0128A3
:101EC00009D0596558215A5202315A52C0E75C2252
:101ED0007F219952BFE70220CFE7C046FF010000F3
:101EE000036812491A6810B50A401A609A682331CB
:101EF000FF318A439A604022996804000A420AD05E
:101F00009968406E91439960002804D00023436390
:101F100001F008F823685A220021A1524B3A1A62B4
:101F20006A2311320020E25410BDC046DFFEFFFFDD
:101F30007047C04600235A2210B5406A8352083ABF
:101F40008352FEF7D3FD10BD6A226923C35C805C17
:101F50001843704770B504000568C169836800695B
:101F60002A6803436069034344480B430240134318
:101F70002B606B68424A206A1340E26813436B602F
:101F8000A369AA6803433F4802401343AB603E4B3A
:101F90009D4219D03D4B9D4205D080231B029942A2
:101FA0002AD0012070BD80231B02994234D000F05A
:101FB00055FD616824684B081818FEF7ADF8000459
:101FC000000CE0600020EDE7314B1A6B0323134057
:101FD000304AD35C80221202914211D0022B34D0BD
:101FE00047D9042B2BD0082BDBD1802361681B023F
:101FF00048082DE0002B0FD000230120EB60D1E733
:10200000022B2ED0F6D9042B1CD0082BF4D1802320
:1020100061685B02480827E000F020FD636840002B
:102020005B08C0186168FEF777F825680F22030780
:102030005B0F904303439BB20020EB60B2E700F0DC
:1020400037FCB6E700F034FCE8E76168124B48085B
:102050009C466044FEF760F80004000CE860002035
:10206000A0E761680D4B48089C466044FEF754F8B1
:10207000DCE7002B00D094E799E7C046F369FFEF57
:10208000FFCFFFFFFFF4FFFF003801400044004096
:10209000001002405070000800127A000024F40082
:1020A000436A30B5DA0706D50168284C4A682240F1
:1020B000846A22434A609A0706D50168244C4A681C
:1020C0002240C46A22434A605A0706D50168214C5F
:1020D0004A682240046B22434A601A0706D5016809
:1020E0001D4C4A682240446B22434A60DA0606D5FA
:1020F00001681A4C8A682240846B22438A609A06DF
:1021000006D50168164C8A682240C46B22438A6057
:102110005A060AD50168134D4A68046C2A402243C6
:102120004A6080225203944209D01B0606D50268F9
:102130000D4953680B40816C0B43536030BD4A68B6
:102140000A4C2240446C22434A60EEE7FFFFFDFF49
:10215000FFFFFEFFFFFFFBFFFF7FFFFFFFEFFFFF24
:10216000FFDFFFFFFFFFEFFFFFFFF7FFFFFF9FFF17
:1021700010B5041E31D06923C35CDBB2002B27D01D
:10218000692324220121E2542268200013688B4332
:102190001360FFF7DFFE01281FD0636A002B1ED1FA
:1021A000236811495A6800200A4008215A609A6839
:1021B0008A439A601A6807390A431A60202200236A
:1021C0006831E3666254013162544832A35410BD51
:1021D00068228354FEF79EFBD2E70120F7E7200038
:1021E000FFF75EFFDCE7C046FFF7FFFF692210B58F
:1021F000825C03000220212A14D13132995A1A68D4
:10220000002910D080209C68D96C4001844214D0F1
:10221000481CD86409781185522100205A5A013A85
:1022200092B25A5210BD136880318B431360136809
:1022300040390B4313600020F4E718690028E7D108
:1022400008880231C005C00D1085D964E4E7C04696
:102250006A2370B5C25C0368222A17D180249B8C44
:1022600085683A32825A9BB2416D6401A54213D00F
:102270004C1C134044650B705A22835A0024013BC6
:102280009BB28352002B0FD0200070BD08219A69A9
:1022900002240A439A61F7E70469002CE8D113404D
:1022A0000B8002314165E7E7036807491A680A4075
:1022B0001A609A682331FF318A439A606A23202288
:1022C000C254FEF709FCDFE7DFFEFFFF036870B5CD
:1022D000DA690400196810070FD1202010425AD182
:1022E00098688020104202D0084200D07CE0402054
:1022F000104201D0084267D170BD0125986828407E
:102300004FD00125154205D0CE0503D51D62E66EDE
:102310003543E566022515424BD0002806D0042639
:102320001D62E56E3543E566164246D1150703D5B5
:102330008D0653D4002851D1E06E0028DCD0202037
:10234000104201D0084257D1E26E120703D4402553
:102350009A68154055D01A682C490A401A609A6844
:102360002331FF318A439A606A221F31A1549A684F
:10237000203111423CD09A68606E8A439A600028EE
:1023800036D0234B436300F0E3FD0028B4D0606EE9
:10239000436B9847B0E70842A2D02000FFF758FFF0
:1023A000AAE790256D0029429BD001251542B1D0A6
:1023B000AAE75507BAD50028B8D0042502261D6221
:1023C000E56E3543E566B1E71A6882431A60692312
:1023D00020222000E254FFF7ABFD8DE708251D62A7
:1023E000E06E2843E066A7E72000FFF7FFFE83E7E3
:1023F0002000FEF77BFB7FE72000FFF729FF236823
:10240000A2E72000FEF772FBE56675E7DFFEFFFF3F
:10241000351F0008F0B5CE46474680B5036883B047
:102420000400DA072FD50C21C44842680A40042A68
:1024300000D1DFE042681140082900D1D1E0636893
:10244000012B00D110E1002B00D143E1052B00D17D
:1024500010E2BA4BBA491A680A401A601A68B949B8
:102460000A401A6000F0CCFB80250700B34EAD0295
:1024700005E000F0C5FBC01B642800D928E13368E3
:102480002B42F6D023689A0729D50C22AB4948681D
:10249000024200D1C2E048680240082A00D1B4E0FC
:1024A000E368A64D002B00D154E101222B680226DF
:1024B00013432B6000F0A4FB070005E000F0A0FB35
:1024C000C01B022800D903E12B681E42F6D0F82178
:1024D0002A6823698A43DB0013432B6023681A07A9
:1024E0002BD45A0743D58022944B5205D969002535
:1024F000114207D1D96901351143D961DB691A400D
:102500000192019B8026904F76003B68334200D1B8
:10251000B1E0A368012B00D1BEE0002B00D1F2E0B6
:10252000052B00D147E10121844B1A6A8A431A62C4
:102530001A6A03318A431A62B2E0E3697F4D002BC5
:1025400000D17EE001226B6A022613436B6200F029
:1025500057FB070005E000F053FBC01B022800D921
:10256000B6E06B6A1E42F6D023685A07BBD4DB067E
:1025700012D56369012B00D15EE1053300D0FCE088
:102580000421F8206D4A536B8B435363516BA3694D
:102590008143DB000B435363236A002B1BD00C22C7
:1025A000664D69680A40082A2DD0022B00D10CE143
:1025B0002B68664A802413402B6000F021FBA404A2
:1025C000060005E000F01CFB801B022800D97FE01C
:1025D0002B682342F6D1002003B00CBC90469946EC
:1025E000F0BDC021426849020A40802149028A4266
:1025F00000D024E7514A1268920300D443E762688E
:10260000002A00D03FE70120E6E74A68C0214902DE
:102610000A40802109028A4200D041E7474A1268F5
:10262000920702D5E268012AEDD1F82543482269D4
:102630000168D200A9430A4302601A0700D450E798
:102640007BE701226B6A022693436B6200F0D8FAA3
:10265000070004E000F0D4FAC01B022838D86B6AE7
:102660001E42F7D1236880E78023344A5B02116859
:102670000B431360F6E63B6833433B6000F0C0FA5F
:10268000804605E000F0BCFA4346C01A64281FD813
:102690003B683342F6D03CE728490A6A13430B6291
:1026A00000F0AEFA2A4B8146244F0226984605E0F8
:1026B00000F0A6FA4B46C01A404509D83B6A1E42B4
:1026C000F6D0012D70D02368DB0600D464E750E714
:1026D000032081E7194D1A4A2B68802613402B608E
:1026E0002B68184AB60213402B6000F089FA0700E5
:1026F00004E000F085FAC01B6428E9D82B68334257
:10270000F7D12368BFE601220C4E0227336A9343B8
:102710003362336A03329343336200F071FA0C4B35
:102720008146984605E000F06BFA4B46C01A4045DA
:10273000CED8336A1F42F6D1C3E7C046001002402C
:10274000FFFFFEFFFFFFFBFF00700040FFFFFFFEEB
:102750008813000001222B68022693432B6000F0AF
:102760004FFA070004E000F04BFAC01B0228AFD874
:102770002B681E42F7D12368B1E60422434D02269E
:102780006B6B13436B636B6B033A93436B6300F0A8
:1027900037FA070004E000F033FAC01B022897D88C
:1027A0006B6B1E42F7D1F7E6384A3949D3690B40C3
:1027B000D361236888E70421344B1A6A0A431A62FA
:1027C0001A6A03390A431A626AE72B68314A80267B
:1027D00013402B6000F014FAB604070005E000F087
:1027E0000FFAC01B022800D972E72B683342F6D1DA
:1027F0000F22EB6A9343E26A1343EB62616AA36AB6
:102800006A680B43244980240A4013436B60802389
:102810002A685B0413432B6000F0F2F91B4D06009D
:10282000A40405E000F0ECF9801B022800D94FE772
:102830002B682342F6D0CEE60421144D02266A6BA3
:102840000A436A636A6B13436B6300F0D9F90700AC
:1028500005E000F0D5F9C01B022800D938E76B6B02
:102860001E42F6D0F8216A6BA3698A43DB0013434A
:102870006B6391E68022054BD20219680A431A6005
:102880008022196852020A431A60EBE500100240E8
:10289000FFFFFFEFFFFFFFFEFF7FC2FF8023034A22
:1028A0001B0311680B4313607047C04600100240C1
:1028B00070B588B06946114B0A00180070C870C224
:1028C00000681033106004AA100070CB70C01B6841
:1028D0000B4C03600C2063681840082802D009489C
:1028E00008B070BDE06A0F249B0C23400440CD5C0F
:1028F0000448115DFDF710FC6843F1E7A06F000884
:102900000010024000127A00F8B5CE464746012377
:102910000C00494980B50A6805001A40A2420CD251
:102920000A689A4322430A600A681340A34204D00B
:1029300001200CBC90469946F8BD2B689A0706D535
:10294000F0203E494A688243A86802434A60DB0798
:1029500024D53A4B6A681B68012A48D0022A43D022
:102960009B07E5D50321354E73688B431343736092
:1029700000F046F96B680700012B3DD0022B4BD0CD
:102980000C2398462E4B994604E000F039F9C01B01
:1029900048452FD8424673681A42F6D10121264A8B
:1029A00013680B40A34205D913688B431360136867
:1029B0001942BDD12B685B0706D5204A21495368CF
:1029C0000B40E9680B435360FFF772FF1B4B1E4A35
:1029D0005B681B061B0FD35CD8401C4B18600020A3
:1029E00000F0E4F80020A4E79B01BBD4A0E79B0320
:1029F000B8D49DE703209CE70B339846104B9946CB
:102A000004E000F0FDF8C01B4845F3D84246736867
:102A10001340042BF5D1C1E70A339846084B994679
:102A200004E000F0EDF8C01B4845E3D84246736867
:102A30001340082BF5D1B1E70020024000100240FE
:102A400088130000FFF8FFFF54700008800000208A
:102A5000014B18687047C04680000020044B054AAF
:102A60005B685B055B0FD35C034A1068D840704716
:102A7000001002406470000880000020F0B5CE46CF
:102A8000474680B5036883B00400DA0336D5802258
:102A9000404B5205D9690027114207D1D969013746
:102AA0001143D961DB691A400192019B80263A4D9E
:102AB00076002B68334242D0C021364D89002A6A05
:102AC00060680A4011D0014091420ED08022296AEC
:102AD0002E6A520232432A622A6A304B304E0B4031
:102AE00032402A622B62CB0742D42A4A2B49136A0E
:102AF0000B4003431362012F32D02368DA0706D557
:102B0000032024490A6B8243A06802430A639A06A1
:102B100006D510201F490A6B8243E06802430A630E
:102B200000209B0306D580211A4A136B8B43216931
:102B30000B43136303B00CBC90469946F0BD2B6861
:102B400033432B6000F05CF8804605E000F058F855
:102B50004346C01A642809D82B683342F6D0ABE745
:102B6000D36910490B40D3612368C7E70320E1E72D
:102B700000F046F80C4B80460226994605E000F02E
:102B80003FF84346C01A4845F0D82B6A1E42F6D09B
:102B90006068AAE70010024000700040FFFCFFFFE1
:102BA000FFFFFEFFFFFFFFEF8813000010B50400DA
:102BB000FFF74EFFFA218900FDF7AEFA00F034FA74
:102BC000012000222100404200F0E6F9002010BD63
:102BD0001021064A10B5136800200B431360FFF75D
:102BE000E5FFFDF779FE002010BDC0460020024041
:102BF000024A1368013313607047C046D00F0020AB
:102C0000014B18687047C046D00F0020F0B54E4603
:102C1000DE4657464546E0B58946096885B0002935
:102C200000D17EE06C4B00229B466C4B8A46984656
:102C30000125544695402C4000946ED04B4659686F
:102C400010230F009F430197022F00D170E003680B
:102C500056009C460323B3406446DB431C402700D8
:102C600003240C40B440A4463C0067463C43019F0B
:102C70000460013F012F00D877E0C5682B404D4626
:102C8000AD68B5402B43C36080235B05194244D037
:102C90005B4601245D4603260F279B6916402343AC
:102CA000AB61AB69B60023404D4CB740A4469024BD
:102CB0000393039B93089B0063449D68E405BD4315
:102CC000A0420ED0474FB84200D17CE0464FB842F8
:102CD00000D174E0454FB84200D178E00527B740F5
:102CE0003D439D604346009C1B68E543CC034ED4A6
:102CF00044462B40236063688C034FD444462B40EA
:102D00006360A368CC0250D444462B40A360E368C0
:102D1000890251D42B404146CB6053460132D34007
:102D200086D105B03CBC90469946A246AB46F0BD64
:102D300007260F241640B600B440D3089B00C318E2
:102D40001F6AA7434C462469B44026003E431E62D6
:102D500003235600B340DB4307681F40BC460327EC
:102D60000F40B74064462743076087684C461F40C2
:102D7000BC46E7686446B74027430124876047683C
:102D8000AF430D09254095403D43456075E7009CE4
:102D900023434446236063688C03AFD5009C2343E0
:102DA00044466360A368CC02AED5009C23434446EE
:102DB000A360E3688902ADD500990B43ABE7022716
:102DC000B7403D438DE70124B440254389E7032400
:102DD000B440254385E7C04600100240000401408E
:102DE000000001400004004800080048000C0048B2
:102DF000F0B5DE4657464E464546E0B583B000295D
:102E000067D001229446023290460C32002391464C
:102E100023E0394FB84263D0384FB84264D0384FBE
:102E2000B84265D00527A7403C00A64211D15646BE
:102E3000ED439468B4439460324C22682A40226087
:102E400062682A406260A2682A40A260E268154077
:102E5000E5600A000133DA403BD066460D009E4033
:102E60003540F6D047465C00A740FC43026822404C
:102E70000260DA089200871801973F6ABA4607276E
:102E80001F40BF00BB464F465A469740BB46574679
:102E90005A4697433A00019F3A6282684F46224061
:102EA00082604268B2434260C2681440C460164CFB
:102EB0009A08A24644461C40A400A74092005244EF
:102EC0009668BA463E409027FF05B842A1D100243B
:102ED000ABE703B03CBC90469946A246AB46F0BD7A
:102EE0006746A7403C00A0E70227A7403C009CE7BC
:102EF0004746A7403C0098E7000400480008004807
:102F0000000C004800040140000001400069084036
:102F1000411E8841C0B27047002A01D181627047CA
:102F20008161FCE70E21036810B51A68046C8A43BE
:102F30001A6001221968914319601100A140C36B06
:102F400059602123C2540022013BC254002010BD0D
:102F5000212370B5C25C022A03D01D3B836301208C
:102F600070BD0E240268056C1168A1431160012137
:102F700014688C4314600C00AC40C26B5460C154A4
:102F800000222023C254436B002B02D0984700201C
:102F9000E6E70020E4E7C046FF22032330B5140033
:102FA000C5B22B40DB009C4089010A40E4439A40B3
:102FB00000280BDB0C4B80089C46C023800060443B
:102FC0009B00C1580C402243C25030BD0F2307491B
:102FD0002B408C46083B9B089B006344D9690C40FE
:102FE0002243DA61F1E7C04600E100E000ED00E0D5
:102FF000002805DB1F2318401E3B8340014A136055
:103000007047C04600E100E000280ADB1F2318409B
:103010001E3B8340802203498B50BFF34F8FBFF389
:103020006F8F704700E100E00A4A431E012093427F
:103030000ED8C021084A09485360036A09061B02DA
:103040001B0A0B43036200230020936007331360C5
:103050007047C046FFFFFF0010E000E000ED00E019
:103060000121134B13481A680A431A605A68024038
:103070005A601A68104802401A601A680F480240E5
:103080001A605A680E4802400F205A60DA6A82437A
:10309000DA621A6B0B48024080201A631A6B0243F3
:1030A0001A635A6B8A435A6300229A607047C0467B
:1030B000001002400CB8FF08FFFFF6FEFFFFFBFF09
:1030C000FFFFC0FF6CFEFFFF10B5002814D0852362
:1030D0009B00C458002C01D00024C450002902D009
:1030E00084239B00C150FE2301215B00C154027068
:1030F000FDF73EFA002010BD0220FCE7002904D0B5
:1031000085239B00C150002070470220FCE7C04689
:1031100010B5FDF767FA002010BDC04685239B005F
:10312000C35810B5002B04D01B689847002800D165
:1031300010BD0220FCE7C046852310B59B00C35894
:103140005B689847002010BD82239B0070B5C518AE
:103150000400280000F00AFBFA2301225B00E25081
:10316000124BE25A163BE2501033E15CEA3BFF3B64
:103170000B40012B14D0002B0DD0022B06D07F2347
:1031800020009943FDF760FA002070BD290020005F
:1031900000F07AFAF8E72900200000F0EFF8F3E7F2
:1031A0002900200000F04EFAEEE7C0460E020000B3
:1031B00010B513000400002906D1FA2252008258EB
:1031C000032A0ED0002010BD85239B00C3589B69A5
:1031D000002BF7D0FE225200825C032AF2D19847DE
:1031E000F0E70530FF308168C268914210D885232E
:1031F0009B00E3581B69002B06D0FE225200A25C04
:10320000032A01D120009847200000F023FBD9E7D2
:10321000891A81608A4205D892B21900200000F014
:1032200011FBCFE70A00F7E7F8B504001300002907
:103230000BD1FA2252008258022A16D080239B001A
:10324000E25C012A0ED00020F8BD85239B00C35804
:103250005B69002BF7D0FE225200825C032AF2D178
:103260009847F0E70022E254EDE7C269056AAA42F6
:103270001ED8866929003000FCF7D4FF0F1E01D14B
:10328000B54222D985239B00E358DB68002B06D08A
:10329000FE225200A25C032A01D1200098472000A0
:1032A00000F0E4FA80239B00E25C012ACBD1D9E74D
:1032B000521BC261190092B200F0ACFA0023002246
:1032C00000212000FDF718FAB8E7FC256D006359CE
:1032D0009E42D7D200220021200000F09BFA6751C5
:1032E000ECE7C04670B54023002200210400FDF742
:1032F00089F9882340255B00E5500022D03B8021DE
:103300002000FDF77FF9FE2301225B002562E254D5
:103310001C33E358002B06D085239B00E35821790A
:103320005B6820009847002070BDC04601740020F3
:103330007047C046FE23FE225B00C15CFF32815411
:10334000FA3AFF3AC25400207047C046FE23FF33CA
:10335000C25C013BC25400207047C046FE2310B53A
:103360005B00C35C032B01D0002010BD85239B00B4
:10337000C358DB69002BF7D09847F5E770B54B7859
:1033800082B004000D00092B0AD8AA4A9B00D3582A
:103390009F468B88002B03D1CB88002B00D176E091
:1033A00080212000FDF750F900212000FDF74CF9A5
:1033B000002002B070BD8B789F4D2B70012BEFD891
:1033C000FE214900425C022A79D0032AE8D1002B71
:1033D00000D11CE14168012933D0C9B2FFF7ACFE2E
:1033E000297820006160FFF799FE022829D1D7E7EC
:1033F000FE235B00C35C023B012BD1D80123C360D9
:1034000081239B00C358002B01D00323C3602100FC
:1034100002220C31200000F0EFF9C9E7FE235B0027
:10342000C35C023B012BBBD84B88012BC0D181234D
:1034300000229B00C2501033E35829009B682000F3
:103440009847200000F006FAB2E74B88012BAFD175
:1034500081229200835085239B00EDE749880B0A67
:10346000072B9DD8754A9B00D3589F46CB88012BCC
:1034700000D095E7FC33FF33C35C022B2BD0032B2A
:1034800000D08DE7011D012200F0B6F990E7FE267D
:103490007600835D032B00D182E77F254B881D409A
:1034A000FF235B00C5542900FDF706F9200000F05A
:1034B000D1F9002D00D19FE00223A35578E7002B1E
:1034C000BFD001234360023343540121FFF726FE9E
:1034D0000228B6D164E7002301008360083101228D
:1034E00000F08AF964E7037C002B00D058E76B46B4
:1034F0009E1D85239B00C35830001B6B98470723F4
:1035000043703388002B00D152E7EA88002A00D1AB
:103510004EE7191C934200D9111C8AB23180010078
:10352000200000F069F943E7037C002B00D037E767
:103530006B469E1D85239B00C35830005B6B9847EC
:10354000DFE7C9B205296CD83D4B89005B589F461F
:103550008523027C9B00C358002A50D16A46961DE1
:103560009B6A3000984702234370CAE76B469E1D52
:1035700084239B00E35831001B68007C9847C0E718
:103580006B469E1D84239B00E35831009B68007CA2
:103590009847B6E76B469E1D84239B00E358310095
:1035A0005B68007C9847ACE76B469E1D84239B00BC
:1035B000E35831009B69007C9847A2E76B469E1D4B
:1035C00084239B00E35831001B69007C984798E7EF
:1035D0006B469E1D84239B00E3583100DB68007C12
:1035E00098478EE76B469E1D84239B00E35831006D
:1035F0005B69007C984784E70123A355D8E66A46B7
:10360000961DDB6A300098470223437079E7022257
:10361000425443600021FFF78FFD200000F01AF9AB
:10362000C6E66B469E1D85239B00C35832009B6BEC
:10363000984766E76C700008F0010020947000085D
:10364000B4700008FE2370B55B00C35C04000D007D
:10365000032B0CD10B79012B09D885239B00C35870
:103660009B689847EB88002B0AD0002070BD802112
:103670002000FCF7E9FF00212000FCF7E5FFF4E75C
:10368000200000F0E7F8F0E760230A7870B51340F7
:1036900005000C00202B06D1F533FF33C3589B687F
:1036A0009847002070BD8A886378D1B2012B35D04D
:1036B000002B17D0032BF4D1FA33FF33C35C022B5A
:1036C00031D0032B40D16388002B03D14B0601D0AE
:1036D000FCF7BAFF85239B00EB5821009B6828006C
:1036E00098472DE0FE235B00C35C022B1BD0032B0D
:1036F0002AD17F240C402401130630D40534FF3432
:1037000004192800FCF7C0FF002826D001232360FD
:1037100002222100280000F06FF8C2E7FE235B00C0
:10372000C35C022B05D14B06BBD02800FCF78CFFF5
:10373000B7E7032B08D16388002BB2D14B0611D118
:10374000280000F087F8ACE780212800FCF77CFF18
:1037500000212800FCF778FFA3E72060D8E71434A5
:103760000419CEE7FCF780FFB4E7C0460B7803707E
:103770004B784370CA788B7812029B1843804A7941
:103780000B7912029B188380CA798B7912029B18DD
:10379000C380704710B504008021FCF755FF00215D
:1037A0002000FCF751FF10BD30B5002820D0037871
:1037B000002B1ED004000023013425780133DBB236
:1037C000002DF9D15B000233DCB2138003230C70AF
:1037D0004B700478002C0BD00025013B5A1CD2B250
:1037E000CC5401308D5404780233DBB2002CF5D177
:1037F00030BD02240223E8E71300FA2210B50224A8
:10380000520084500A008361C3610021FCF764FF09
:10381000002010BD10B513000A000021FCF75CFF6A
:10382000002010BD1300FA2210B50324520084506A
:10383000EC3A8350043283500A000021FCF75CFF0D
:10384000002010BD10B513000A000021FCF754FF42
:10385000002010BDFA23042210B55B00C2500021E5
:1038600000230022FCF738FF002010BDFA230522B8
:1038700010B55B00C250002100230022FCF73CFF82
:10388000002010BD2923038000487047C00000209D
:10389000862300219B00C258C93BFF3B0020D15426
:1038A0007047C04686239B0010B5C458E36C012BBB
:1038B00009D187239B00C3582278DB686178100008
:1038C00098470023E364002010BDC0460A2303800C
:1038D00000487047F8000020862370B504009B0064
:1038E000C5580433E35869782878DB6898472A007C
:1038F000402301212000FCF7FFFE002070BDC046E0
:1039000086239B0010B50A78C458B93BFF3B13408F
:103910000AD0202B06D14B780B2B38D82B4A9B0092
:10392000D3589F46002010BD4B780A2B33D00B2B69
:103930000AD0062BF6D14B881B0A222B3AD0212B1A
:1039400030D00021002229E08B780020A364EAE730
:103950008B7800202364E6E74B8800201B0A636411
:10396000E1E70123E3648A792100FFF75BFF002090
:10397000D9E7210001224031FFF73EFF0020D2E7C6
:10398000210001224431FFF737FF0020CBE7FFF78A
:1039900001FF0220C7E7210001224831FFF72CFF79
:1039A0000020C0E7CB881A1C092B00D9092292B24B
:1039B0000749F3E7CB881A1C202B00D92022872344
:1039C0009B00C35892B21968E8E7C046CC70000863
:1039D000EC00002070B5040086258121FCF724FE50
:1039E000AD0001212000FCF71FFE6359002B09D018
:1039F00087239B00E3589B6898476059FCF790FE2B
:103A000000236351002070BD70B5040040230322E1
:103A10008121FCF7F7FD4023032201212000FCF760
:103A2000F1FD5420FCF778FE86239B00051EE05034
:103A300010D00022C93BFF3BC254CD33FF33E358C3
:103A40005B68984740232A0001212000FCF754FEC0
:103A5000002070BD0120FCE770B5FE246400045D09
:103A6000032C01D0002070BD86239B00C458C93BA5
:103A7000FF3BE55C002DF5D10135E55413000A004C
:103A80008121FCF729FEEDE7002904D087239B0064
:103A9000C150002070470220FCE7C046F0B55746F1
:103AA0004546DE464E46E0B5027893B01300803BB3
:103AB000DBB205008A461F2B0DD90B0001330193A1
:103AC0000A70431C029303781E2B00D9C5E3D64A23
:103AD0009B00D3589F4601F0E1FA0400200013B088
:103AE0003CBC90469946A246AB46F0BD4278002ABF
:103AF00001D100F095FF012A01D000F08CFF8378FE
:103B000090209A430121C005FFF706FA0023524690
:103B1000C64C5370E2E7C64B1A78012A01D100F077
:103B200065FF022A06D14278DA769B7E934201D95C
:103B300001F084F8FF235246BE4C5370CEE7BC4BD5
:103B40009B461B780293012B01D100F07AFF022BD8
:103B500001D000F06FFF0B000433049300235A469A
:103B6000B54C23704378D376927E9A4201D800F008
:103B7000FEFFC37882781B021343059301D100F046
:103B8000F6FF012307793B400A331800069301F042
:103B90002FFF029BB8463B4201D101F069F95B4619
:103BA0001E8A09E0002E01D101F0BBF92378013E05
:103BB000002B01D001F0B5F90021380001F026FFFB
:103BC0000228EFD0012801D001F0AAF90027220035
:103BD000059BA946013B03930DAB44461D00B84627
:103BE0001700039B984501D101F001FA5B461E8A3C
:103BF00009E0002E01D101F0FFF83B78013E002BD7
:103C000001D001F0F9F82900200001F0FFFE0228A0
:103C1000EFD0012801D001F0BDF90D9B04991A0ADB
:103C20000B704A701A0C1B0ECB7001239C46059B2F
:103C30008A70E0440A1D04924345D2D11A00170A43
:103C400062464D46DBB202925246537097706A4606
:103C50005346127ADA70049B019A9C1A2B799B07BF
:103C600001D500F0BFFCE878AB7800021843734B35
:103C700001309C468004044364442FE76C4B9B4610
:103C80001B780B93012B01D100F012FD022B01D008
:103C900000F0EEFC0B0003330A9300235A46664CF7
:103CA00023704378D376927E9A4201D800F08CFF3D
:103CB000C31C049383780593002B01D101F04BF9C9
:103CC0000023002107930393049B5A1C1D780123B2
:103CD0009146069202222B400A3308932A4200D1D1
:103CE0000EE3039A002A00D131E35A46128A904625
:103CF0008B4200D0BDE3EB0600D5BAE30DAE170052
:103D000009E0002F01D100F07FFC2378013F002B58
:103D100001D000F079FC3100280001F077FE022884
:103D2000EFD003000899012B01D001F026F90D9B7B
:103D30000A981A0A42701A0C037082701B0E021D38
:103D4000C3700A92EB0600D504E34B460493039B31
:103D5000002B01D100F02AFE079B01330793237843
:103D6000002B01D001F065F8059B013B0593002B6A
:103D7000AAD1039B98466B461D7F0A2902D00A20D0
:103D800001F036FE5B461E8A4346002B00D173E2EB
:103D90000DAB1F0009E0002E01D101F064F823787B
:103DA000013E002B01D001F05EF839000E2001F039
:103DB0002DFE0228EFD02A00012801D001F008F9D9
:103DC0000D9B0A9C190A23706170190C1B0EE3707D
:103DD000231D0A93049BA17006930B9056E243782F
:103DE000134A144C1373C37881781B020B4313825C
:103DF000437901791B020B435382002352465370CF
:103E00006CE600240A4B102200210EA81C7002F060
:103E1000A6FC90207C230DA9C0050D93FEF7F6FEAD
:103E200053465C70064C59E6FC7000080200030023
:103E3000D40F002002000600041000200100010041
:103E4000020001004478002C00D12DE3012C00D1A8
:103E50002AE3022C01D000F08FFEDD4B0C22002162
:103E60000FA81C7002F07BFC5423902003260D93B6
:103E70000DA9533BC0050E931096FEF7C7FE902088
:103E800001221021C005FFF747F8902001220421EC
:103E9000C005FFF741F8902001224021C005FFF73F
:103EA0003BF82023902000250D930DA90F3BC00562
:103EB0000E930F951095FEF7A9FE90202021C005C6
:103EC0000122FFF729F8902008230DA9C0050D93C2
:103ED0000E950F951096FEF799FE53465C70BD4CFB
:103EE000FCE543788C1C042B01D100F0FDFE00D8CA
:103EF0008EE3FD2B01D100F0E3FE01D800F06BFE54
:103F0000FE2B01D100F0EAFEFF2B01D000F0E2FE13
:103F100040238B700023B04CCB7002335246537059
:103F2000DCE50199029802F0F9FAAC4BC418D5E52A
:103F3000022353449B460023012201244B70467800
:103F4000831C0192013E2ED35A1C1D783F239046BC
:103F50002B400827002B01D0DF1DFF086BB2002B80
:103F600000DAABE10C2200210FA802F0F8FB0423D9
:103F700090200D939A46033B0E930DA9C0059946D8
:103F800002331093FEF742FE5A464146280001F0E4
:103F9000F1FF002E01D101F009F843460134DB198D
:103FA000E419013ED0D2019B24041C438B4B9C4658
:103FB000644493E50199029802F04EFA874BC418C5
:103FC0008CE50199029802F019FA844BC41885E532
:103FD0000199029802F0E4F9804BC4187EE501993A
:103FE000029802F0C7F97D4BC41877E5784B1A7830
:103FF000022A00D11CE3FF235246764C53706DE534
:10400000734A4378871C93469376002B18D0100090
:10401000140000210022DC467D5C46180131357712
:104020000234E28352198B42F6D8834659466046E1
:10403000CD18047F0130121B0A8502318542F8D168
:10404000581C664B0124002251469C460004044340
:104050004A70644442E50199029802F099FA5F4B74
:10406000C4183BE5019802F02DFA5C4BC41835E505
:10407000811C4078002800D0BCE28020584C4000D1
:1040800001F040FF00235246537027E5029A417821
:1040900053781B020B43917809040B43D17809062E
:1040A000194300D198E24F4B994201D800F03BFDF3
:1040B0000122474B5A705A60002352464A4C5370B3
:1040C0000CE50379C2781B021A43437984781B04F8
:1040D00013438279467812061A4301231F00934640
:1040E000274009D0334201D100F031FD9020012258
:1040F0001021C005FEF710FF02231A00224090464F
:1041000009D0334201D100F02AFD90200122042180
:10411000C005FEF701FF0425254000D0A0E263B2F0
:104120009946002B01DA00F02AFD5B46002B22D0D5
:1041300073080193B308039373090293F3099B4631
:1041400020231C40002F00D080E14346002B00D0EC
:1041500085E1002D00D035E2002C02D0029B002B1F
:10416000F0D14B46002B06DA90202021C005FEF747
:10417000CDFE8345E6D190201021C005FEF7C6FE96
:10418000060090200421C005FEF7C0FE0500902027
:104190004021C005FEF7BAFE840090200821C0052A
:1041A000FEF7B4FE6D002C43C50090202021C00511
:1041B000FEF7ACFE534634432543C4012C435C70E8
:1041C0000A4C8BE400230A4C8B704B7086E4C0468B
:1041D000D40F0020020002000400020001000100D0
:1041E00002002200FF1AB7000200050002000700CB
:1041F000030001000223012253449B460023924600
:1042000001244B704778831C013F00D297E03F2583
:104210001E785A1C904635404CD00735ED086B1C73
:10422000994630005A46414601F0E2F9434676B2DB
:104230005B194C44002EE7DAAB44AA44E4E70322BE
:104240004378CD491A405B070132DB0F0A764B7683
:1042500052460023C94C537040E4FF235246C84CD9
:1042600013703BE4002E01D100F0FDFD2378013EE8
:10427000002B01D000F0F7FD00210E2001F0C6FB5D
:104280000228EFD02A00049B0B90069353462C2162
:104290005A706A46521812789A70069B029A981AB7
:1042A0000A9B0004019A9C1AB54B04439C46644443
:1042B000FFF714FC092308259946B2E710220021D4
:1042C0000EA802F04CFA042390200D930DA9C0050E
:1042D0009A46013B99461093FEF798FC5A46414690
:1042E000280001F047FE002E01D100F0AAFD019B3D
:1042F00001349C46BC446346BB440193434621E6DB
:10430000039B002B00D02CE14A464B4652781B7889
:1043100012021A434B469B781B041A434B46DB7828
:104320001B061343049A0D930532049220222A425D
:1043300000D1F5E05A465361002303930CE5534640
:1043400024041C438E4B9C466444FFF7C7FBEB06DA
:1043500000D42BE34B461A785B7808981B021A436B
:104360004B469B781B0413434A46D27812061A43E5
:10437000049B0992053306935B465B8A9946884203
:1043800001D001F035FB5B461E8A07E0002E00D10C
:104390003AE12378013E002B00D035E100212800CE
:1043A00001F034FB0228F1D00300012801D000F015
:1043B000F9FD0DAE5B461F8A05E0002F3CD0227848
:1043C000013F002A38D13100280001F01FFB030013
:1043D0000228F2D05A460D9952690A40012801D0AC
:1043E00000F0FBFD099B934201D100F022FC4B46FB
:1043F000002B06D00122524294462378E144002B40
:10440000D8D0039B984610230343DBB2022210212D
:104410000AE001420CD10135069505980138059056
:10442000002801D100F01FFC069D28780242F0D13F
:10443000069805300690F0E7039A0D9990465A4683
:1044400052691140099A8A42DDD1DFE7902010219C
:10445000C005FEF75BFD864200D176E672E690204D
:104460000421C005FEF752FD019B834200D170E696
:1044700068E60A2902D00A2001F0BAFA0DAE4746D2
:1044800007E0002F00D184E32378013F002B00D008
:1044900085E331000E2001F0B9FA0228F1D00022A4
:1044A00003000A2103923EE40124334B0C22002135
:1044B0000FA81C7002F053F99020142303250DA9B6
:1044C000C0050D930E941095FEF7A0FB90200122DD
:1044D0001021C005FEF720FD902001220421C00517
:1044E000FEF71AFD2023902000240D930DA90F3B09
:1044F000C0050E930F941094FEF788FB90200122C4
:104500002021C005FEF708FD902048230DA9C00515
:104510000E940F940D9310950134FEF777FBDCE4B5
:104520000898884201D001F063FA5B460DAE1F8AFD
:1045300007E0002F00D138E32378013F002B00D0A3
:1045400038E33100280001F061FA0228F1D00300BD
:10455000012801D000F018FD002308990393FFF70C
:10456000FBFB0A2902D00A2001F042FA5B461B8AB3
:104570000DAE1F000EE0C046D40F00200200020066
:1045800001000100002F00D1C3E22378013F002B7E
:1045900000D0BEE231000E2001F038FA0228F1D03E
:1045A0000300012801D000F01CFD0D9B0A991A0A96
:1045B0000B704A701A0C1B0ECB700B1D8A700A937D
:1045C0000A21A1E690204021C005FEF79FFC039B35
:1045D000834200D1C0E5B5E5FF235246C14C53707C
:1045E000FFF77CFA8020C04BC0029C460443644421
:1045F000FFF774FA0123C41DE408013424041C43AA
:10460000B94B9C4664443BE5039A03009046FDE6A3
:10461000022B00D147E300D92FE3012B00D059E34F
:1046200020000F22B14902F091F8B14C0E2375E43D
:104630004278DA769B7E934200D8DCE40E2001F0CB
:10464000D7F901F047F8524600235370030A9070DF
:10465000D370030C000E13715071A64CFFF73EFA95
:1046600090207207D20F4021C005FEF755FC56E599
:104670008278C31C002A0DD00220102405E00C42D1
:1046800006D10133013A002A04D019780842F6D144
:104690000533F7E7002251464A708A70029A0224D5
:1046A000981A914B00049C4604436444FFF716FAA1
:1046B0000B000333079300238F4C2370C31C9946D0
:1046C00083780493002B01D100F051FC00230020DB
:1046D000984609930393049B039A9B1A08934B46AD
:1046E0005F1C1D78022306972B4200D19FE05B469A
:1046F00042461E8A3300002A25D011232B40012B6D
:1047000008D15FE0002E00D148E12378013E002B64
:1047100000D043E10DA90E2001F0BAFC0228F1D02F
:104720000023984601286ED10D9B07991A0A0B7039
:104730004A701A0C1B0ECB705B468A701B8A0A00EB
:104740001E000432079201222A40E90600D4A3E0A9
:104750007978387809020843B97809040143F87870
:1047600000060843494605310691594605904F8A8F
:10477000002A33D11E0005E0002E3AD02378013EF6
:10478000002B36D10DA9280001F082FC020002287E
:10479000F2D05B460D995B690B4001282AD105993F
:1047A000994200D1FDE0002F2AD02378013F002B51
:1047B00026D15B461E8AE5E7002E24D02378013EF1
:1047C000002B20D10DA9280001F062FC0228F3D0B3
:1047D000A8E7013E17D32378002B14D1002128002D
:1047E00001F056FC0228F4D001280CD15B461B8A4C
:1047F000C0E70D995B465B691940059B8B4202D06F
:1048000010201043C0B2089B02221021002B35D08B
:10481000069D089B06E0314207D10135013B002B84
:1048200000D1B4E12E783242F5D10535F6E74346A2
:10483000002B79D17A783B7812021A43BB781B049B
:104840001A43FB781B061343052294461B320D9333
:10485000E1442A4200D187E05A46536100230120F7
:104860009846039A237801320392002B00D049E244
:10487000049B934200D02EE74B460693012800D1BB
:10488000B1E16A465346127B98705A70069B029AB1
:10489000981A0004079B05E5002A0BD04346002B1D
:1048A00033D00023B9460993DBE7013EABD323782D
:1048B000002BA8D10DA9280001F0EAFB0228F4D0B2
:1048C0000128A0D10D9B07991A0A0B704A701A0C87
:1048D0001B0ECB700B1D079300238A70B9460993FA
:1048E000BFE7C0460200050001000100F06F0008AC
:1048F000100002000600020004100020013E00D259
:1049000081E72378002B00D07DE70021280001F00B
:10491000BFFB0228F2D0012800D074E700230993DE
:1049200001339846B9469CE75B461E8A07E0002E95
:1049300000D168E72378013E002B00D063E70DA982
:104940000E2001F0A5FB0228F1D0012800D05AE783
:104950000D9B07991A0A0B704A701A0C1B0ECB702C
:104960000B1D8A70079365E75B461B8A1E0006E0F5
:10497000002E00D1D3E02378013E002B0CD10DA9ED
:10498000280001F085FB0228F2D0012804D1012380
:1049900009930023984664E74B4606930023984604
:1049A00031E7069B9946002309935AE70898884205
:1049B00001D001F01DF85B461E8A07E0002E00D1F1
:1049C0007AE12378013E002B00D096E100212800F7
:1049D00001F01CF80228F1D00300012800D0D5E234
:1049E0004B46089903900493FFF7B6F9C278837891
:1049F00012021A4303790DA91B041A4343790020BC
:104A00001B0613430D9301F043FB00235246DD4C7C
:104A10005370FFF763F8FF23DB4C4B70FFF75EF832
:104A20008378012290209A430221C005FEF774FA90
:104A3000FFF76CF8002303244B708B70CB70FFF7EB
:104A40000DF90B00043303930023D04C82782370BC
:104A5000C3781B021343049300D1B1E05B4607798E
:104A60001E8ABB0700D550E1431D984600230293E0
:104A70000DAB994623004C461D00814642464346F5
:104A800052781B7812021A4343469B781B041A4340
:104A90004346DB781B0613430D9304239C46E044F6
:104AA00005E0002E2FD02B78013E002B2BD12100CA
:104AB000380001F0EDFA0228F3D0012823D15A463C
:104AC000029B01330293168A049A9A42D6D12C0093
:104AD0004D4605E0002E09D02378013E002B05D17C
:104AE00000210E2001F0D4FA0228F3D0029BDAB2A2
:104AF0001B0ADBB251464A708B70019A039BC87047
:104B00009C1AFFF7ABF8029B4D46DAB21B0ADBB2E8
:104B1000F0E7039A030090460A22089276E44B4697
:104B2000B04606936FE69A4B9B4600235A46537055
:104B3000984BC818FBF7F0FA0123022803D0032191
:104B4000FBF7EAFA03005A465360FFF7B5FA9020E4
:104B500000221021C005FEF7DFF9FFF7CDFA902003
:104B600000220421C005FEF7D7F9FFF7D4FA00238D
:104B700000270293FFF768F80024FFF7AEF99020B2
:104B8000F2092021C005FEF7C7F9FFF7CEFA069516
:104B900074E6002290460A320300089236E40A22A4
:104BA000089200220300904630E4049A0300B846BD
:104BB00006922BE4049A030006920022904625E414
:104BC00000200023002295E7831C06930023002287
:104BD0000B93FFF75BFBF02B7CD117236E4C8B7094
:104BE000163BFFF79BF94346002B00D10BE15B46D8
:104BF0001D8A0DAB1E0007E0002D00D141E6237891
:104C0000013D002B00D03CE631000E2001F040FABF
:104C10000228F1D0012800D033E60D9B07991A0A2B
:104C20000B704A701A0C1B0ECB700B1D8A70079309
:104C300027E6069B08990493FFF78EF8082000F0FA
:104C4000D7FEEB78A8781B02034328794D4C00046B
:104C5000034368790006184300F0D6FD002352464E
:104C60005370FEF73BFF6A46127F1500012B00D1FF
:104C700078E1DBB20B93FFF709FB484B48491A6810
:104C80000968484B52185B884749200001F070FDC5
:104C90002000FBF739FA454AFF2494460440C3B28A
:104CA0006444FFF73BF920001622414901F04EFD14
:104CB000404C1523FFF732F90300B046FFF7A6FB7F
:104CC000002304228B700B714B71CA703A4C043371
:104CD000FFF724F9354C0023FFF720F908232E4C69
:104CE0008B70073BFFF71AF920000622334901F0C9
:104CF0002DFD334C0623FFF711F9002203009046E7
:104D0000FFF784FB4B4606937DE5029B3B4261D156
:104D1000012252429446049B634498460023049324
:104D20000DAB994623004C46A9461D004346002B77
:104D300006D10AE1002E59D02B78013E002B55D127
:104D40002100380001F0A4F90228F3D001284DD148
:104D50000D9B03991A0A0B704A701A0C1B0ECB702C
:104D6000049B8A700133049343460A1D0392002B6F
:104D700000D1DDE05B461E8A01235B429C46E04495
:104D8000D4E7C04602000600020003000410002021
:104D9000D40F0020FF356E0103000200ACF7FF1FA7
:104DA000B4F7FF1FB0F7FF1F787100080200020080
:104DB0000070000817000200060002008071000861
:104DC00008000200002E00D1AFE02378013E002B46
:104DD00000D0AAE00021380001F05AF90228F1D0F1
:104DE000012800D0A1E05B461E8A91E7049B4D4656
:104DF000DAB21B0ADBB27DE64746FBB23F0A4D46FC
:104E0000FFB2FEF721FF099B002B00D139E55B467D
:104E10001D8A07E0002D00D133E52378013D002BEA
:104E200000D02EE500210E2001F032F90228F1D049
:104E300027E5039B08919846049B06930123FFF7FF
:104E4000E5FA0C2200210FA801F089FC53460D93CE
:104E5000012390200E934B460DA9C0051093FDF73A
:104E6000D5FEFFF744FA049B2A000693FFF70EFADB
:104E70006B1D9846002303930DAB994623004C46C7
:104E8000A9461D004246434652781B7812021A4337
:104E900043469B781B041A434346DB781B061343A7
:104EA0000D9304239C465B46E0441E8A05E0002ED9
:104EB0002FD02B78013E002B2BD12100380000F0A1
:104EC000A5FD0228F3D001285CD1039B059A01338C
:104ED00003939A42D6D1069B2C004D460A2B02D052
:104EE0000A2000F085FD5B461E8A05E0002E26D0D4
:104EF0002378013E002B22D100210E2000F086FDF8
:104F00000228F3D0039A0290170AD3B2FFB2FEF739
:104F10009BFE039A4D46170AD3B2FFB2FEF794FEEA
:104F2000029000273B00FEF78FFE00231A00E1E508
:104F3000049B4D46DAB21B0ADBB20298DAE5039A0B
:104F4000170AD3B2FFB2FEF77FFE01331F4200D132
:104F5000F6E60E27F4E6049B069300230B931A0053
:104F6000FFF794F9069B08990493FEF706FF0023C8
:104F700003934B460020069383E4039A08919046DE
:104F8000FFF744FA4D46BDE7049A06920022904688
:104F9000FFF73CFA4746FBB23F0A4D46FFB202908C
:104FA000FEF752FE039A9046FFF730FA0C220021DA
:104FB0000FA801F0D4FB53460D934B4690200E935F
:104FC00003230DA9C0051093FDF720FEFEF7E5FFB2
:104FD000049B0B900693FFF759F9039A9046FFF74D
:104FE0002EFA039A90460A220892FFF70FFA069BC0
:104FF0000E240A2B01D1FEF7F9FD0A2000F0F8FC7F
:10500000FEF7F4FDF8B503787F2B16D10B704378CB
:10501000851C8E1C4B705C1E0A4F002B0BD0310080
:105020002800FEF73BFD030C3F180004000CED18B0
:105030003618013CF3D23800F8BDFEF72FFD07000B
:10504000F9E7C04602000200162010B50021002238
:105050000124114B86B058604E3019801A731861C4
:1050600059611C839A7603A80C2201F078FB029404
:1050700090240323E40501A920000193FDF7C6FD58
:10508000200001220221FDF747FF0122012120001B
:10509000FDF742FF06B010BDD40F00200378014891
:1050A0000B70704701000100F8B505009020012247
:1050B0000421C005FDF730FF902000221021C0051B
:1050C000FDF72AFF902001221021C005FDF724FFE3
:1050D000902000221021C005FDF71EFF9020012224
:1050E0001021C005FDF718FF902000220421C00503
:1050F000FDF712FF902000221021C005FDF70CFFE4
:10510000902001221021C005FDF706FF902000220B
:105110001021C005FDF700FF902001221021C005DD
:10512000FDF7FAFE902001224021C005FDF7F4FEB4
:10513000514EF37E1A000C325200B2181489002C22
:105140000FD0902000221021C005FDF7E5FE902031
:1051500001221021C005013CFDF7DEFE002CF0D13C
:10516000F37EF218147F013C002C18D001273A007E
:1051700090202A404021C005FDF7CEFE902000225D
:105180001021C005FDF7C8FE902001221021C005A6
:10519000013CFDF7C1FE6D08002CE8D1F37E103311
:1051A0005B00F3181C8901231D40002C5AD090206D
:1051B0002A004021C005FDF7AFFE902000221021FB
:1051C000C005FDF7A9FE902001221021C005FDF7C2
:1051D000A3FE0122402107E0902000221021C005FB
:1051E000FDF79AFE012210219020013CC005FDF739
:1051F00093FE002CF0D1012204219020C005FDF780
:105200008BFE902000221021C005FDF785FE902026
:1052100001221021C005FDF77FFE90200022102101
:10522000C005FDF779FE902001221021C005FDF791
:1052300073FE902000220421C005FDF76DFE902032
:1052400000221021C005FDF767FE902001221021E9
:10525000C005FDF761FE902001224021C005FDF749
:105260005BFEF8BD902001220421C005FDF754FE2D
:105270002A004021C1E7C046D40F0020F0B5D64631
:105280004F464646C0B5070090200122C00589461A
:105290000421FDF741FE902000221021C005FDF7FA
:1052A0003BFE902001221021C005FDF735FE902025
:1052B00000220421C005FDF72FFE902000221021BE
:1052C000C005FDF729FE902001221021C005FDF741
:1052D00023FE902000221021C005FDF71DFE902026
:1052E00001221021C005FDF717FEC04BDC7E984659
:1052F000002C0ED0902000221021C005FDF70CFEDE
:10530000902001221021C005013CFDF705FE002C74
:10531000F0D1012590207A082A404021C005FDF7F0
:10532000FBFD902000221021C005FDF7F5FD902027
:105330000821C005FDF7EAFD8246902001221021D8
:10534000C005FDF7E9FD9020BA082A404021C005BC
:10535000FDF7E2FD902000221021C005FDF7DCFDE5
:1053600090200821C005FDF7D1FD06009020012204
:105370001021C005FDF7D0FD9020FA082A404021F9
:10538000C005FDF7C9FD902000221021C005FDF7E2
:10539000C3FD90200821C005FDF7B8FD0400902052
:1053A0000122C0051021FDF7B7FD5346A4005800A7
:1053B00020430643B246012E00D088E0BB073FD50C
:1053C0001F250026902000221021C005FDF7A4FD16
:1053D00090200821C005FDF799FD04009020E40706
:1053E00001221021C0052643013DFDF795FD7608F9
:1053F000002DE7D143469D7EDB7EED1A012D00D0C6
:10540000BAE0902001220421C005FDF785FD90201F
:1054100000221021C005FDF77FFD90200821C00566
:10542000FDF774FD0400902001221021C005FDF756
:1054300073FD4B46002B5CD0E40734431C6058E0FE
:105440004B461F2501261C68320090202240402137
:10545000C005FDF761FD902000221021C005FDF779
:105460005BFD902001221021C005013DFDF754FD98
:105470006408002DE8D143469D7EDB7E3440ED1A62
:10548000012D00D1A9E0902022004021C005FDF7A8
:1054900043FD902000221021C005FDF73DFD902026
:1054A00001221021C005023DFDF736FD002D0ED072
:1054B000902000221021C005FDF72EFD9020012232
:1054C0001021C005013DFDF727FD002DF0D101227F
:1054D00004219020C005FDF71FFD9020002210211F
:1054E000C005FDF719FD902001221021C005FDF730
:1054F00013FD902000221021C005FDF70DFD902026
:1055000001221021C005FDF707FD90200022042193
:10551000C005FDF701FD902000221021C005FDF718
:10552000FBFC902001221021C005FDF7F5FC902026
:1055300001224021C005FDF7EFFC3B0602D5002308
:105540004246936043461B7B5C1E002B0DD090208F
:1055500000221021C005FDF7DFFC90200122102160
:10556000C005FDF7D9FC013CF1D25346D8B21CBCB2
:1055700090469946A246F0BD902000221021C00519
:10558000FDF7CAFC90200821C005FDF7BFFC040010
:10559000902001221021C005023DFDF7BDFC002D29
:1055A0000ED0902000221021C005FDF7B5FC902000
:1055B00001221021C005013DFDF7AEFC002DF0D108
:1055C000902001220421C005FDF7A6FC90200022B6
:1055D0001021C005FDF7A0FC25E790200122042141
:1055E000C005FDF799FC2200402172E7D40F00208E
:1055F000F0B5DE46454657464E463F2393460200E9
:10560000E0B51A4083B000900C009046131E01D103
:1056100040339846009B5B0654D59020012204211C
:10562000C005FDF779FC8023A246009A1A4001923A
:1056300053461F78012308260024994602E043467A
:10564000002B32D04A4690203A404021C005FDF759
:1056500063FC902000221021C005FDF75DFC902026
:105660000821C005FDF752FC050090200122102101
:10567000C005FDF751FC01235B429C466408ED0127
:10568000013E7F082C43E044002ED8D1019B002B23
:1056900004D05B461C7001239C46E34401239C46D6
:1056A0004346E244002BC3D105E0009BF4401B06B7
:1056B00001D55B461C7003B03CBC90469946A2469F
:1056C000AB46F0BD902000220421C005FDF724FC6C
:1056D000A9E7C046902070B501220421C005FDF75E
:1056E0001BFC902000221021C005FDF715FC902026
:1056F00001221021C005FDF70FFC9020002204219B
:10570000C005FDF709FC902000221021C005FDF71F
:1057100003FC902001221021C005FDF7FDFB902025
:1057200000221021C005FDF7F7FB90200122102177
:10573000C005FDF7F1FB334BDC7E002C0ED0902032
:1057400000221021C005FDF7E7FB90200122102167
:10575000C005013CFDF7E0FB002CF0D11F26002422
:10576000902000221021C005FDF7D6FB90200821D3
:10577000C005FDF7CBFB05009020ED0701221021AD
:10578000C0052C43013EFDF7C7FB6408002EE7D19E
:10579000902001220421C005FDF7BEFB90200022CD
:1057A0001021C005FDF7B8FB90200821C005FDF7CA
:1057B000ADFB0500902001221021C005FDF7ACFBD8
:1057C000902000221021C005FDF7A6FB90200122A9
:1057D0001021C005FDF7A0FB902000220421C00588
:1057E000FDF79AFB902000221021C005FDF794FBE5
:1057F0009020ED072C4301221021C005FDF78CFB02
:10580000200070BDD40F0020F8B5040090200122C4
:105810000421C005FDF780FB902000221021C00567
:10582000FDF77AFB902001221021C005FDF774FBE3
:10583000902000220421C005FDF76EFB902000227D
:105840001021C005FDF768FB902001221021C00542
:10585000FDF762FB902000221021C005FDF75CFBE4
:10586000902001221021C005FDF756FB5F4FFD7E01
:10587000002D0ED0902000221021C005FDF74CFB1A
:10588000902001221021C005013DFDF745FB002DB0
:10589000F0D1902000224021C005FDF73DFB902073
:1058A00000221021C005FDF737FB902001221021B6
:1058B000C005FDF731FB902000221021C005FDF747
:1058C0002BFB902001221021C005FDF725FB902025
:1058D00000221021C005FDF71FFB9020012210219E
:1058E000C005FDF719FB1F2501263200902022403C
:1058F0004021C005FDF710FB902000221021C005BB
:10590000FDF70AFB902001221021C005013DFDF7A3
:1059100003FB6408002DE8D1BD7EFB7E3440ED1A08
:10592000012D5AD0902022004021C005FDF7F4FA45
:10593000902000221021C005FDF7EEFA90200122F0
:105940001021C005023DFDF7E7FA002D0ED0902092
:1059500000221021C005FDF7DFFA9020012210215E
:10596000C005013DFDF7D8FA002DF0D10122042138
:105970009020C005FDF7D0FA902000221021C0052C
:10598000FDF7CAFA902001221021C005FDF7C4FAE4
:10599000902000221021C005FDF7BEFA90200122C0
:1059A0001021C005FDF7B8FA902000220421C0059F
:1059B000FDF7B2FA902000221021C005FDF7ACFAE5
:1059C000902001221021C005FDF7A6FA90200122A7
:1059D0004021C005FDF7A0FAF8BD90200122042166
:1059E000C005FDF799FA22004021C1E7D40F00203D
:1059F00010B5054B5B78002B02D1FFF755FB10BDAE
:105A0000FFF752FBFBE7C046D40F002010B5054B53
:105A10005B78002B02D1FFF731FC10BDFFF72EFCA5
:105A2000FBE7C046D40F0020F0B5D6464F464646A9
:105A300082469020C0B5012286B0C0058946042167
:105A4000FDF76AFA902000221021C005FDF764FAE4
:105A5000902001221021C005FDF75EFA0125524673
:105A600090202A400421C005FDF756FA902000221C
:105A70001021C005FDF750FA902001221021C00529
:105A8000FDF74AFA53462A0090205C082240042180
:105A9000C005FDF741FA902000221021C005FDF756
:105AA0003BFA902001221021C005FDF735FA53463C
:105AB00090209A08A41804212A40C005FDF72CFA6A
:105AC000902000221021C005FDF726FA9020012227
:105AD0001021C005FDF720FA53462A009020DF0868
