:020000040800F2
:10000000001800206D620008110900081509000899
:1000100000000000000000000000000000000000E0
:1000200000000000000000000000000019090008A6
:1000300000000000000000001D0900082109000860
:10004000ED62000800000000ED620008ED620008AB
:10005000ED620008ED620008ED620008ED62000844
:1000600000000000ED620008ED620008ED6200088B
:10007000ED620008ED620008ED620008000000007B
:10008000ED6200080000000000000000ED620008C2
:1000900000000000ED620008ED620008ED6200085B
:1000A00000000000ED62000800000000ED620008A2
:1000B00039090008000000000000000029090008BC
:1000C00010B5064C2378002B07D1054B002B02D02E
:1000D000044800E000BF0123237010BD6801002028
:1000E00000000000746B0008044B10B5002B03D017
:1000F0000349044800E000BF10BDC04600000000F6
:100100006C010020746B00080023C25C0133002ADC
:10011000FBD1581E70470000002243088B4274D365
:1001200003098B425FD3030A8B4244D3030B8B42F8
:1001300028D3030C8B420DD3FF22090212BA030C01
:100140008B4202D31212090265D0030B8B4219D3E2
:1001500000E0090AC30B8B4201D3CB03C01A524102
:10016000830B8B4201D38B03C01A5241430B8B424A
:1001700001D34B03C01A5241030B8B4201D30B0333
:10018000C01A5241C30A8B4201D3CB02C01A52415A
:10019000830A8B4201D38B02C01A5241430A8B421D
:1001A00001D34B02C01A5241030A8B4201D30B0206
:1001B000C01A5241CDD2C3098B4201D3CB01C01A20
:1001C000524183098B4201D38B01C01A524143092A
:1001D0008B4201D34B01C01A524103098B4201D318
:1001E0000B01C01A5241C3088B4201D3CB00C01A85
:1001F000524183088B4201D38B00C01A52414308FD
:100200008B4201D34B00C01A5241411A00D2014621
:10021000524110467047FFE701B5002000F006F894
:1002200002BDC0460029F7D076E770477047C04648
:1002300010B50A4C4022236809489901094BC91896
:1002400003F03CFC23680133072B00D90023064A46
:1002500023601368013B136010BDC0468801002075
:100260001C0A0020180800208C01002010B596B050
:10027000282200210CA806F068F81022002101A80D
:1002800006F063F81422002105A806F05EF80123A9
:100290000A930B9380235B021393802302245B0356
:1002A0000AA81294149302F0EDF8002800D0FEE79B
:1002B000072303900490012101A80193029402F006
:1002C0005BFB002800D0FEE780239B020593802380
:1002D00005A8099302F00AFC002800D0FEE702F00E
:1002E00015FB16B010BDC046F0B5DE464E4657466B
:1002F0004546E0B5002689B002F0A2FCFFF7B6FF44
:10030000464B474D474F484C1022002104A81E6021
:100310002E603E60266006F018F88020434BC00334
:100320005969014359615A69024080200092009A3C
:10033000596980020143596180215A69C90202400A
:100340000192019A5A6990200A435A615B69C0057B
:100350000B400293029BF32303A9039302F08EFC4C
:10036000022303A9324803930496059602F086FC03
:1003700000F06AF804F0B6FE2E4B2F4E9B462F4B32
:1003800099462368002B00D130BF7F2292463B68FC
:100390002268002A31D0072B31D82A689001325CBC
:1003A0007E2A38D15A461268002A26D15346335441
:1003B000012398464B461918301804F071FE236843
:1003C0002A68013B23603B68013201333B60072A06
:1003D00000D900222A604246002AD9D18622184933
:1003E00092008958C93AFF3A8A5C002AD0D1FFF7B7
:1003F0001FFF22683B68002ACDD1002BC1D0862385
:100400000F4A9B00D258C93BFF3BD35C002BB8D1AD
:10041000FFF70EFFB5E700239846CBE788010020E1
:10042000840100208C010020180A002000100240E6
:1004300000040048600F0020180600201808002063
:100440001C0A0020FEE7C04610B5124C00221249DB
:10045000200002F06BFE002819D11049200002F0A4
:100460007FFE002810D10E49200003F03FFB00283A
:1004700007D1200002F07EFE002801D0FFF7E2FF46
:1004800010BDFFF7DFFFF4E7FFF7DCFFEBE7FFF757
:10049000D9FFE2E71C0A00200000002084000020B1
:1004A0007000002000B50D4B026883B09A4201D065
:1004B00003B000BD80200A4A0004D1690143D16124
:1004C000D36900210340019300221F20019B02F009
:1004D00095FD1F2002F0BEFDEAE7C046005C00402B
:1004E000001002400100872310B59B00ED31FF3161
:1004F000C05802F05BFE10BDCB005B1A9B00C31816
:100500001933FF331A68872310B59B00C05802F0D7
:1005100081FE10BDCB005B1A9B00C3189A6B87232A
:1005200010B59B00C05802F0B1FE10BD872310B576
:100530009B00C05802F044FF10BDC046836870B5F0
:100540000400022B01D0FFF77DFF8725AD000121BC
:10055000605902F01DFF605902F0F6FE70BDC04602
:10056000872310B504009B00C05802F015FFA36953
:10057000002B04D00621024A13690B43136110BDFE
:1005800000ED00E0836910B50400002B06D00621C1
:10059000054A13698B431361FFF768FE87239B00AD
:1005A000E05802F005FF10BD00ED00E0872370B5B4
:1005B000040019489B00C4500433E050174B0360FB
:1005C00008234360063B8360036100238361C361AA
:1005D000036200F0E3FA002801D0FFF733FF88251B
:1005E000AD00605918230022002101F00DFC605974
:1005F00058230022802101F007FC60599823002233
:10060000812101F001FC6059D8230022012101F071
:10061000FBFB002070BDC046400C0020005C004089
:1006200088239B0010B5C05800F006FB032802D8B1
:10063000024B185C10BD0220FCE7C046AC6B000802
:1006400010B514001A0088239B00C058230000F046
:1006500017FB032802D8024B185C10BD0220FCE7F0
:10066000AC6B000888239B0010B5C05800F086FCD6
:10067000032802D8024B185C10BD0220FCE7C046DC
:10068000AC6B000888239B0010B5C05801F0FAFA43
:10069000032802D8024B185C10BD0220FCE7C046BC
:1006A000AC6B000888239B0010B5C05801F048FBD4
:1006B000032802D8024B185C10BD0220FCE7C0469C
:1006C000AC6B000888234AB29B00C358002A07DBA2
:1006D000CA00511A89005B180B33FF331878704732
:1006E0007F221140CA00511A89005B182A331878FA
:1006F000F5E7C04688239B0010B5C05800F0A6FA65
:10070000032802D8024B185C10BD0220FCE7C0464B
:10071000AC6B000810B58824A400005900F018FE46
:10072000032802D8024B185C10BD0220FCE7C0462B
:10073000AC6B000810B58824A400005900F0E8FC58
:10074000032802D8024B185C10BD0220FCE7C0460B
:10075000AC6B000800487047900100207047C0460D
:10076000122301480B8070471C000020042301481D
:100770000B80704730000020013A30B5D4B26400DD
:100780008A1CA418002506E030330B704D7002312E
:1007900000018C420AD0020FD3B2092AF4D93733B0
:1007A0000B704D70023100018C42F4D130BDC04657
:1007B0001A2370B50B800C4B18680C4B1B68C018C3
:1007C000002802D10A4C200070BD094C094BA11C25
:1007D00008221D68FFF7D0FF2100042212312800F3
:1007E000FFF7CAFFEFE7C046ACF7FF1FB4F7FF1FE4
:1007F00034000020B0F7FF1F10B5044C0A00044875
:10080000210003F003F8200010BDC046600E002058
:10081000DC6B000810B5044C0A000448210002F00B
:10082000F5FF200010BDC046600E0020EC6B0008F4
:1008300010B5044C0A000448210002F0E7FF200034
:1008400010BDC046600E0020B06B000810B5044C0F
:100850000A000448210002F0D9FF200010BDC04664
:10086000600E0020C46B00080023034A00201360C0
:10087000024A13607047C046E8010020600F002064
:100880000020704786231C4A9B0070B5D4582378FB
:10089000072B26D0194D2B68072B07D9184B1A6840
:1008A000002A01D000221A60002070BD154E164BA0
:1008B000306840228001C018210005F03DFD3368FA
:1008C000013333603368072B01D900233360237869
:1008D0007E2B0DD000220A4B1A602B6801332B604F
:1008E000E2E70122094B1A700022054B1A60DBE790
:1008F0000122034B1A60F0E71C0A0020180A0020AE
:10090000600F0020E80100201806002008100020D9
:100910007047C046FEE7C0467047C0467047C046B5
:1009200010B502F09DF910BD10B5024800F01EFE92
:1009300010BDC046400C002010B5024801F0FEFC7E
:1009400010BDC046640F002001220C4B82B0996993
:100950001143996199690A4080210092009ADA69ED
:1009600049050A43DA61DB69054A0B40102101930E
:10097000019B13680B43136002B0704700100240E4
:100980000000014010B5040088B01422002103A823
:1009900005F0DBFC164B22689A4201D008B010BD6E
:1009A0008022144B9202D96990201143D961D969F0
:1009B000C0051140019101995969114359615B6961
:1009C00003A91A400292029B08230393063B049357
:1009D00001330693023B079302F050F900220021F5
:1009E0001C2002F00BFB1C2002F034FBD6E7C046B3
:1009F0000044004000100240094B026810B59A42C2
:100A000000D010BD9020074A0749D369C0050B40AC
:100A1000D361082102F024FA1C2002F027FBF0E742
:100A20000044004000100240FFFFFDFF002070471F
:100A3000002300B5064883B0019301F0BDFA2228D7
:100A400003D10222019B13430193019803B000BD1F
:100A5000640F002010B5034801F0F6F9431E9841D9
:100A6000404210BD640F002004210A4B0A4A10B511
:100A7000596180211A6000225860090218009A60AA
:100A8000DA601A619A61D9611A625A6201F0A8FBB0
:100A900010BDC046640F002000440040054B10B557
:100AA000186096200002FFF7DFFF431E9841404286
:100AB00010BDC046EC01002010B58AB20100034809
:100AC00001F0DEF9431E9841404210BD640F002042
:100AD0006A22054B00209A5C222A04D15821383220
:100AE0009A5A585A801A7047640F0020FF2310B595
:100AF00018400C00162816D019280DD0012802D055
:100B00000120404210BD0F4801F09EF90028F7D1A6
:100B10002000FFF7A9FF02E00A4801F019FA431E7E
:100B200098414042EEE7074B01211B681A68002CF0
:100B300003D18A431A600020E4E70A431A600020C8
:100B4000E0E7C046640F0020034B10B51B68002B84
:100B500001D00220984710BDEC0100200123C26E95
:100B600010B51340C26E5B02520702D580225200BC
:100B70001343C26E120701D5202213432221C26EF5
:100B8000114201D080221343034A1268002A01D087
:100B90001800904710BDC046EC01002070B5041E3F
:100BA00045D0EA23FF33C35CDBB2002B39D0EA2304
:100BB00003226068FF33E25400281DD02300002187
:100BC000012500222833197001315D70DA70DA6076
:100BD0001A615A611C338142F5D1230000200022A2
:100BE0000933FF33187001305A70DA70DA601A6115
:100BF0005A611C338842F5D14022012123684420E8
:100C000099520021995219520C3019520949002069
:100C1000995200222423E254EA230122FF33E254B2
:100C200070BDF42252008354FFF73CFCBFE7012063
:100C3000F6E7C04600BFFFFF5822016880208B5AAC
:100C4000000203438B5200207047C046F4235B0030
:100C5000C25C012A11D00122C254002907D02423EA
:100C6000C154F42300225B00C254002070479D3B16
:100C70000168FF3B7F32CA52F3E70220F6E7C04625
:100C8000F0B5C6467F264DB200B50E40002D00DA05
:100C9000B2E0CC00611A89000931FF314118CB70F4
:100CA000F423ED0F0E704D70CA605B00C45C012C24
:100CB00000D135E10124C454CC780368012C00D163
:100CC00038E1002C00D10CE1022C00D12AE1032CE8
:100CD00000D1FBE00C789D4DA446A6009E193488F7
:100CE000A8462C4065469A4F2F433C4334808C7A6B
:100CF000002C28D101270C788E88E400A4464C787B
:100D0000BE43002C00D1B0E050229C5A80221C1916
:100D1000D20064449446644426800A7892009A186B
:100D20001488650600D5E7E08A4D2C4020256C40EC
:100D3000874D2C431480F42300225B00C254002012
:100D400004BC9046F0BD50270A78834E92009A1852
:100D500014882640814C344314800A78DC5BD2002E
:100D600012198024E400A4460126CC88D2186244DB
:100D7000B44314800A78DC5BD2001219784CD21884
:100D8000A4460C896244B44314804A78002A39D1BD
:100D90000A7894001C192688750405D54546354007
:100DA000704E354325800A7894001C1925886E06FC
:100DB00005D5664A15406C4A154325800A7892008D
:100DC0009A181488614D2540674C2C4314800A788A
:100DD000664D92009A1814882540C024A4016C40E6
:100DE0005B4D2C4314800A785A4992009B181A884C
:100DF0000A4015431D809EE7F100891B89002831B8
:100E000041184CE70A78454692009A181488260043
:100E10002E40650409D54546524C264316800A7873
:100E200092009A18148825402E00640608D54E4C6E
:100E3000264316800A78454C92009A181688264058
:100E4000484C444D264316800A7892009A1814881C
:100E50002C403F4D2C4314800A78444992009B1843
:100E60001A880A4015431D8065E750255C5B1C19F4
:100E70006444A0463A4CA4464446644426800C7818
:100E80005D5BE40064193A4D5D1964193E2A3DD852
:100E90005508174200D00135AD0225800A7892002E
:100EA0009A181488650408D5284D2C402D4D2C43E4
:100EB00014800A7892009A1814882C4B1C40C02386
:100EC0009B016340224C1C43148034E70C78294E6C
:100ED000A4001C1925882E40C025ED00354325802F
:100EE000F8E60C78234EA4001C1925882E40802596
:100EF000AD0035432580EDE6454625401A4C254397
:100F000015800A7892009A1814880DE75509D206C0
:100F100001D1013DADB2184AAD0215432580BDE7B0
:100F200002200DE70C78134EA4001C1925883540CB
:100F30002580CFE60C780F4EA4001C1925882E4082
:100F40008025ED0035432580C4E6C0460F0F000024
:100F50008080FFFFBF8FFFFF0F0E00008081FFFF2B
:100F60000404000080C0FFFFC080FFFF8FBFFFFFB1
:100F7000060400008F89FFFF0080FFFF7F22F0B58D
:100F80004CB20A40002C5FDBCB00591AF4238900D5
:100F90000931FF314118E40F0A704C705B00C25CEC
:100FA000012A5ED00122C2548B7A0468002B14D12E
:100FB0000B784E789A00A2181588002E53D06B0635
:100FC00000D58FE04C4B1D404C4B1D431580F42346
:100FD00000225B00C2540020F0BD80250B784F78C2
:100FE0009E00A6193288ED011540002F4CD1002D2E
:100FF00005D0434B1A40434B1A4332800B789A007A
:10100000A21815886E0605D53D4B1D403E4B1D436D
:1010100015800B789A00A2181388394D1D403A4B61
:101020002B4313800B78394D9B00E3181A882A4014
:10103000324D2A431A800B782F499B00E3181A88F7
:101040000A4015431D80C2E7F423D100891A8900A4
:1010500028314118E40F0A704C705B00C25C012A11
:10106000A0D10220B8E76E0405D5254B1D40254BC5
:101070001D4315800B789B00E3181A882349114003
:101080001E4A0A431A80A2E713001D4F3B40002D61
:1010900008D01C4A134333803B000E78B600A619D3
:1010A00032881340520608D5174A134333800E780E
:1010B000134AB600A61933881340124A0E4D134343
:1010C00033800B789B00E3181A882A400B4D2A4383
:1010D0001A800B780D499B00E3181A880A401543C3
:1010E0001D8074E7064B1D40074B1D4315800A7891
:1010F0009200A218158865E7BF8FFFFF8080FFFF71
:101100000F0F000080C0FFFFC080FFFF8FBFFFFFF9
:10111000F0B57F24D6464F4646462140CC00A24635
:10112000641AA4000419C0B5260027001936FF363A
:10113000326000222137FF37043633603A60173FB0
:101140003A701534013F3970FF342468A3423ED908
:101150001B1B3360892553466D00AC465A1A92001A
:10116000821894441700654609372D78FF370668C2
:101170003B78002D2ED15022B75ADA006F4BD2198E
:10118000F318D2183E2C00D882E063099BB2E40623
:1011900001D1013B9BB26A4C9B022343138053460F
:1011A000591A890040180930FF3003789B00F31862
:1011B0001988644A00201140C02292015140624ABD
:1011C0000A431A801CBC90469946A246F0BD326084
:1011D0001C00BFE70A32FF321578AC46002D36D12D
:1011E0005022B25ADB009B18584AB2189B183E2C6A
:1011F0005ED91F272740BC466546620992B2170098
:10120000002D01D1571EBFB24D4DBF022F431F808D
:1012100053465F1ABF00C7193B000A33FF331B78E0
:101220009846002B6FD150230937FF37F45A3B788B
:10123000DB001B19414C34191B196446002C01D1E9
:10124000013A92B294023E4A22431A8028E0012DCC
:10125000ACD14F35A946755BDB00A8463B4D4344F6
:10126000A8469B1943441C8013789846002B4AD10A
:101270004B46F25A3B78DB009B18304AB2189B1859
:101280003E2C56D91F22224064099446A2B2D4E7CC
:1012900063089BB2E40701D501339BB29B02138024
:1012A0005346591A890040180930FF3003787DE70A
:1012B0000127620892B22740944602D0551CADB275
:1012C000AC466546AD021D800A255346FF35AC4647
:1012D0005B1A9B00C3189C4465462D78A846002DD8
:1012E00011D15024345B0933A446FF331B78134CCF
:1012F000DB00634434191B19002F01D0013292B274
:1013000092021A80CCE753464246591A8900401887
:101310000930FF300378012A00D047E74F32B25A34
:10132000DB00F3189B18054A944663441C8003783D
:101330003CE7674627406408A2B2DDE706040000E8
:101340000080FFFF8FBFFFFF8080FFFF02040000CF
:10135000F0B57F244746CE462140CC00651AAD004B
:10136000451980B5AA632A00002601272932EB63BC
:101370002E64013A577011706A6B934200D894E062
:101380009B1AEB638023DB009846631A9B00C71807
:101390003B00160432330568360C1B78013676089C
:1013A000A844002B32D1BB6BBF8D92B29446474408
:1013B000002E0CD0FA1A904676009E195A781F78A3
:1013C00012023A434746DA5302339E42F6D1502383
:1013D000611A890040182830EA5A0378DB009B180C
:1013E0005A4AEB189046624643441A8003789B00A1
:1013F000EB181A88564900200A4030214A405549C6
:101400000A431A800CBC90469946F0BD3B00283335
:101410001B7899463B004F46BF007F5B29331B7802
:101420007F0645D5002B5ED14F465033EB5AFF0067
:10143000FF18494BEB18FF183E2A00D87DE05309EE
:101440009BB2D20601D1013B9BB2444A9B0213439B
:101450003B80631A9B00C3181A8E631A9B00C31843
:101460009B6B4244002E0CD0D21A944676009E19F3
:101470005A781F7812023A436746DA530233B3426E
:10148000F6D1611A890040180300283029331978F1
:1014900003789B00EB181A88002940D00129A9D1B4
:1014A0002F490A402F490A439FE7EE631A0069E774
:1014B000002B26D14F465033EB5AFF00FF18234B29
:1014C000EB18FF183E2A2FD953099BB2D20601D13F
:1014D000013B9BB2214A9B0213433B80631A9B0052
:1014E000C318DA8DB9E7012BB3D14F33EB5A1A4F3A
:1014F0009C464B46DB006344BC465B1963441A8040
:10150000A7E7012BEAD14F33EB5A104F9C464B46CD
:10151000DB006344BC465B1963441A80DEE7104974
:101520000A4011490A4360E753089BB2D20701D52C
:1015300001339BB29B023B80D0E753089BB2D2079A
:1015400001D501339BB29B023B8082E7020400007D
:10155000BF8FFFFF8080FFFF060400000080FFFFB9
:101560000F0F000080C0FFFFC080FFFFF0B54546B1
:10157000DE4657464E464422E0B5036887B09A5A85
:10158000050012B2002A00DA6CE04422995A49059B
:101590004BD44422995A490403D5995AC64801406C
:1015A00099524422995A890403D5995AC348014053
:1015B000995244241A5BD20427D44422995A09052B
:1015C00010D5995ABE480824014099524021585AD2
:1015D000204304245852585A204358529A5AD2044D
:1015E00000D489E14422995A890532D44422995A77
:1015F000C90503D5995AB3480140995207B03CBC7C
:1016000090469946A246AB46F0BD40220420995A26
:1016100081439952AC4928009952FEF7B3FF2B68D9
:10162000AA491A5B0A401A53C7E7995AA8480140C9
:1016300099522800FEF782FFF4225200AB5C012B86
:1016400000D1EAE14C2180202B6858520021A95496
:101650009FE7995A9F48014099522800FEF766FF7C
:101660002B68C3E7002204A9CA8044329146353A68
:1016700093464A469A5A04A992B28A8012B2002A24
:1016800000DB82E704AA94885A46144046D104AA93
:101690009288D20600D4E1E01A8804A9CA80C988D9
:1016A000090500D57EE104A9C98809B20029E0DA5C
:1016B00089492C000A401A805022995AB832AA5CF3
:1016C0000934D20052188549D2188C4662441788D2
:1016D000FF34BA05920DA26100D082E200212800F9
:1016E000FEF70AFF50222B687C499A5A59188A182B
:1016F000E1683E2900D90DE2480880B2C90701D54A
:10170000013080B2800210801988754A1140C022D1
:1017100092015140734A0A431A80AAE7A600981919
:10172000018804AAD180D28812B2002A4FDB80211E
:1017300004AAD28811429CD09E1932886A490A4074
:1017400032806A4A9E18E200111B8900691808005D
:1017500032300078002800D1D3E00800283000782B
:10176000C7008000C05A400600D458E15020185AE3
:101770003018C05B8005800D086400D059E2111B51
:101780008900691828310978594F89005918088843
:1017900007405848384308805021141BA4002C19D6
:1017A000585A210028310B78DB001B189A5BA36B79
:1017B00092059C46920D2264E36B6244A263097811
:1017C0002800002B74D1FEF7A5FE2B6851E7424A92
:1017D0001140E2000180111B8900691808001330D4
:1017E000FF300078002800D0B6E050301F5A0800C3
:1017F0000930FF300078C000C019384FC018BC460F
:101800006044008880468005800D8446674600203D
:10181000002F00D0B1E1171BBF00EF193A002132B1
:10182000FF3213681B1813603B001933FF331A682B
:1018300012181A6004331B68002B00D11AE139001A
:101840001537FF3709313F68FF310978874200D8E3
:101850008EE12800FEF750FE2B6868E71A882249BF
:1018600028000A401A805022995A283AAA5CD200CD
:101870009B181E4A5B189446AA6B634494461B88C7
:1018800000219B059B0D2B646344AB63FEF742FE76
:101890002422AB5C002B0DD0E96B2B68002900D013
:1018A000E7E68024A85C2043343C1853A954E0E6C2
:1018B000FFF74EFD2B68DCE6FFBFFFFFFFDFFFFFFA
:1018C000FFF7FFFFFFFEFFFF00BDFFFFFFEFFFFF82
:1018D000FFFBFFFFFFFDFFFF8F0F0000060400006E
:1018E0008FBFFFFF8080FFFF0F8FFFFF020400000C
:1018F0000F0F000080C0FFFF2800FEF731FE2B68AD
:1019000070E650301F5A080028300078C000C01917
:10191000805B8005800D086400D13DE78F6B898D69
:10192000013088468021C9008C464146400840006D
:1019300061448446C918BC44C91B604690469C4615
:101940000B0079783A7809021143F952023787423D
:10195000F7D1634642461FE708000930FF300078A0
:101960008700B846984447463F88C000BA467F047F
:1019700000D483E05027DF5BDF193818BB4FBC462B
:101980006044008887058446BF0D0020002F00D0EA
:10199000CBE05146B64B19400B00B6490B434146CC
:1019A0000B8038E75022995AB832AA5C2F00D20037
:1019B0005218B149D2188C466244128806399605ED
:1019C00094462A0088460932B60DFF329661928805
:1019D000ED374244FF377608D318002E0ED0390079
:1019E000340018000288013C0A70120A4A70023062
:1019F0000231002CF6D176009B19BF196246D2073E
:101A000001D51B883B702A689C49138828000B402D
:101A10001380FEF767FD2B682BE62B68B9E5502095
:101A2000185A1818C019944FBC46604400888005A5
:101A3000800D086400D1A2E68F6B098E01308846C4
:101A40008021C9008C4641464008400061448446DC
:101A5000C918BC44C91B604690469C460B00797867
:101A60003A7809021143F95202378742F7D16346A7
:101A7000424684E60937FF373978EAE65027DF5BCC
:101A8000DF1938187C4FBC466044008887058446BF
:101A9000BF0D0020002F00D17BE708001131FF317E
:101AA0000988193001918021C9008A46FF300199C7
:101AB000006851448046CB1878080290019314D0F6
:101AC000039041461800401A92460200039B505A68
:101AD000013B0870000A48700231002BF7D15246D2
:101AE000029B5900019B88445B1861463800C90776
:101AF00002D541461B880B702968131B88469B0042
:101B0000EB180933FF331B789B00984443461B882E
:101B10009A463EE7480980B2C90601D1013880B231
:101B20005749800208431080EEE508000F31FF316D
:101B30000988193001918021C9008A46FF30019936
:101B4000006851448046CB18780802900193CCD0AD
:101B5000039041461800401A92460200039B505AD7
:101B6000013B0870000A48700231002BF7D1B6E73C
:101B70002800FFF7CDFA2B68D9E508000D31FF31B9
:101B80000988193002918021C900FF308A46076810
:101B90006046029940085144CB1801970390190000
:101BA000002815D039000700581A9A460300585AE1
:101BB000013F0870000A48700231002FF7D15346E8
:101BC000039948001918019B9A4682445346019391
:101BD00043466046DB0700D41DE60B8801990B7075
:101BE00019E6216952088C468021C9008A46904630
:101BF000A2885244D3184246002A0FD06146464676
:101C000018000288013E0A70120A4A70023002313E
:101C1000002EF6D1424652009B189444FA0702D592
:101C200062461B881370A26923699446634423614A
:101C300054E58F6BC98D013088468021C9008C46E0
:101C400041464008400061448446C918BC44C91B51
:101C5000604690469C460B0079783A780902114319
:101C6000F95202378742F7D101E7C046020400006B
:101C70000F0F0000C080FFFF060400008F0F000060
:101C80000080FFFFF42330B55B00C25C012A4AD01C
:101C90000125C5546A3BFF3B4AB20B400468002A49
:101CA00029DBCA00511A890041180A000B32FF32A1
:101CB0001570023A137000220A31FF310A70002BAE
:101CC0000DD12288194B1A40194B5A40194B134316
:101CD0002380F42300225B00C254002030BD9B000F
:101CE000E3181988144A1140802252015140114AC8
:101CF0000A431A80EDE7DA00D21A92008218110026
:101D00002A310D70293202390B701570002BD8D092
:101D10009B00E4182288094B1A4010235A40054BB7
:101D20001A432280D5E70220D8E7C046BFBFFFFF95
:101D3000101000008080FFFF8FBFFFFFBF8FFFFFED
:101D400030B57F244AB20C40002A49DBCB00591A37
:101D500089000931FF3141180023D20F8B70E9331C
:101D60000C704A70FF33C25C012A3FD00122C2547A
:101D70004B780468002B1CD10B789B00E3181A8861
:101D8000550408D51A4D2A401A4D2A431A800B785B
:101D90009B00E3181A8818490A40C0218901514064
:101DA000164A0A431A80F42300225B00C254002022
:101DB00030BD0B789B00E3181A88550608D50C4DEA
:101DC0002A400F4D2A431A800B789B00E3181A888B
:101DD0000C490A4030214A4008490A431A80E2E788
:101DE000E100091B890028314118B5E70220DFE72F
:101DF0000F0F000080C0FFFF8FBFFFFF8080FFFF3D
:101E0000C080FFFFBF8FFFFF10B50C0610D57F24E9
:101E10002140CC00611A89002831401899B2002A6B
:101E20000FD001221B0C8272C1800381002010BDE3
:101E3000CC00611A89000931FF31401899B2002A9B
:101E4000EFD182728180F1E770B504000120002C8F
:101E500014D0692624230025A35523681A688243D9
:101E60001A6020001D605D609D60FEF7C5FD6A235D
:101E70000020E566A555E554023BE55470BDC0461B
:101E800003006A2070B51C5C6838202C2DD1002915
:101E90002CD00138002A28D080259C686D01AC42E6
:101EA00026D068255E5D012E4DD0585559655821C4
:101EB0005A5202315A52002C2CD11A69002A3ED1B2
:101EC0005C22FF21995200226A212220DA665854AE
:101ED00002395A541B6867399A6800200A439A608D
:101EE0009022196852000A431A6070BD0120FCE775
:101EF0001C69002C19D10142F7D16820185C012817
:101F000021D0596558215A5202315A525C220F4948
:101F10009952D8E7802252059442D4D11A69002AF6
:101F20000DD05C223F219952CDE76820185C012832
:101F300009D0596558215A5202315A52C0E75C22E1
:101F40007F219952BFE70220CFE7C046FF01000082
:101F5000036812491A6810B50A401A609A6823315A
:101F6000FF318A439A604022996804000A420AD0ED
:101F70009968406E91439960002804D00023436320
:101F800001F002F823685A220021A1524B3A1A624A
:101F90006A2311320020E25410BDC046DFFEFFFF6D
:101FA0007047C04600235A2210B5406A8352083A4F
:101FB0008352FEF7D3FD10BD6A226923C35C805CA7
:101FC0001843704770B504000568C16983680069EB
:101FD0002A6803436069034344480B4302401343A8
:101FE0002B606B68424A206A1340E26813436B60BF
:101FF000A369AA6803433F4802401343AB603E4BCA
:102000009D4219D03D4B9D4205D080231B02994231
:102010002AD0012070BD80231B02994234D000F0E9
:1020200055FD616824684B081818FEF775F8000420
:10203000000CE0600020EDE7314B1A6B03231340E6
:10204000304AD35C80221202914211D0022B34D04C
:1020500047D9042B2BD0082BDBD1802361681B02CE
:1020600048082DE0002B0FD000230120EB60D1E7C2
:10207000022B2ED0F6D9042B1CD0082BF4D18023B0
:1020800061685B02480827E000F020FD63684000BB
:102090005B08C0186168FEF73FF825680F22030748
:1020A0005B0F904303439BB20020EB60B2E700F06C
:1020B00037FCB6E700F034FCE8E76168124B4808EB
:1020C0009C466044FEF728F80004000CE8600020FD
:1020D000A0E761680D4B48089C466044FEF71CF879
:1020E000DCE7002B00D094E799E7C046F369FFEFE7
:1020F000FFCFFFFFFFF4FFFF003801400044004026
:10210000001002403C6C000800127A000024F40029
:10211000436A30B5DA0706D50168284C4A68224080
:10212000846A22434A609A0706D50168244C4A68AB
:102130002240C46A22434A605A0706D50168214CEE
:102140004A682240046B22434A601A0706D5016898
:102150001D4C4A682240446B22434A60DA0606D589
:1021600001681A4C8A682240846B22438A609A066E
:1021700006D50168164C8A682240C46B22438A60E7
:102180005A060AD50168134D4A68046C2A40224356
:102190004A6080225203944209D01B0606D5026889
:1021A0000D4953680B40816C0B43536030BD4A6846
:1021B0000A4C2240446C22434A60EEE7FFFFFDFFD9
:1021C000FFFFFEFFFFFFFBFFFF7FFFFFFFEFFFFFB4
:1021D000FFDFFFFFFFFFEFFFFFFFF7FFFFFF9FFFA7
:1021E00010B5041E31D06923C35CDBB2002B27D0AD
:1021F000692324220121E2542268200013688B43C2
:102200001360FFF7DFFE01281FD0636A002B1ED189
:10221000236811495A6800200A4008215A609A68C8
:102220008A439A601A6807390A431A6020220023F9
:102230006831E3666254013162544832A35410BDE0
:1022400068228354FEF79EFBD2E70120F7E72000C7
:10225000FFF75EFFDCE7C046FFF7FFFF692210B51E
:10226000825C03000220212A14D13132995A1A6863
:10227000002910D080209C68D96C4001844214D081
:10228000481CD86409781185522100205A5A013A15
:1022900092B25A5210BD136880318B431360136899
:1022A00040390B4313600020F4E718690028E7D198
:1022B00008880231C005C00D1085D964E4E7C04626
:1022C0006A2370B5C25C0368222A17D180249B8CD4
:1022D00085683A32825A9BB2416D6401A54213D09F
:1022E0004C1C134044650B705A22835A0024013B56
:1022F0009BB28352002B0FD0200070BD08219A6939
:1023000002240A439A61F7E70469002CE8D11340DC
:102310000B8002314165E7E7036807491A680A4004
:102320001A609A682331FF318A439A606A23202217
:10233000C254FEF709FCDFE7DFFEFFFF036870B55C
:10234000DA690400196810070FD1202010425AD111
:1023500098688020104202D0084200D07CE04020E3
:10236000104201D0084267D170BD0125986828400D
:102370004FD00125154205D0CE0503D51D62E66E6E
:102380003543E566022515424BD0002806D00426C9
:102390001D62E56E3543E566164246D1150703D545
:1023A0008D0653D4002851D1E06E0028DCD02020C7
:1023B000104201D0084257D1E26E120703D44025E3
:1023C0009A68154055D01A682C490A401A609A68D4
:1023D0002331FF318A439A606A221F31A1549A68DF
:1023E000203111423CD09A68606E8A439A6000287E
:1023F00036D0234B436300F0DDFD0028B4D0606E7F
:10240000436B9847B0E70842A2D02000FFF758FF7F
:10241000AAE790256D0029429BD001251542B1D035
:10242000AAE75507BAD50028B8D0042502261D62B0
:10243000E56E3543E566B1E71A6882431A606923A1
:1024400020222000E254FFF7ABFD8DE708251D6236
:10245000E06E2843E066A7E72000FFF7FFFE83E772
:102460002000FEF77BFB7FE72000FFF729FF2368B2
:10247000A2E72000FEF772FBE56675E7DFFEFFFFCF
:10248000A51F0008F0B5CE46474680B5036883B067
:102490000400DA072FD50C21C44842680A40042AF8
:1024A00000D1DFE042681140082900D1D1E0636823
:1024B000012B00D110E1002B00D143E1052B00D10D
:1024C00010E2BA4BBA491A680A401A601A68B94948
:1024D0000A401A6000F0CCFB80250700B34EAD0225
:1024E00005E000F0C5FBC01B642800D928E1336873
:1024F0002B42F6D023689A0729D50C22AB494868AD
:10250000024200D1C2E048680240082A00D1B4E08B
:10251000E368A64D002B00D154E101222B6802266E
:1025200013432B6000F0A4FB070005E000F0A0FBC4
:10253000C01B022800D903E12B681E42F6D0F82107
:102540002A6823698A43DB0013432B6023681A0738
:102550002BD45A0743D58022944B5205D9690025C4
:10256000114207D1D96901351143D961DB691A409C
:102570000192019B8026904F76003B68334200D148
:10258000B1E0A368012B00D1BEE0002B00D1F2E046
:10259000052B00D147E10121844B1A6A8A431A6254
:1025A0001A6A03318A431A62B2E0E3697F4D002B55
:1025B00000D17EE001226B6A022613436B6200F0B9
:1025C00057FB070005E000F053FBC01B022800D9B1
:1025D000B6E06B6A1E42F6D023685A07BBD4DB060E
:1025E00012D56369012B00D15EE1053300D0FCE018
:1025F0000421F8206D4A536B8B435363516BA369DD
:102600008143DB000B435363236A002B1BD00C2256
:10261000664D69680A40082A2DD0022B00D10CE1D2
:102620002B68664A802413402B6000F021FBA40431
:10263000060005E000F01CFB801B022800D97FE0AB
:102640002B682342F6D1002003B00CBC904699467B
:10265000F0BDC021426849020A40802149028A42F5
:1026600000D024E7514A1268920300D443E762681D
:10267000002A00D03FE70120E6E74A68C02149026E
:102680000A40802109028A4200D041E7474A126885
:10269000920702D5E268012AEDD1F8254348226964
:1026A0000168D200A9430A4302601A0700D450E728
:1026B0007BE701226B6A022693436B6200F0D8FA33
:1026C000070004E000F0D4FAC01B022838D86B6A77
:1026D0001E42F7D1236880E78023344A5B021168E9
:1026E0000B431360F6E63B6833433B6000F0C0FAEF
:1026F000804605E000F0BCFA4346C01A64281FD8A3
:102700003B683342F6D03CE728490A6A13430B6220
:1027100000F0AEFA2A4B8146244F0226984605E087
:1027200000F0A6FA4B46C01A404509D83B6A1E4243
:10273000F6D0012D70D02368DB0600D464E750E7A3
:10274000032081E7194D1A4A2B68802613402B601D
:102750002B68184AB60213402B6000F089FA070074
:1027600004E000F085FAC01B6428E9D82B683342E6
:10277000F7D12368BFE601220C4E0227336A934348
:102780003362336A03329343336200F071FA0C4BC5
:102790008146984605E000F06BFA4B46C01A40456A
:1027A000CED8336A1F42F6D1C3E7C04600100240BC
:1027B000FFFFFEFFFFFFFBFF00700040FFFFFFFE7B
:1027C0008813000001222B68022693432B6000F03F
:1027D0004FFA070004E000F04BFAC01B0228AFD804
:1027E0002B681E42F7D12368B1E60422434D02262E
:1027F0006B6B13436B636B6B033A93436B6300F038
:1028000037FA070004E000F033FAC01B022897D81B
:102810006B6B1E42F7D1F7E6384A3949D3690B4052
:10282000D361236888E70421344B1A6A0A431A6289
:102830001A6A03390A431A626AE72B68314A80260A
:1028400013402B6000F014FAB604070005E000F016
:102850000FFAC01B022800D972E72B683342F6D169
:102860000F22EB6A9343E26A1343EB62616AA36A45
:102870006A680B43244980240A4013436B60802319
:102880002A685B0413432B6000F0F2F91B4D06002D
:10289000A40405E000F0ECF9801B022800D94FE702
:1028A0002B682342F6D0CEE60421144D02266A6B33
:1028B0000A436A636A6B13436B6300F0D9F907003C
:1028C00005E000F0D5F9C01B022800D938E76B6B92
:1028D0001E42F6D0F8216A6BA3698A43DB001343DA
:1028E0006B6391E68022054BD20219680A431A6095
:1028F0008022196852020A431A60EBE50010024078
:10290000FFFFFFEFFFFFFFFEFF7FC2FF8023034AB1
:102910001B0311680B4313607047C0460010024050
:1029200070B588B06946114B0A00180070C870C2B3
:1029300000681033106004AA100070CB70C01B68D0
:102940000B4C03600C2063681840082802D009482B
:1029500008B070BDE06A0F249B0C23400440CD5C9E
:102960000448115DFDF7D8FB6843F1E78C6B000864
:102970000010024000127A00F8B5CE464746012307
:102980000C00494980B50A6805001A40A2420CD2E1
:102990000A689A4322430A600A681340A34204D09B
:1029A00001200CBC90469946F8BD2B689A0706D5C5
:1029B000F0203E494A688243A86802434A60DB0728
:1029C00024D53A4B6A681B68012A48D0022A43D0B2
:1029D0009B07E5D50321354E73688B431343736022
:1029E00000F046F96B680700012B3DD0022B4BD05D
:1029F0000C2398462E4B994604E000F039F9C01B91
:102A000048452FD8424673681A42F6D10121264A1A
:102A100013680B40A34205D913688B4313601368F6
:102A20001942BDD12B685B0706D5204A214953685E
:102A30000B40E9680B435360FFF772FF1B4B1E4AC4
:102A40005B681B061B0FD35CD8401C4B1860002032
:102A500000F0E4F80020A4E79B01BBD4A0E79B03AF
:102A6000B8D49DE703209CE70B339846104B99465A
:102A700004E000F0FDF8C01B4845F3D842467368F7
:102A80001340042BF5D1C1E70A339846084B994609
:102A900004E000F0EDF8C01B4845E3D842467368F7
:102AA0001340082BF5D1B1E700200240001002408E
:102AB00088130000FFF8FFFF406C00088000002032
:102AC000014B18687047C04680000020044B054A3F
:102AD0005B685B055B0FD35C034A1068D8407047A6
:102AE00000100240506C000880000020F0B5CE4677
:102AF000474680B5036883B00400DA0336D58022E8
:102B0000404B5205D9690027114207D1D9690137D5
:102B10001143D961DB691A400192019B80263A4D2D
:102B200076002B68334242D0C021364D89002A6A94
:102B300060680A4011D0014091420ED08022296A7B
:102B40002E6A520232432A622A6A304B304E0B40C0
:102B500032402A622B62CB0742D42A4A2B49136A9D
:102B60000B4003431362012F32D02368DA0706D5E6
:102B7000032024490A6B8243A06802430A639A0631
:102B800006D510201F490A6B8243E06802430A639E
:102B900000209B0306D580211A4A136B8B432169C1
:102BA0000B43136303B00CBC90469946F0BD2B68F1
:102BB00033432B6000F05CF8804605E000F058F8E5
:102BC0004346C01A642809D82B683342F6D0ABE7D5
:102BD000D36910490B40D3612368C7E70320E1E7BD
:102BE00000F046F80C4B80460226994605E000F0BE
:102BF0003FF84346C01A4845F0D82B6A1E42F6D02B
:102C00006068AAE70010024000700040FFFCFFFF70
:102C1000FFFFFEFFFFFFFFEF8813000010B5040069
:102C2000FFF74EFFFA218900FDF776FA00F02EFA41
:102C3000012000222100404200F0E0F9002010BDF8
:102C40001021064A10B5136800200B431360FFF7EC
:102C5000E5FFFDF779FE002010BDC04600200240D0
:102C6000024A1368013313607047C046D40F002036
:102C7000014B18687047C046D40F0020F0B54E468F
:102C8000DE4657464546E0B58946096885B00029C5
:102C900000D17EE06C4B00229B466C4B8A469846E6
:102CA0000125544695402C4000946ED04B465968FF
:102CB00010230F009F430197022F00D170E003689B
:102CC00056009C460323B3406446DB431C40270068
:102CD00003240C40B440A4463C0067463C43019F9B
:102CE0000460013F012F00D877E0C5682B404D46B6
:102CF000AD68B5402B43C36080235B05194244D0C7
:102D00005B4601245D4603260F279B69164023433B
:102D1000AB61AB69B60023404D4CB740A44690244C
:102D20000393039B93089B0063449D68E405BD43A4
:102D3000A0420ED0474FB84200D17CE0464FB84287
:102D400000D174E0454FB84200D178E00527B74084
:102D50003D439D604346009C1B68E543CC034ED435
:102D600044462B40236063688C034FD444462B4079
:102D70006360A368CC0250D444462B40A360E36850
:102D8000890251D42B404146CB6053460132D34097
:102D900086D105B03CBC90469946A246AB46F0BDF4
:102DA00007260F241640B600B440D3089B00C31872
:102DB0001F6AA7434C462469B44026003E431E6266
:102DC00003235600B340DB4307681F40BC4603277C
:102DD0000F40B74064462743076087684C461F4052
:102DE000BC46E7686446B7402743012487604768CC
:102DF000AF430D09254095403D43456075E7009C74
:102E000023434446236063688C03AFD5009C23436F
:102E100044466360A368CC02AED5009C234344467D
:102E2000A360E3688902ADD500990B43ABE70227A5
:102E3000B7403D438DE70124B440254389E703248F
:102E4000B440254385E7C04600100240000401401D
:102E5000000001400004004800080048000C004841
:102E6000F0B5DE4657464E464546E0B583B00029EC
:102E700067D001229446023290460C3200239146DC
:102E800023E0394FB84263D0384FB84264D0384F4E
:102E9000B84265D00527A7403C00A64211D156464E
:102EA000ED439468B4439460324C22682A40226017
:102EB00062682A406260A2682A40A260E268154007
:102EC000E5600A000133DA403BD066460D009E40C3
:102ED0003540F6D047465C00A740FC4302682240DC
:102EE0000260DA089200871801973F6ABA460727FE
:102EF0001F40BF00BB464F465A469740BB46574609
:102F00005A4697433A00019F3A6282684F462240F0
:102F100082604268B2434260C2681440C460164C8A
:102F20009A08A24644461C40A400A740920052447E
:102F30009668BA463E409027FF05B842A1D10024CA
:102F4000ABE703B03CBC90469946A246AB46F0BD09
:102F50006746A7403C00A0E70227A7403C009CE74B
:102F60004746A7403C0098E7000400480008004896
:102F7000000C00480004014000000140002A01D17B
:102F8000816270478161FCE70E21036810B51A6801
:102F9000046C8A431A600122196891431960110078
:102FA000A140C36B59602123C2540022013BC2548B
:102FB000002010BD212370B5C25C022A03D01D3B46
:102FC0008363012070BD0E240268056C1168A14363
:102FD0001160012114688C4314600C00AC40C26B7A
:102FE0005460C15400222023C254436B002B02D0F2
:102FF00098470020E6E70020E4E7C046FF220323CD
:1030000030B51400C5B22B40DB009C4089010A405A
:10301000E4439A4000280BDB0C4B80089C46C023FD
:10302000800060449B00C1580C402243C25030BD18
:103030000F2307492B408C46083B9B089B006344A9
:10304000D9690C402243DA61F1E7C04600E100E0B3
:1030500000ED00E0002805DB1F2318401E3B8340E5
:10306000014A13607047C04600E100E000280ADB17
:103070001F2318401E3B8340802203498B50BFF31F
:103080004F8FBFF36F8F704700E100E00A4A431E85
:10309000012093420ED8C021084A09485360036AB0
:1030A00009061B021B0A0B430362002300209360E6
:1030B000073313607047C046FFFFFF0010E000E0D9
:1030C00000ED00E00121134B13481A680A431A600F
:1030D0005A6802405A601A68104802401A601A681A
:1030E0000F4802401A605A680E4802400F205A608A
:1030F000DA6A8243DA621A6B0B48024080201A6354
:103100001A6B02431A635A6B8A435A6300229A600D
:103110007047C046001002400CB8FF08FFFFF6FEE3
:10312000FFFFFBFFFFFFC0FF6CFEFFFF10B5002895
:1031300014D085239B00C458002C01D00024C45017
:10314000002902D084239B00C150FE2301215B0093
:10315000C1540270FDF72AFA002010BD0220FCE7DE
:10316000002904D085239B00C15000207047022015
:10317000FCE7C04610B5FDF753FA002010BDC0466D
:1031800085239B00C35810B5002B04D01B689847BB
:10319000002800D110BD0220FCE7C046852310B5F1
:1031A0009B00C3585B689847002010BD82239B009A
:1031B00070B5C5180400280000F00AFBFA230122AC
:1031C0005B00E250124BE25A163BE2501033E15CD6
:1031D000EA3BFF3B0B40012B14D0002B0DD0022B00
:1031E00006D07F2320009943FDF74CFA002070BDE4
:1031F0002900200000F07AFAF8E72900200000F00A
:10320000EFF8F3E72900200000F04EFAEEE7C046A1
:103210000E02000010B513000400002906D1FA22A6
:1032200052008258032A0ED0002010BD85239B0037
:10323000C3589B69002BF7D0FE225200825C032A00
:10324000F2D19847F0E70530FF308168C2689142BB
:1032500010D885239B00E3581B69002B06D0FE2263
:103260005200A25C032A01D120009847200000F000
:1032700023FBD9E7891A81608A4205D892B21900E6
:10328000200000F011FBCFE70A00F7E7F8B50400D3
:10329000130000290BD1FA2252008258022A16D0BC
:1032A00080239B00E25C012A0ED00020F8BD85231C
:1032B0009B00C3585B69002BF7D0FE225200825C52
:1032C000032AF2D19847F0E70022E254EDE7C26901
:1032D000056AAA421ED8866929003000FCF7A2FFC1
:1032E0000F1E01D1B54222D985239B00E358DB682C
:1032F000002B06D0FE225200A25C032A01D120003E
:103300009847200000F0E4FA80239B00E25C012A49
:10331000CBD1D9E7521BC261190092B200F0ACFACE
:103320000023002200212000FDF704FAB8E7FC2565
:103330006D0063599E42D7D200220021200000F088
:103340009BFA6751ECE7C04670B54023002200218C
:103350000400FDF775F9882340255B00E550002245
:10336000D03B80212000FDF76BF9FE2301225B009A
:103370002562E2541C33E358002B06D085239B00C2
:10338000E35821795B6820009847002070BDC04653
:10339000017400207047C046FE23FE225B00C15C22
:1033A000FF328154FA3AFF3AC25400207047C046B7
:1033B000FE23FF33C25C013BC25400207047C0466D
:1033C000FE2310B55B00C35C032B01D0002010BDB1
:1033D00085239B00C358DB69002BF7D09847F5E79E
:1033E00070B54B7882B004000D00092B0AD8AA4AA8
:1033F0009B00D3589F468B88002B03D1CB88002B92
:1034000000D176E080212000FDF73CF9002120006A
:10341000FDF738F9002002B070BD8B789F4D2B70FE
:10342000012BEFD8FE214900425C022A79D0032A01
:10343000E8D1002B00D11CE14168012933D0C9B289
:10344000FFF7ACFE297820006160FFF799FE0228A3
:1034500029D1D7E7FE235B00C35C023B012BD1D807
:103460000123C36081239B00C358002B01D0032399
:10347000C360210002220C31200000F0EFF9C9E7FF
:10348000FE235B00C35C023B012BBBD84B88012BA6
:10349000C0D1812300229B00C2501033E358290081
:1034A0009B6820009847200000F006FAB2E74B889E
:1034B000012BAFD181229200835085239B00EDE741
:1034C00049880B0A072B9DD8754A9B00D3589F4605
:1034D000CB88012B00D095E7FC33FF33C35C022B74
:1034E0002BD0032B00D08DE7011D012200F0B6F98F
:1034F00090E7FE267600835D032B00D182E77F25CF
:103500004B881D40FF235B00C5542900FDF7F2F8EE
:10351000200000F0D1F9002D00D19FE00223A35537
:1035200078E7002BBFD001234360023343540121CD
:10353000FFF726FE0228B6D164E70023010083606E
:103540000831012200F08AF964E7037C002B00D0E7
:1035500058E76B469E1D85239B00C35830001B6BAC
:103560009847072343703388002B00D152E7EA883D
:10357000002A00D14EE7191C934200D9111C8AB2CF
:1035800031800100200000F069F943E7037C002B43
:1035900000D037E76B469E1D85239B00C358300043
:1035A0005B6B9847DFE7C9B205296CD83D4B8900B2
:1035B0005B589F468523027C9B00C358002A50D14C
:1035C0006A46961D9B6A3000984702234370CAE7FB
:1035D0006B469E1D84239B00E35831001B68007CD2
:1035E0009847C0E76B469E1D84239B00E35831003B
:1035F0009B68007C9847B6E76B469E1D84239B0022
:10360000E35831005B68007C9847ACE76B469E1D31
:1036100084239B00E35831009B69007C9847A2E714
:103620006B469E1D84239B00E35831001B69007C80
:10363000984798E76B469E1D84239B00E358310012
:10364000DB68007C98478EE76B469E1D84239B00B9
:10365000E35831005B69007C984784E70123A35558
:10366000D8E66A46961DDB6A30009847022343700D
:1036700079E70222425443600021FFF78FFD2000CA
:1036800000F01AF9C6E66B469E1D85239B00C358C1
:1036900032009B6B984766E7586C0008F0010020E9
:1036A000806C0008A06C0008FE2370B55B00C35C52
:1036B00004000D00032B0CD10B79012B09D88523B5
:1036C0009B00C3589B689847EB88002B0AD00020CA
:1036D00070BD80212000FCF7D5FF00212000FCF701
:1036E000D1FFF4E7200000F0E7F8F0E760230A7864
:1036F00070B5134005000C00202B06D1F533FF33C5
:10370000C3589B689847002070BD8A886378D1B2FF
:10371000012B35D0002B17D0032BF4D1FA33FF3314
:10372000C35C022B31D0032B40D16388002B03D123
:103730004B0601D0FCF7A6FF85239B00EB58210028
:103740009B68280098472DE0FE235B00C35C022B9A
:103750001BD0032B2AD17F240C402401130630D424
:103760000534FF3404192800FCF7ACFF002826D0EC
:103770000123236002222100280000F06FF8C2E735
:10378000FE235B00C35C022B05D14B06BBD0280097
:10379000FCF778FFB7E7032B08D16388002BB2D181
:1037A0004B0611D1280000F087F8ACE780212800F3
:1037B000FCF768FF00212800FCF764FFA3E7206006
:1037C000D8E714340419CEE7FCF76CFFB4E7C04621
:1037D0000B7803704B784370CA788B7812029B1871
:1037E00043804A790B7912029B188380CA798B79BE
:1037F00012029B18C380704710B504008021FCF7AB
:1038000041FF00212000FCF73DFF10BD30B500282E
:1038100020D00378002B1ED004000023013425782B
:103820000133DBB2002DF9D15B000233DCB213802F
:1038300003230C704B700478002C0BD00025013B47
:103840005A1CD2B2CC5401308D5404780233DBB20E
:10385000002CF5D130BD02240223E8E71300FA2240
:1038600010B50224520084500A008361C361002114
:10387000FCF750FF002010BD10B513000A00002116
:10388000FCF748FF002010BD1300FA2210B50324F6
:1038900052008450EC3A8350043283500A000021D5
:1038A000FCF748FF002010BD10B513000A000021EE
:1038B000FCF740FF002010BDFA23042210B55B0086
:1038C000C250002100230022FCF724FF002010BD7D
:1038D000FA23052210B55B00C2500021002300220C
:1038E000FCF728FF002010BD292303800048704703
:1038F000C0000020862300219B00C258C93BFF3B2B
:103900000020D1547047C04686239B0010B5C45890
:10391000E36C012B09D187239B00C3582278DB6815
:103920006178100098470023E364002010BDC04672
:103930000A23038000487047F8000020862370B5F2
:1039400004009B00C5580433E35869782878DB6885
:1039500098472A00402301212000FCF7EBFE0020BD
:1039600070BDC04686239B0010B50A78C458B93B89
:10397000FF3B13400AD0202B06D14B780B2B38D8B5
:103980002B4A9B00D3589F46002010BD4B780A2B32
:1039900033D00B2B0AD0062BF6D14B881B0A222BD7
:1039A0003AD0212B30D00021002229E08B78002052
:1039B000A364EAE78B7800202364E6E74B880020C5
:1039C0001B0A6364E1E70123E3648A792100FFF7BE
:1039D0005BFF0020D9E7210001224031FFF73EFFC5
:1039E0000020D2E7210001224431FFF737FF0020F9
:1039F000CBE7FFF701FF0220C7E721000122483192
:103A0000FFF72CFF0020C0E7CB881A1C092B00D938
:103A1000092292B20749F3E7CB881A1C202B00D960
:103A2000202287239B00C35892B21968E8E7C0465A
:103A3000B86C0008EC00002070B5040086258121D8
:103A4000FCF710FEAD0001212000FCF70BFE6359CE
:103A5000002B09D087239B00E3589B689847605947
:103A6000FCF77CFE00236351002070BD70B504009C
:103A7000402303228121FCF7E3FD4023032201219F
:103A80002000FCF7DDFD5420FCF764FE86239B003C
:103A9000051EE05010D00022C93BFF3BC254CD337D
:103AA000FF33E3585B68984740232A000121200038
:103AB000FCF740FE002070BD0120FCE770B5FE243D
:103AC0006400045D032C01D0002070BD86239B00A0
:103AD000C458C93BFF3BE55C002DF5D10135E554E9
:103AE00013000A008121FCF715FEEDE7002904D040
:103AF00087239B00C150002070470220FCE7C0468E
:103B0000F0B54E46DE4657464546E0B5027891B0E0
:103B10001300803BDBB204000E001F2B0CD94B1CA2
:103B200000930A70431C019303781E2B00D9CEE347
:103B3000D74A9B00D3589F4601F0FEFA04002000AC
:103B400011B03CBC90469946A246AB46F0BD4278C7
:103B5000002A01D100F0F8FF012A01D000F0EFFFA8
:103B6000837890209A430121C005FFF707FA0023CC
:103B7000C84C7370E3E7C84B1A78012A01D100F0F2
:103B8000AAFF022A06D14278DA769B7E934201D9B7
:103B900001F086F8FF23C14C7370D0E7BE4B9B4603
:103BA0001B780193012B01D100F029FF022B01D0DA
:103BB00000F01EFF0B1D039300235A46B84D2B70D7
:103BC0004378D376927E9A4201D800F0FCFFC37806
:103BD00082781B021343049301D100F0F4FF0379B0
:103BE000984699464246012313400A33180005932C
:103BF00001F02CFC4246019B134201D101F05DF91A
:103C00005B461F8A23004446984609E0002F01D1F5
:103C100001F0AFF92B78013F002B01D001F0A9F999
:103C20000021200001F020FC0228EFD044460128AA
:103C300001D001F000FA049B2A00013B029300230B
:103C400098460BAB9A46230055464C46B2469946D9
:103C50001600029B984501D101F0E2F95B461F8AEC
:103C600009E0002F01D101F0E9F83378013F002B82
:103C700001D001F0E3F82900200001F0F5FB022853
:103C8000EFD0012801D001F000FA0B9B03991A0A2A
:103C90000B704A701A0C1B0ECB7001239C46049BC0
:103CA0008A70E0440A1D03924345D2D161464C46D6
:103CB0005646DAB201911B0AB3706B461B797270DB
:103CC000F370009A039B9B1A2279920701D500F0AA
:103CD000A0FCE078A2780002104301308004184371
:103CE000704BC4182BE76C4B9B461B780993012B38
:103CF00001D100F0F1FC022B01D000F0CEFCCB1C76
:103D0000089300235A46664D2B704378D376927EF3
:103D10009A4201D800F07DFFC31C0393837804937B
:103D2000002B01D101F060F900230021B246069377
:103D30000293039B5A1C1C78012391460592022290
:103D400023400A330793224200D111E3029A002A4A
:103D500000D12CE35A46128A90468B4200D0A7E34A
:103D6000E30600D5A4E30BAF160009E0002E01D155
:103D700000F065FC2B78013E002B01D000F05FFCC9
:103D80003900200001F070FB0228EFD003000799F2
:103D9000012B01D001F054F90B9B08981A0A4270CC
:103DA0001A0C037082701B0E021DC3700892E3068A
:103DB00000D5FFE24B460393029B002B01D100F09C
:103DC0009EFE069B013306932B78002B01D001F059
:103DD00066F8049B013B0493002BAAD1029B564634
:103DE00099466B461C7E0A2902D00A2001F02EFB60
:103DF0005B461F8A4B46002B00D176E20BAB9A46FE
:103E000009E0002F01D101F053F82B78013F002B7E
:103E100001D001F04DF851460E2001F025FB02289B
:103E2000EFD02200012801D001F027F90B9B089C5C
:103E3000190A23706170190C1B0EE370231D08937F
:103E4000039BA1700593099059E24378124A134CE1
:103E50001373C37881781B020B4313824379017972
:103E60001B020B4353820023737068E600240A4B45
:103E7000102200210CA81C7002F067FA90207C230D
:103E80000BA9C0050B93FEF7F9FE7470064C56E6BD
:103E9000E86C000802000300D80F002002000600B2
:103EA0000810002001000100020001004478002CED
:103EB00000D129E3012C00D126E3022C01D000F02F
:103EC0007FFEA84B0C2200210DA81C7002F03DFAC9
:103ED0005423902003270B930BA9533BC0050C934D
:103EE0000E97FEF7CBFE902001221021C005FFF7B0
:103EF00045F8902001220421C005FFF73FF89020EB
:103F000001224021C005FFF739F820239020002529
:103F10000B930BA90F3BC0050C930D950E95FEF767
:103F2000ADFE90202021C0050122FFF727F8902048
:103F300008230BA9C0050B930C950D950E97FEF762
:103F40009DFE7470884CFAE543788D1C042B01D1DA
:103F500000F0C9FE00D877E3FD2B01D100F0CDFEC3
:103F600001D800F069FEFE2B01D100F0D6FEFF2B38
:103F700001D000F0CDFE40238B700023CB700233C4
:103F80007A4C7370DBE50099019802F0BDF8784B2C
:103F9000C418D4E50099019802F0F0F8744BC418E5
:103FA000CDE5009802F084F8714BC418C7E500997C
:103FB000019802F047F86E4BC418C0E500990198CB
:103FC00002F012F86A4BC418B9E50099019801F0A3
:103FD000DDFF674BC418B2E50099019801F0C0FFFE
:103FE000634BC418ABE55F4B1A78022A00D13DE35E
:103FF000FF235D4C7370A2E5831C5A4A9C464378AC
:1040000093469376002B1ED01D0014006346B046E5
:1040100000220021DC465E4628005D5C77180131F5
:104020003D770234E28352198842F6D8B346030042
:10403000594660464646CD18047F0130121B0A855A
:1040400002318542F8D1581C494B012400229C467C
:10405000000404437270644471E501228B1C9A468B
:10406000002300923E32012493464B704778831C14
:10407000013F63D35D461E785A1C9046354000D1FF
:1040800050E10735ED086B1C994630005246414619
:1040900001F0D0F8434676B25B194C44002EE7DAC3
:1040A000009AAA449446AC4462460092E0E7032298
:1040B00043782C491A405B07DB0F4B760023013213
:1040C0000A76294C73703AE58B1C9B46002301222B
:1040D00001244B704678831C0092013E2ED35A1C5B
:1040E0001D783F2390462B400827002B01D0DF1D71
:1040F000FF086BB2002B00DA18E10C2200210DA89A
:1041000002F023F9042390200B939A46033B0C936F
:104110000BA9C005994602330E93FEF7AFFD5A4630
:104120004146280001F044FD002E01D100F093FF2C
:1041300043460134DB19E419013ED0D2009B24042C
:104140001C430B4B9C466444F9E4811C40780028D6
:1041500000D06AE28020074C400001F005FD0023FA
:104160007370ECE4D80F002002000200040002008B
:104170000100010002002200837842780330417878
:10418000E47809022143847824042143C478240676
:104190000C4301210800184007D0114201D100F062
:1041A00009FD90211025C9058D6102210F001F40D6
:1041B00007D0114201D100F0F7FC90210425C90578
:1041C0008D6104211940009108D05507C649ED0FB3
:1041D000013D0D4090214035C9058D615DB2AC4671
:1041E000002D07DAC149D509013D0D409021203548
:1041F000C9058D61002C31D05108894691088B4644
:1042000051090191D1098A462021902501241940A4
:1042100088460099ED05002804D02B691B0923402E
:104220009A42F8D1002F04D02B699B08234099456E
:10423000F1D1002904D02B699B0923409B45EAD189
:104240004346002B02D0019B002BE4D16346002B98
:1042500004DA2B695B0923409A45DCD190220824BB
:10426000D2051369106911691569DB062C40DB0F53
:104270002343022440082040034304201269090913
:10428000014052090B43D20113437370984C56E41A
:104290000023984C8B704B7051E4019A417853780D
:1042A0001B020B43917809040B43D178090619438B
:1042B00000D1B5E1904B994201D800F061FC012298
:1042C0008E4B5A705A6000238D4C737037E4FF2375
:1042D0008C4C337033E4002F01D100F0E9FD2B78D2
:1042E000013F002B01D000F0E3FD00210E2001F082
:1042F000BBF80228EFD02200039B0990059372704F
:104300006B4624229B181B78019AB370059B9C1A5C
:10431000089B009A2404981A7A4B04439C466444F0
:10432000FFF70DFC092308259946AEE6102200216F
:104330000CA802F00AF8042390200B930BA9C005E7
:104340009A46013B99460E93FEF798FC5A46414621
:10435000280001F02DFC002E01D100F08EFD009B05
:1043600001349C46BC446346BB4400934346B4E6D8
:10437000029B002B00D023E14A464B4652781B7823
:1043800012021A434B469B781B041A434B46DB78B8
:104390001B061343039A0B930532039220222242F9
:1043A00000D1EDE05A4653610023029309E5E3068C
:1043B00000D4A4E34B461A785B7807981B021A4393
:1043C0004B469B781B0413434A46D27812061A4385
:1043D000039B9046053305935B465B8A994688426A
:1043E00001D001F033F85B461F8A07E0002F00D1AF
:1043F00025E12B78013F002B00D020E10021200097
:1044000001F032F80228F1D00300012801D000F0B9
:1044100002FE0BAF5B461E8A05E0002E3DD02A78D7
:10442000013E002A39D13900200001F01DF80300B7
:104430000228F2D05A460B9952690A40012801D04D
:1044400000F0E4FD4346934201D100F024FC4B46CA
:10445000002B06D00122524294462B78E144002BD7
:10446000D8D0029B5646994610230343DBB2022262
:1044700010210AE001420CD101340594049801385E
:104480000490002801D100F01FFC059C2078024216
:10449000F0D1059805300590F0E7029A564691460E
:1044A0000B995A465269114042468A42DCD1DEE7F6
:1044B0000A2902D00A2000F0C9FF0BAF464607E0E8
:1044C000002E00D186E32B78013E002B00D088E33C
:1044D00039000E2000F0C8FF0228F1D000220300AE
:1044E0000A21029254E4C046C0FF3F00E0FF1F00D3
:1044F0000200070003000100FF1AB700D80F0020D8
:1045000002000500010001000124D14B0C22002112
:104510000DA81C7001F019FF9020142303250BA98E
:10452000C0050B930C940E95FEF7A8FB902001227A
:104530001021C005FEF722FD902001220421C005B4
:10454000FEF71CFD2023902000240B930BA90F3BAA
:10455000C0050C930D940E94FEF790FB9020012261
:104560002021C005FEF70AFD902048230BA9C005B5
:104570000C940D940B930E950134FEF77FFBE0E451
:104580000798884201D000F061FF5B460BAF1E8A9E
:1045900007E0002E00D12BE32B78013E002B00D04A
:1045A0002CE33900200000F05FFF0228F1D0030067
:1045B000012800D023E3002307990293FFF701FCB1
:1045C0000A2902D00A2000F041FF5B461B8A0BAF8C
:1045D0001E0007E0002E00D1C0E22B78013E002B28
:1045E00000D0BBE239000E2000F03EFF0228F1D0DF
:1045F0000300012800D0B2E20B9B08991A0A0B7045
:104600004A701A0C1B0ECB700B1D8A7008930A217E
:10461000B2E68020C00218438E4BC418FFF78FFA11
:10462000FF238D4C7370FFF78AFA0123C41DE40841
:10463000013424041C43874B9C4664448DE5029A54
:1046400003009146564612E7022B00D183E300D9BE
:104650006AE3012B00D05BE30F228049280001F0C0
:104660006BFE0E237E4C7370FFF769FA4278DA76A0
:104670009B7E934200D8BBE40E2000F0E7FE00F0E2
:104680003BFE00237370030AB070F370030C000E3E
:1046900033717071734CFFF752FA8278C31C002A91
:1046A0000DD00220102405E00C4206D10133013A5E
:1046B000002A04D019780842F6D10533F7E7002222
:1046C0007270B270019A0224981A624B00049C46E0
:1046D00004436444FFF733FACB1C06930023624D76
:1046E0002B70C31C029383780393002B01D100F03D
:1046F00075FC00230020984699468A460893424656
:10470000039B9B1A0793029B5E1C1C780223059651
:10471000234200D1B6E05B464A461F8A3B00002A8E
:1047200026D011232340012B08D167E0002F00D1B0
:1047300055E12B78013F002B00D050E10BA90E2052
:1047400001F09CFA0228F1D000239946012800D0FC
:10475000D2E00B9B06991A0A0B704A701A0C1B0EBA
:10476000CB705B468A701B8A0A001F0004320692D7
:1047700001222240E10600D4C0E0717830780902BD
:104780000843B17809040143F07800060843029910
:1047900004900531059159464E8A002A3AD13700D6
:1047A0001E0005E0002E40D02B78013E002B3CD1AE
:1047B0000BA9200001F062FA02000228F2D05B4649
:1047C0000B995B690B40012801D000F05BFC049958
:1047D000994200D107E1002F00D1FEE02B78013F84
:1047E000002B00D0F9E05B461E8AE1E7002F00D1E4
:1047F00082E02B78013F002B00D07DE00BA9200048
:1048000001F03CFA0228F1D0A0E7013F74D32B78E5
:10481000002B71D10021200001F030FA0228F4D0E1
:10482000012869D15B461B8AB9E756460B995B465E
:104830005B691940049B8B4202D010201043C0B228
:10484000079B02221021002B43D0059C079B14E0FC
:10485000D80F00200100010002000500DC6B0008F9
:10486000100002000600020008100020394207D1A3
:104870000134013B002B00D1AAE127783A42F5D15F
:104880000534F6E74B46002B70D17278337812026C
:104890001A43B3781B041A43F3781B061343029A96
:1048A0000B9305320292202222427CD05A46536159
:1048B00000230120994601239C462B78E044002BDD
:1048C00000D058E2039B434500D018E75646029BB0
:1048D0000593012800D1B8E14346019A7370059B06
:1048E000B070981A069B009A00049C1ACC4B0443A3
:1048F0009C466444FFF723F95646A1E7002A0BD0F3
:104900004B46002B24D0002302960893D3E7013FA7
:10491000F2D32B78002BEFD10BA9200001F0AEF9D8
:104920000228F4D00128E7D10B9B06991A0A0B70D4
:104930004A701A0C1B0ECB700B1D069300238A7055
:1049400002960893B7E7013FD6D32B78002BD3D13B
:104950000021200001F092F90228F4D00128CBD1E7
:1049600000230893013399460296A4E75B461F8A09
:1049700005E0002FC0D02B78013F002BBCD10BA944
:104980000E2001F07BF90228F3D00128B4D10B9B53
:1049900006991A0A0B704A701A0C1B0ECB700B1D6D
:1049A0008A70069371E75B461B8A1E0007E0002EA3
:1049B00000D1DAE02B78013E002B00D0DAE00BA921
:1049C000200001F05BF90228F1D0012800D0D1E0ED
:1049D00001230893002399466DE756462DE70023EF
:1049E000564699462CE7059B02930023089362E7FD
:1049F00000234B708B70CB700333FFF765F90B1DF1
:104A000002930023874D82782B70C3781B021343D7
:104A1000039300D1F9E0037998465B461F8A434629
:104A20009B0700D5ABE1431D9946002301930BABD7
:104A30009A462B00544645468A4680461E004A4602
:104A40004B4652781B7812021A434B469B781B0444
:104A50001A434B46DB781B0613430B9304239C46F7
:104A6000E14405E0002F2FD03378013F002B2BD1FC
:104A70002100280001F002F90228F3D0012823D1F7
:104A80005A46019B01330193178A039A9A42D6D161
:104A900035004446564605E0002F09D02B78013FEB
:104AA000002B05D100210E2001F0E8F80228F3D0F8
:104AB000019BDAB21B0ADBB27270B370009A029BE0
:104AC000F0709B1AFFF700F9019B4446DAB21B0A0B
:104AD0005646DBB2F0E7C278837812021A430379B4
:104AE0000BA91B041A43437900201B0613430B93A5
:104AF00001F0C4F800234C4C7370FFF720F80798BE
:104B0000884201D000F0A2FC5B461E8A07E0002E1E
:104B100000D1E3E02B78013E002B00D025E10021FD
:104B2000200000F0A1FC0228F1D00300012800D0F1
:104B30008CE24B46079902900393FFF742F9FF235B
:104B40003A4C4B70FEF7FBFF8378012290209A438A
:104B50000221C005FEF712FAFFF709F80300029AD6
:104B6000564691460A22079281E4029BB14605937C
:104B7000564665E6029B56460593002399465FE636
:104B80002B4B9B4600235A4653702A4BC818FBF701
:104B9000C3FA0123022803D00321FBF7BDFA030067
:104BA0005A465360FFF78FFB90210425C9058D629B
:104BB000FFF707FB90211025C9058D62FFF7F5FA75
:104BC0000024FFF7BEF9002300220193FFF774F8D9
:104BD00005947EE6002291460A320300564607926B
:104BE00045E40A22079200220300564691463EE41D
:104BF000039AB14603005646059238E40300039A2F
:104C0000564605920022914631E4002000230022FE
:104C100052E7831C0593002300220993FFF76FFBE3
:104C2000010001000810002002000600020003003D
:104C3000D80F0020FF356E01F02B69D117238B7040
:104C4000163BDA4C7370FEF77AFF4B46002B00D10F
:104C5000FDE05B461C8A0BAB1F0007E0002C00D177
:104C60003AE62B78013C002B00D035E639000E20C7
:104C700001F004F80228F1D0012800D02CE60B9BAB
:104C800006991A0A0B704A701A0C1B0ECB700B1D7A
:104C90008A70069320E6059B07990393FFF791F826
:104CA000082000F0D3FBE378A0781B0203432079AF
:104CB000000403436079BE4C0006184300F054FB27
:104CC00000237370FEF73BFF6A46127E1400012B2F
:104CD00000D190E1DBB20993FFF711FBB14603006D
:104CE0005646FFF7C4FB0622B249280001F024FB18
:104CF0000623B14C7370FEF722FF002304228B7051
:104D00000B714B710433CA70AC4C7370FEF717FF14
:104D10000023AB4C7370FEF712FF08238B70073B28
:104D2000A24C7370FEF70BFFA64BA7491A680968DF
:104D3000A64B52185B88A649280001F00FFB2800FB
:104D4000FBF7E2F99E4AFF249446C3B20440644450
:104D50007370FEF7F4FE16229E49280001F0ECFA6B
:104D600015239D4C7370FEF7EAFE002203005646A1
:104D70009146FFF77CFB029B5646059360E5424651
:104D8000019B134218D04446804607E0002F00D113
:104D9000F4E02B78013F002B00D0EFE00021200051
:104DA00000F06CFF0228F1D04346A0461C00012809
:104DB00000D028E15B461F8A012252429446039BA1
:104DC00063449946002303930BAB9A462B00454658
:104DD000A0465446B2461E004B46002B06D1DFE0EB
:104DE000002F24D03378013F002B20D12100280050
:104DF00000F044FF0228F3D0012818D10B9B029940
:104E00001A0A0B704A701A0C1B0ECB70039B8A7027
:104E1000013303934B460A1D0292002B00D1B1E0EF
:104E20005B461F8A01235B429C46E144D4E7039B17
:104E30004446DAB21B0A5646DBB23DE64346DAB2D6
:104E400043461B0A4C465646DBB2FEF735FF089B2D
:104E5000002B00D140E55B461C8A07E0002C00D106
:104E60003AE52B78013C002B00D035E500210E20DF
:104E700000F004FF0228F1D02EE50C2200210DA83D
:104E800001F063FA53460B93012390200C934B4699
:104E90000BA9C0050E93FDF7F1FEFFF760FA029B28
:104EA00056469946039B079105930123FFF7DFFAC6
:104EB000039B22000593FFF722FA631D9946002306
:104EC00002930BAB9A462B004546A0465446B24689
:104ED0001E004A464B4652781B7812021A434B4634
:104EE0009B781B041A434B46DB781B0613430B933A
:104EF00004239C465B46E1441F8A05E0002F30D026
:104F00003378013F002B2CD12100280000F0ACFAAF
:104F10000228F3D0012873D1029B049A0133029333
:104F20009A42D6D1059B3500444656460A2B02D0FC
:104F30000A2000F08BFA5B461F8A05E0002F29D07B
:104F40002B78013F002B25D100210E2000F08CFA98
:104F50000228F3D0029B0190DAB21B0ADBB2FEF703
:104F6000ABFE029B4446DAB21B0A5646DBB2FEF7A2
:104F7000A3FE002344461A00FEF79EFE002344468B
:104F80001A0099E5039B4446DAB21B0A5646DBB287
:104F9000019891E5029BDAB21B0ADBB2FEF78CFEA8
:104FA00001331D4200D121E70E251FE70300020057
:104FB000020006006C6D00080800020006000200F6
:104FC00002000200ACF7FF1FB4F7FF1FB0F7FF1F8E
:104FD000646D0008EC6B000817000200002398467F
:104FE000029B4046059377E4039B059300230993B6
:104FF0001A00FFF784F9059B07990393FEF7F3FE68
:1050000044465646A6E700231A0055E5029A56463E
:105010009146FFF746FA029A56469146FFF727FA5D
:10502000059B0E240A2B01D1FEF718FE0A2000F082
:105030000DFAFEF713FE002301901A00FEF73CFE66
:10504000029A564691460791FFF711FA00225646FA
:105050009146FFF70CFA0C2200210DA801F075F91A
:1050600053460B934B4690200C9303230BA9C0058A
:105070000E93FDF703FEFFF75BF8039B0990059382
:10508000FFF73DF95646FFF7D2FB4346DAB24346F7
:105090001B0A4C465646DBB20190FEF70DFEC04699
:1050A000F8B503787F2B16D10B704378851C8E1CC6
:1050B0004B705C1E0A4F002B0BD031002800FEF70E
:1050C0001FFD030C3F180004000CED183618013CBE
:1050D000F3D23800F8BDFEF713FD0700F9E7C0462C
:1050E00002000200162010B5002100220124114BFD
:1050F00086B058604E3019801A73186159611C834C
:105100009A7603A80C2201F020F90294902403233C
:10511000E40501A920000193FDF7B0FD2000012264
:105120000221FDF72BFF012201212000FDF726FFC0
:1051300006B010BDD80F0020037801480B707047EF
:1051400001000100902310220421F0B5DB059961D4
:10515000364E9A629A619A629A6199629A629A61EB
:105160009A629A6130329A61F57E2A000C325200BE
:10517000B2181289002A05D00C31013A996299615E
:10518000002AFAD173191A7F013A002A11D001239B
:1051900090219C461024264FC90563460340013BDD
:1051A0003B404033013A8B6140088C628C61002A9D
:1051B000F3D1012210356D0075192B891040002B99
:1051C00027D01B4A0138104090221021D2054030D0
:1051D0009061013B9162916130319161002B05D06A
:1051E0003039013B91629161002BFAD19023042266
:1051F000DB059A610C329A629A6190231022042195
:10520000DB059A629A6199629A629A6130329A6178
:10521000F0BD90230422DB059A61054A0138104055
:105220001022403098619A629A61E6E7D80F002018
:10523000C0FF3F00F0B5DE464E4657464546934612
:105240003F22E0B5814683B0024000D140324B4658
:105250005B0649D590230420DB059861012398461D
:10526000244B48469C46802390258A464C46102174
:105270001840ED050190534608261F78A1460023EB
:1052800001E0002A23D0444660463C40013C0440F3
:10529000FF204034AC61A9622C695B08E408E4019A
:1052A0000440013EA9617F082343013A002EE8D162
:1052B00001984C46002804D05846037001239946B3
:1052C000CB4401239946CA44002AD4D105E04A467A
:1052D000F340120601D55A46137003B03CBC904609
:1052E0009946A246AB46F0BD90230420DB059862A8
:1052F000B4E7C046C0FF3F0090231022042130B520
:10530000DB0599619A629A6199629A629A619A62DE
:105310009A61144AD27E002A05D00C31013A996272
:105320009961002AFAD190221F2100231025102410
:10533000D205946210690139C008C0070343946123
:105340005B080029F5D10431916195621069C008AC
:10535000C007956118439562956191629562956168
:1053600030BDC046D80F0020902310220421F0B594
:10537000DB0599619A629A6199629A629A619A626E
:105380009A61304AD77E94463A1E05D00C31013AD4
:1053900099629961002AFAD190228023D205DB0319
:1053A000936110231F2101261024274D93629361DE
:1053B000936293619362936133000340013B2B40FE
:1053C0004033013993614008946294610029F3D11C
:1053D00063469B7EDF1B01231840012F24D01A4B0C
:1053E0000138184090231022DB054030023F9861BD
:1053F0009A629A61002F04D0013F9A629A61002F4D
:10540000FAD190230422DB059A610C329A629A61E8
:10541000902310220421DB059A629A6199629A62B4
:105420009A6130329A61F0BD04239361064B0138D2
:10543000184090231022DB05403098619A629A61EF
:10544000E6E7C046D80F0020C0FF3F0010B5054B6F
:105450005B78002B02D1FFF775FE10BDFFF772FEDF
:10546000FBE7C046D80F0020F0B5DE4657464E4653
:105470004546E0B5D24C83B0E37E8B46019362781B
:10548000002A6ED19022102604270199D205976137
:10549000966296619762966296619662966100291D
:1054A00004D0013B96629661002BFAD10122C54BD4
:1054B00046089C461640013E1E40902310270221BC
:1054C0006546DB0540369E619F621E699F61B60896
:1054D0000E40B14686081640013E2E4040369E6181
:1054E0009F621E69C508F60816402A406546013AC3
:1054F0002A40042540329F619A619F621A69AA4638
:1055000052082A404D462A4316439F61B146012E58
:1055100000D18BE052469A619F629F6190231022D6
:105520000421DB059A629A6199629A629A6130322B
:105530009A61030601D50023A360227B531E002A33
:1055400006D090211022C9058A628A61013BFBD2F4
:105550004B46D8B203B03CBC90469946A246AB46F7
:10556000F0BD902210260427D205976196629661BD
:1055700097629662966196629661002B04D0013B19
:1055800096629661002BFAD101228E4B46089C460A
:105590001640013E1E409023102702216546DB0580
:1055A00040369E619F621E699F61B6080E40B146FB
:1055B00086081640013E2E4040369E619F621E695D
:1055C000C508F60816402A406546013A2A400425D7
:1055D00040329F619A619F621A69AA4652082A4026
:1055E0004D462A4316439F61B146012E4FD0524685
:1055F0009A619F629F61902310220421DB059A62C9
:105600009A6199629A629A6130329A61030601D571
:105610000023A360227B531E002A99D090211022E0
:10562000C9058A628A61013BFBD291E701425FD0E2
:1056300010221F2700269046102199621A69013F07
:10564000D208D207164399617608002FF5D1A27EC1
:105650000199551A012D00D1C3E0424641469A6294
:105660001A69023D1207D20F9961002D07D09027C9
:105670001023FF05013DBB62BB61002DFAD19023D1
:105680000425DB059D610C359D629D61B2E0014200
:1056900062D010221F270021944610269E621A69AC
:1056A000013FD208D20711439E614908002FF5D16E
:1056B000A27E019D551B012D00D1A3E062466646E6
:1056C0009A621A69023D1207D20F9E61002D07D01F
:1056D00090271023FF05013DBB62BB61002DFAD16D
:1056E00090230425DB059D610C359D629D6192E050
:1056F0005A46116801221F279046102642466546E9
:105700000A40013A2A404032013F9A6149089E62AC
:105710009E61002FF2D1A27E019D551B01221140F6
:10572000012D51D0274A0139902311401022DB0569
:105730004031023D99619A629A61002D04D0013D89
:105740009A629A61002DFAD190230422DB059A61B6
:105750000C329A629A61E1E65A46116801221F27CB
:1057600090461026424665460A40013A2A40403299
:10577000013F9A6149089E629E61002FF2D1A27E8C
:10578000019D551B01221140012D4CD00D4A0139BC
:10579000902311401022DB054031023D99619A624D
:1057A0009A61002D04D0013D9A629A61002DFAD1D0
:1057B00090230422DB059A610C329A629A611AE7FF
:1057C000D80F0020C0FF3F0004229A611C4A013913
:1057D000902311401022DB05403199619A629A6151
:1057E0009CE604229A61424641469A621A6999618E
:1057F000D2082A405B46002B00D18FE6D207324305
:105800001A608BE604229A6162469A621A69D2088B
:105810002A4065469D615B46002B00D1EBE6D2072E
:105820000A431A60E7E604229A61054A0139902387
:1058300011401022DB05403199619A629A61DAE6E3
:10584000C0FF3F000122F0B5DE4657464E464546B2
:105850008B461100E0B5902610230425040001407A
:10586000BE4801390140F6050431B561B362B36148
:10587000B161110067083940013901400431B36258
:1058800089B0B361B161A108B3627F18B3611140FF
:105890000194B34C494221408024E402A446019C77
:1058A0006144A446B161E10867448C4667441140F5
:1058B0003A400139013A0140024004310432B362F6
:1058C000B361B161B362B361B2618022D202B362EB
:1058D0000021B36104A8B261B3621022B361B56163
:1058E000B362B36100F031FD032303A930000693D6
:1058F0000395FDF7C3F99B4B1F7E002F07D03A009D
:1059000033001021013A99629961002AFAD190225C
:105910001021D205916213699161916210699161C0
:10592000916215695B0791610C392940DB0F0B43CC
:105930004108022001400B439846012B6AD0991E72
:105940003B0081432133002922D014001022013B67
:10595000A262A261002BFAD10C22002105A800F05E
:10596000F4FC012390200425049303A90233C0050D
:1059700006930395FDF782F94346DBB29846A5618D
:10598000404609B03CBC90469946A246AB46F0BDA5
:10599000744B5B7E002B09D0019B184206D021235B
:1059A0001021013B91629161002BFAD1002F07D0A9
:1059B00090221023D205013F93629361002FFAD108
:1059C0000C22002105A800F0C0FC90260423F60557
:1059D0000393033B049303A9023330000693FDF7BE
:1059E0004DF9604B5B7E002B0CD0019B9B0709D4CB
:1059F0008023DB02B36110222123013BB262B2613A
:105A0000002BFAD190230422DB059A614346DBB2D6
:105A10009846B5E7019B18423FD1002F05D01023CF
:105A2000013F93629361002FFAD10C22002105A857
:105A300000F08BFC042390200393033B049303A901
:105A40000233C0050693FDF719F95B461A68012376
:105A50009846424B9021202000269C461027C905DD
:105A6000434664461340013B2340043301388B61B5
:105A7000B6188F6252088F610028F1D101231E40B1
:105A8000364B013E1E4090231022DB0504369E61FA
:105A90009A629A610123984645E000239A461033A2
:105AA000202100209946102501265446956213694D
:105AB00064089B083340C018DB071C43013995611B
:105AC000A2460029F1D14B469362136949469B08CF
:105AD000334058400723304040420340984601235A
